:020000040800F2
:10000000C8060020CD0100086B1300084D1200083F
:1000100069130008D3020008CB1800080000000094
:10002000000000000000000000000000A71600080B
:10003000D502000800000000A5160008A916000857
:10004000E7010008E7010008E7010008E7010008F0
:10005000E7010008E7010008E7010008E7010008E0
:10006000E7010008E7010008E7010008E7010008D0
:10007000E7010008E7010008E7010008E7010008C0
:10008000E7010008E7010008E7010008E7010008B0
:10009000E7010008E7010008E7010008E7010008A0
:1000A000E7010008E7010008E7010008E701000890
:1000B000E70100080D170008E7010008E701000844
:1000C000E7010008E7010008E7010008E701000870
:1000D000E7010008E7010008E7010008E701000860
:1000E000E7010008E7010008E7010008E701000850
:1000F000E7010008E7010008E7010008E701000840
:10010000E7010008E7010008E7010008E70100082F
:10011000E7010008E7010008E7010008E70100081F
:10012000E7010008E7010008E7010008E70100080F
:1001300000F002F800F03AF80AA090E8000C8244BF
:100140008344AAF10107DA4501D100F02FF8AFF29C
:10015000090EBAE80F0013F0010F18BFFB1A43F0A5
:1001600001031847B4210000D4210000103A24BF35
:1001700078C878C1FAD8520724BF30C830C144BF0C
:1001800004680C607047000000230024002500264E
:10019000103A28BF78C1FBD8520728BF30C148BFEA
:1001A0000B6070471FB51FBD10B510BD00F058F8AB
:1001B0001146FFF7F7FF01F099FB00F076F803B462
:1001C000FFF7F2FF03BC00F07DF80000094880470C
:1001D00009480047FEE7FEE7FEE7FEE7FEE7FEE729
:1001E000FEE7FEE7FEE7FEE704480549054A064B41
:1001F000704700000B17000831010008C8000020FC
:10020000C8060020C8020020C80200204FF00002EB
:1002100000B5134694469646203922BFA0E80C50FC
:10022000A0E80C50B1F12001BFF4F7AF090728BFD7
:10023000A0E80C5048BF0CC05DF804EB890028BF53
:1002400040F8042B08BF704748BF20F8022B11F07C
:10025000804F18BF00F8012B7047704770477047F8
:10026000754600F02BF8AE4605006946534620F06F
:100270000700854618B020B5FFF7B6FFBDE820405F
:100280004FF000064FF000074FF000084FF0000B52
:1002900021F00701AC46ACE8C009ACE8C009ACE805
:1002A000C009ACE8C0098D46704710B50446AFF3ED
:1002B00000802046BDE81040FFF781BF004870472E
:1002C0006400002001491820ABBEFEE726000200B2
:1002D0007047FEE7704772B6FEE7000070B504464F
:1002E00000F010F90546601C02D004480078044470
:1002F00000F008F9401BA042FAD370BD0C000020AA
:100300002DE9F84FDFF8C8910024A9F1040B23462A
:100310000F2709F1040AABF1040ED1E00125A54035
:1003200006EA0502AA4276D1DFF8A8C14E68A6EB1C
:100330000C0866452BD00DDC032E34D005DC36B31B
:10034000012E19D0022E2FD11BE0112E16D0122E05
:100350002AD119E0B8F5881F19D006DCB8F5803F1E
:1003600015D0B8F5801F1FD111E0B8F5001F0ED0D1
:10037000B8F5041F18D10AE0CB6815E0CB681B1D47
:1003800012E0CB6808330FE0CB680C330CE08B68CD
:100390002BB1012B4FF0080303D0456104E0042387
:1003A00002E0056100E00023FF2A01D8064601E0D3
:1003B00000F104064FEA840501D9A5F12005D6F81D
:1003C000008007FA05FC28EA0C0803FA05F548EA5C
:1003D0000508C6F800804D68ED0070D53E4DAE6949
:1003E00046F00106AE61AD6924F0030605F0010593
:1003F00000953A4D06EB050CDCF80850A607360FC1
:1004000007FA06F825EA0805DFF8D480404503D14D
:100410004FF0000825E052E0DFF8C880404502D1E7
:100420004FF001081DE0DFF8C080404502D14FF0D9
:10043000020816E0DFF8B480404502D14FF003080F
:100440000FE0DFF8AC80404502D14FF0040808E02F
:10045000DFF8A080404502D14FF0050801E04FF0E1
:10046000060808FA06F848EA0508CCF808804D683E
:10047000D9F80060ED024D4601D5164300E09643E1
:100480002E604D68DAF80060AD02554601D516437E
:1004900000E096432E604D68DBF80060AD035D46DA
:1004A00001D5164300E096432E604D68DEF80060EB
:1004B000ED03754601D5164300E096432E60641C9B
:1004C0000A681646E2407FF429AFBDE8F88F0000C5
:1004D000080401400000111000100240000001401B
:1004E00000080140000C01400010014000140140D0
:1004F00000180140001C01400AB101617047090465
:10050000FBE7000001488068704700000C000020F5
:100510000248816802781144816070470C00002015
:10052000074810B5016841F010010160032000F098
:1005300075F80F2000F006F800F024F8002010BD38
:100540000020024070B50D4D04464FF47A712878B2
:10055000B1FBF0F00A490968B1FBF0F000F0BCFA19
:1005600048B9102C07D200222146501E00F036F860
:1005700000206C6070BD012070BD00000C000020E8
:10058000180000200C4808B5816941F00101816123
:10059000816901F001010091C16941F08051C1619F
:1005A000C06900F0805000900448416821F0E0618B
:1005B00041F00071416008BD0010024000000140A0
:1005C000002809DB00F01F02012191404009800052
:1005D00000F1E020C0F8001170470000F0B40E4BAD
:1005E0001B680C46C3F30223C3F10705042D00D991
:1005F0000425191D072901D2002300E0DB1E012676
:1006000006FA05F1491E214099409E40761E16408B
:100610003143F0BC01F05AB90CED00E0064900F09E
:10062000070208684FF6FF03184040EA0220034A19
:1006300010430860704700000CED00E00000FA0570
:100640002DE9F0470F46050061D0434E306800F0B9
:100650000700B84209D2306820F007003843306004
:10066000306800F00700B84251D128683B4C810740
:1006700012D5400703D5606840F4E06060602878D8
:10068000000703D5606840F4605060606068A96846
:1006900020F0F000084360602878C00728D0686820
:1006A000012810D02168022810D0890700292EDAED
:1006B000616821F0030101436160FFF723FF804679
:1006C00041F288390DE021688903EFE78901EDE700
:1006D000FFF718FFA0EB0801494502D90320BDE848
:1006E000F0876068696800F00C00B0EB810FEFD113
:1006F000306800F00700B8420BD9306820F00700DE
:1007000038433060306800F00700B84201D0012063
:10071000E5E72878400705D56068E96820F4E060DF
:10072000084360602878000706D56068296920F4CE
:10073000605040EAC100606000F018F86168084A43
:10074000C1F30311515CC8400649086006480068BF
:10075000FFF7F8FE0020C2E7002002400010024030
:100760006E19000818000020100000200E4A516881
:100770000E4801F00C03042B11D0082B0FD10C48AC
:10078000C1F38343C903C05C0AD55168084AC1F369
:100790004041921E515C054A5043B0FBF1F0704756
:1007A00004494843704700000010024000127A00DC
:1007B0005E19000800093D002DE9F84F040070D0D3
:1007C0002078C04DC00749D06868C0F38100012877
:1007D00007D06868C0F38100022809D16868C003A7
:1007E00006D52868800339D560680028E7D035E051
:1007F0006068B0F5803F0BD010B1B0F5A02F11D0DC
:10080000286820F480302860286820F4802002E0E6
:10081000286840F480302860606890B1FFF772FE6D
:1008200006460AE0286840F480202860F0E700BF10
:10083000FFF768FE801B642873D828688003F7D50B
:100840000CE0FFF75FFE064605E000BFFFF75AFE2B
:10085000801B6428F0D828688003F7D420789A4E4B
:1008600080074FF001094FF0000839D5686810F093
:100870000C0F07D06868C0F38100022809D16868AE
:10088000C00306D42868800714D52069012808D140
:1008900010E02069B0B1C6F80090FFF733FE0746BC
:1008A00005E00AE1FFF72EFEC01B0228C4D8286825
:1008B0008007F7D52868616920F0F80040EAC10098
:1008C00028600DE0C6F80080FFF71CFE074604E034
:1008D000FFF718FEC01B022823D828688007F7D42A
:1008E000207800072CD57948A169D9B1C0F80090CB
:1008F000FFF708FE074604E0FFF704FEC01B0228CE
:100900000FD8686A8007F7D571484FF4FA5100682C
:10091000B0FBF1F0009000BF0098411E0091FAD2A8
:100920000EE080E0C0F80080FFF7ECFD074604E031
:10093000FFF7E8FDC01B022875D8686A8007F7D466
:100940002078400760D5E8690027C00008D4E8692E
:1009500040F08050E861E869012700F08050009085
:100960005C480168C90513D40168834641F480716D
:100970000160FFF7C7FD824606E000BFFFF7C2FD3A
:10098000A0EB0A0064284ED8DBF80000C005F5D5BE
:10099000E06801280AD008B1052813D0286A20F0A1
:1009A00001002862286A20F0040002E0286A40F072
:1009B00001002862E06841F2883B98B1FFF7A2FD90
:1009C00082460BE0286A40F004002862EEE700BF90
:1009D000FFF798FDA0EB0A0159455AD8286A80070D
:1009E000F6D50CE0FFF78EFD824605E0FFF78AFDA5
:1009F000A0EB0A0159454CD8286A8007F6D41FB1EC
:100A0000E86920F08050E861E06988B36968C1F363
:100A10008101022944D00228C6F8608004D0FFF783
:100A200071FD044638E034E0FFF76CFD074604E052
:100A3000FFF768FDC01B02282BD828688001F7D477
:100A4000206AB0F5803F05D16868A16820F40030C5
:100A500008436860D4E908010843696821F4741107
:100A600008436860C6F86090FFF74CFD044606E056
:100A700025E000BFFFF746FD001B022809D82868C3
:100A80008001F7D51BE000BFFFF73CFD001B0228EB
:100A900002D90320BDE8F88F28688001F4D40EE065
:100AA0000128F7D06868226A00F48031914204D1AD
:100AB000616A00F47010884201D00120EAE700204A
:100AC000E8E7000000100240000042428004424279
:100AD000180000200070004010B5401EB0F1807F6B
:100AE00001D3012010BD4FF0E02460610F21601799
:100AF00000F0ECFE0020A06107202061002010BD66
:100B00007047704770B590F83C20012A2CD0012422
:100B100080F83C40022280F83D2003685A689D68B6
:100B200022F070060A6832435A60104B02689A42FB
:100B30000ED00F4B9A420BD0B2F1804F08D00D4B24
:100B40009A4205D00C4B9A4202D00C4B9A4204D1E7
:100B5000496825F080031943916080F83D400021E9
:100B600080F83C10084670BD022070BD002C01408A
:100B7000003401400004004000080040000C004028
:100B800010B5040003D094F83D0010B107E0012037
:100B900010BD002084F83C00204600F01FF8022021
:100BA00084F83D00211D206800F0B6FD012084F886
:100BB000460084F83E0084F83F0084F8400084F842
:100BC000410084F8420084F8430084F8440084F82B
:100BD000450084F83D00002010BD000000B585B040
:100BE0000021009101910291039100681749884208
:100BF0002AD11748C16941F00201C161C16901F000
:100C000002010491816941F01001816180696946A6
:100C100000F0100004904FF48070009001200290CA
:100C20000C48FFF76DFB0C48416821F4406141F02E
:100C3000E06141F440614160002211461D20FFF750
:100C4000CDFC1D20FFF7BCFC05B000BD000400403A
:100C500000100240001001400000014090F83D10DB
:100C6000012901D001207047022180F83D10016860
:100C7000CA6842F00102CA6000680E4988420ED07C
:100C80000D4988420BD0B0F1804F08D00B49884203
:100C900005D00B49884202D00A49884204D18168B4
:100CA00001F00701062903D0016841F0010101604C
:100CB00000207047002C0140003401400004004037
:100CC00000080040000C004070B5044690F83C005D
:100CD0000025012817D0012684F83C60022084F802
:100CE0003D002068826822F0770222F47F42826011
:100CF0000868502838D00DDC20284FD005DC90B390
:100D0000102811D14AE0022070BD302846D040287A
:100D10000AD13BE060282FD070280DD0B0F5805F5D
:100D200003D0B0F5005F12D0012584F83D600020AB
:100D300084F83C00284670BDCB68D1E901212068C9
:100D400000F03DFD2068816841F0770109E0CB6843
:100D5000D1E90121206800F032FD2068816841F46A
:100D600080418160E1E719E0CA684968206800F0C5
:100D700038FD5021206806E0CA684968206800F004
:100D800077FD6021206800F024FDCEE7CA6849683D
:100D9000206800F026FD40212068F4E72268014623
:100DA0001046F0E770B500681549884216D1154D18
:100DB000154C287898B1012810D10821204600F060
:100DC0002FFAA8602068016A21F40071016220688E
:100DD000016A41F4007101620220287070BD21682F
:100DE0000020486221680A6A22F400720A622168BF
:100DF0000A6A0A6201212970A860686070BD00005B
:100E000000040040000000201C0000202DE9F041FB
:100E1000054690F83C0000260C46012810D0012021
:100E200085F83C0072B1042A1CD0082A2CD00C2A68
:100E300050D00126002085F83C003046BDE8F08106
:100E40000220FBE7D4E90012E368286800F0DAFC2E
:100E50002868816921F00C01816128688169A26894
:100E600011430FE0D4E90012E368286800F012FD96
:100E70002868816921F44061816128688169A268DC
:100E800041EA02218161D5E72868D4E9002C277B5B
:100E9000036A016A21F480710162C16923F400735D
:100EA00021F0030141EA0C0121F0F00C39074FF465
:100EB00000774CEA116107EA02221A43C16102621B
:100EC0002868C16921F00C01C1612868C169A26864
:100ED00011432BE02868D4E90021E768036AD0F8C1
:100EE00020C02CF4805CC0F820C0D0F81CC023F4D3
:100EF00000532CF4407C4CEA012121F4704C4FF655
:100F0000FF7101EA07314FF4005741EA0C0107EA8B
:100F100002321A43C16102622868C16921F440614A
:100F2000C1612868C169A26841EA0221C16181E703
:100F300010B5040003D094F83D0010B107E0012083
:100F400010BD002084F83C00204600F01EF802206E
:100F500084F83D00211D206800F0DEFB012084F8AC
:100F6000460084F83E0084F83F0084F8400084F88E
:100F7000410084F8420084F8430084F8440084F877
:100F8000450084F83D00002010BD704730B5044690
:100F9000002551B104290DD0082910D094F8412022
:100FA00094F84500012A11D10EE094F83E2094F8FF
:100FB0004200F7E794F83F2094F84300F2E794F8F2
:100FC000402094F84400EDE7012801D0012030BD15
:100FD000022059B1042912D0082919D084F84100FF
:100FE00084F845000C293ED001253AE084F83E0003
:100FF00084F842002068C26842F0020210E084F8DF
:101000003F0084F843002068C26842F0040207E011
:1010100084F8400084F844002068C26842F0080266
:10102000C2600122206800F0BDFB1149206888429F
:101030000ED0104988420BD0B0F1804F08D00E4935
:10104000884205D00D49884202D00D49884204D11A
:10105000816801F00701062903D0016841F0010110
:101060000160284630BD2068C26842F01002D7E710
:10107000002C014000340140000400400008004002
:10108000000C004070B50446006801694FF000058F
:10109000C943890715D4C168C943890711D4E91E1A
:1010A000016101202077206880698007204602D0F6
:1010B000FFF778FE04E000F098F8204600F096F87C
:1010C000257720680169C943490717D4C168C94316
:1010D000490713D46FF004010161022020772068D2
:1010E000806910F4407F204602D0FFF75BFE04E0E9
:1010F00000F07BF8204600F079F825772068016938
:10110000C943090716D4C168C943090712D46FF04F
:1011100008010161042020772068C069800720460B
:1011200002D0FFF73FFE04E000F05FF8204600F039
:101130005DF8257720680169C943C90617D4C168DD
:10114000C943C90613D46FF010010161082020774C
:101150002068C06910F4407F204602D0FFF722FECD
:1011600004E000F042F8204600F040F825772068BF
:101170000169C943C90708D1C168C943C90704D176
:10118000891E0161204600F033F820680169C943D7
:10119000090609D4C168C943090605D46FF0800166
:1011A00001612046FFF7ACFC20680169C94349068C
:1011B00009D4C168C943490605D46FF040010161F3
:1011C000204600F042F820680169C94389060BD423
:1011D000C168C943890607D46FF020010161204628
:1011E000BDE87040FFF78DBC70BD704770470000D0
:1011F0000068094988420BD108480178012907D1C4
:1012000041684FF6FF72914203D102210170826062
:101210007047491C416070470004004000000020F6
:101220000246002041B1042909D008290AD00C291E
:1012300001D11068006C70471068406B70471068EF
:10124000806B70471068C06B70477047FEE7000006
:1012500070B586B000241C48009401940294039455
:10126000816941F020018161816901F020010491CF
:10127000816941F010018161816901F010010491DF
:10128000816941F004018161816901F004010491E7
:10129000816941F00801816180690C4E00F008000D
:1012A0004FF4F8750490002229463046FFF724F9E0
:1012B00001200095CDE901040320039069463046E2
:1012C000FFF71EF806B070BD00100240000C014090
:1012D00010B58AB00024234804940594069407941A
:1012E000089409940094019402941D4903940160A8
:1012F00041F61F41C0E901146321C0E90314846170
:10130000FFF73EFC08B1FEF7E6FF4FF48050049073
:1013100004A91448FFF7D8FC08B1FEF7DCFF114818
:10132000FFF706FE08B1FEF7D6FF089408A90D489E
:101330000994FFF7E7FB08B1FEF7CDFF022000900C
:101340000120CDE901040822694606480394FFF70D
:101350005DFD002801D0FEF7BEFF0AB010BD000001
:10136000000400401C000020FEE7FEE770B50024EA
:1013700004F1B000C0B200F08FF9022000F08CF947
:10138000102000F089F90025002000F088F96D1C7C
:10139000EDB2802DF8D3641CE4B2082CE8D370BD04
:1013A00010B5454C00224FF480712046FFF7A4F899
:1013B000012280212046FFF79FF8012210212046BC
:1013C000FFF79AF8012220212046FFF795F8012225
:1013D00040212046FFF790F86420FEF77FFF0122AE
:1013E00040212046FFF788F86420FEF777FF0122AE
:1013F00040212046FFF780F8AE2000F04DF9022092
:1014000000F04AF9102000F047F9402000F044F9BC
:10141000812000F041F9CF2000F03EF9A12000F03A
:101420003BF9C82000F038F9A62000F035F9A820D3
:1014300000F032F93F2000F02FF9D32000F02CF912
:10144000002000F029F9D52000F026F9802000F0D6
:1014500023F9D92000F020F9F12000F01DF9DA205D
:1014600000F01AF9122000F017F9DB2000F014F94F
:10147000402000F011F9202000F00EF9022000F0C9
:101480000BF98D2000F008F9142000F005F9A420D4
:1014900000F002F9A62000F0FFF8AF2000F0FCF801
:1014A000AF2000F0F9F8FFF761FF0021BDE8104020
:1014B000084600F00BB80000000C01400246012075
:1014C00000E05043491EC9B2FBD2704710B5044634
:1014D000B031C8B200F0E0F8102040EA141000F07B
:1014E000DBF804F00F00BDE8104000F0D5B80000B4
:1014F0002DE9F047203A0024089F0D468146D6B2D8
:101500007F2803D900208D1C8146EDB2102B16D008
:10151000062B12D16D1CE9B2FFF7D8FF1A4906EB72
:10152000460001EB4005285D07B1C043C0B200F0A2
:10153000B6F8641CE4B2062CF5D3BDE8F087294662
:10154000FFF7C4FFDFF8448004EB061118F8010030
:1015500007B1C043C0B200F0A2F8641CE4B2082C8A
:10156000F2D36D1CE9B24846FFF7B0FF00244546B0
:1015700004EB06102844007A00F091F8641CE4B2F1
:10158000082CF5D3D9E700007E190008A61B000837
:101590002DE9F84F0026DDE90AA81D4691468B4645
:1015A0000746344627E0281B401EC1B20A20FFF739
:1015B00085FFB9FBF0F00A21B0FBF1F201FB12004C
:1015C00026B9691E8C4201DA48B101263030C2B218
:1015D00007EBC400C0B25346CDF8008006E007EB2D
:1015E000C400C0B253462022CDF800805946FFF710
:1015F0007FFF641CE4B2AC42D5D3BDE8F88F2DE97F
:10160000F843994617460E4604460025DDF820802B
:101610000FE04B4631462046CDF80080FFF768FFCB
:101620000834E4B2782C02D90024B61CF6B26D1C42
:10163000EDB27A5D002AECD1BDE8F88370B5154EA5
:10164000054609B1012200E0002280213046FEF764
:1016500053FF0024002210213046FEF74DFF2806DC
:1016600001D5012200E0002220213046FEF744FF90
:10167000012210213046FEF73FFF6806641C050E6C
:10168000E4B2082CE6D33046BDE870400122802148
:10169000FEF732BF000C01400021FFF7CFBF012150
:1016A000FFF7CCBF70477047FEF732BF30B58FB041
:1016B00028216846FEF7AAFD14210AA8FEF7A6FD18
:1016C00001210804CDE900100024029402250491B0
:1016D000CDE907504FF4E01009906846FFF76CF829
:1016E00008B172B6FEE70F20CDE90A054FF480601D
:1016F000CDE90C4002210AA80E94FEF7A1FF0028B4
:1017000001D072B6FEE70FB030BD70470148FFF759
:10171000B9BC00001C000020F0B502681C4B1D4D38
:101720001D4E1E4F1E4C4FF0804C984209D0A042D7
:1017300007D0604505D0A84203D0B04201D0B842DE
:1017400004D122F0700E4A6842EA0E02984209D093
:10175000A04207D0604505D0A84203D0B04201D0D6
:10176000B84203D122F44075CA682A434D6922F079
:1017700080022A4302608A68C2620A6882629842D2
:1017800001D0A04201D10969016301214161F0BD8D
:10179000002C01400004004000080040000C004004
:1017A0000034014010B501F01F030121046A994083
:1017B0008C430462016A9A401143016210BD10B566
:1017C000846842EA032224F47F440A43224382606D
:1017D00010BD826822F070020A4342F00701816066
:1017E000704710B5036A046A24F001040462846936
:1017F00024F0F00444EA021423F00A020A4384614C
:10180000026210BD70B5056A046A24F00104046226
:101810008469124EB0420ED0114EB0420BD0B0F1DE
:10182000804F08D00F4EB04205D00F4EB04202D0CC
:101830000E4EB04203D124F00304144301E044F0FF
:1018400001041A0724F0F00444EA126225F00A03A6
:1018500001F00A0119438261016270BD002C014050
:10186000003401400004004000080040000C00402B
:1018700010B5036A046A24F010040462846923F03A
:10188000A00324F4704444EA023243EA0111826165
:10189000016210BD30B5046A056A25F010050562C5
:1018A000856925F4407545EA022222F470454FF619
:1018B000FF7202EA033224F0A0032A43A02404EAC0
:1018C000011119438261016230BDFEE70907090E6B
:1018D000002804DB00F1E02080F80014704700F0DD
:1018E0000F0000F1E02080F8141D70471CB5FEF7D2
:1018F00017FEFFF7DBFEFFF7ABFCFFF7E9FC082163
:101900001148FFF743FB1048FFF7A8F9FFF748FD20
:1019100000250E4C102720780228FCD16068A168B1
:10192000C0EB004046180021102309A2084600958C
:10193000FFF765FECDE90075032332460221002042
:10194000FFF726FE2570E6E71C00002000000020BF
:101950006B65792074696D653A000000010202032D
:101960000405060708090A0B0C0D0E0F10100000E5
:10197000000000000000010203040607080900003F
:10198000000000000000002F00000000070007001A
:1019900000147F147F1400242A7F2A120062640836
:1019A00013230036495522500000050300000000B3
:1019B0001C224100000041221C000014083E0814B3
:1019C0000008083E0808000000A0600000080808A1
:1019D0000808000060600000002010080402003EBB
:1019E0005149453E0000427F400000426151494656
:1019F000002141454B31001814127F100027454546
:101A00004539003C4A494930000171090503003657
:101A10004949493600064949291E0000363600006A
:101A2000000056360000000814224100001414146F
:101A3000141400004122140800020151090600326A
:101A40004959513E007C1211127C007F49494936A8
:101A5000003E41414122007F4141221C007F494913
:101A60004941007F09090901003E4149497A007F47
:101A70000808087F0000417F4100002040413F01ED
:101A8000007F08142241007F40404040007F020C4C
:101A9000027F007F0408107F003E4141413E007FED
:101AA00009090906003E4151215E007F09192946B6
:101AB0000046494949310001017F0101003F404092
:101AC000403F001F2040201F003F4038403F006340
:101AD0001408146300070870080700615149454362
:101AE00000007F41410000552A552A550000414120
:101AF0007F0000040201020400404040404000001A
:101B000001020400002054545478007F48444438B3
:101B100000384444442000384444487F003854543A
:101B2000541800087E0901020018A4A4A47C007FB8
:101B3000080404780000447D4000004080847D005B
:101B4000007F102844000000417F4000007C041802
:101B50000478007C0804047800384444443800FCCD
:101B6000242424180018242418FC007C08040408E9
:101B700000485454542000043F444020003C40405E
:101B8000207C001C2040201C003C4030403C004495
:101B900028102844001CA0A0A07C004464544C449D
:101BA00014141414141400000000000000000000BD
:101BB000000000000000000000F80000000000002D
:101BC00000333000000000100C06100C060000006E
:101BD00000000000000040C07840C0784000043F92
:101BE00004043F040400007088FC08300000001862
:101BF00020FF211E0000F008F000E0180000002186
:101C00001C031E211E0000F00888700000001E2129
:101C100023241927211010160E00000000000000D8
:101C2000000000000000000000E0180402000000B6
:101C300000071820400000020418E00000000040E7
:101C4000201807000000404080F080404000020261
:101C5000010F01020200000000F00000000001017D
:101C6000011F01010100000000000000000080B021
:101C700070000000000000000000000000000001F3
:101C8000010101010101000000000000000000301E
:101C900030000000000000000000806018040060B8
:101CA00018060100000000E010080810E000000F16
:101CB000102020100F00001010F80000000000207D
:101CC000203F2020000000700808088870000030C5
:101CD000282422213000003008888848300000186D
:101CE000202020110E000000C02010F80000000786
:101CF0000424243F240000F80888880808000019FC
:101D0000212020110E0000E0108888180000000F2C
:101D1000112020110E0000380808C8380800000003
:101D2000003F000000000070880808887000001C58
:101D3000222121221C0000E010080810E000000011
:101D4000312222110F00000000C0C000000000007E
:101D500000303000000000000080000000000000A3
:101D6000806000000000000080402010080000019A
:101D7000020408102000404040404040400004045D
:101D80000404040404000008102040800000002027
:101D9000100804020100007048080808F000000064
:101DA000003036010000C030C828E810E0000718F5
:101DB000272423140B000000C038E0000000203C62
:101DC00023020227382008F8888888700000203F06
:101DD000202020110E00C03008080808380007181D
:101DE00020202010080008F808080810E000203F14
:101DF000202020100F0008F88888E8081000203FF5
:101E000020202320180008F88888E8081000203FC8
:101E1000200003000000C030080808380000071840
:101E20002020221E020008F808000008F808203FC1
:101E3000210101213F20000808F8080800000020C7
:101E4000203F2020000000000808F8080800C0809B
:101E500080807F00000008F888C028180800203F14
:101E600020012638200008F8080000000000203F6C
:101E700020202020300008F8F800F8F80800203F63
:101E8000003F003F200008F830C00008F808203F5D
:101E9000200007183F00E01008080810E0000F10AD
:101EA000202020100F0008F808080808F000203F44
:101EB000210101010000E01008080810E0000F18DF
:101EC000242438504F0008F8888888887000203F04
:101ED0002000030C30200070880808083800003803
:101EE000202121221C00180808F80808180000000A
:101EF000203F2000000008F808000008F808001F34
:101F0000202020201F000878880000C83808000022
:101F100007380E010000F80800F80008F800033C3C
:101F20000700073C03000818688080681808203004
:101F30002C03032C30200838C800C83808000000E3
:101F4000203F2000000010080808C838080020388A
:101F5000262120201800000000FE020202000000DE
:101F6000007F40404000000C30C000000000000036
:101F700000010638C00000020202FE00000000401E
:101F800040407F0000000000040202020400000044
:101F90000000000000000000000000000000808041
:101FA0008080808080800002020400000000000029
:101FB0000000000000000000808080800000001908
:101FC000242222223F2008F8008080000000003FE9
:101FD000112020110E000000008080800000000E03
:101FE000112020201100000000808088F800000EE1
:101FF000112020103F200000808080800000001F02
:10200000222222221300008080F088888818002075
:10201000203F202000000000808080808000006B36
:1020200094949493600008F8008080800000203F22
:10203000210000203F200080989800000000002030
:10204000203F20200000000000809898000000C081
:102050008080807F000008F8000080808000203FA2
:1020600024022D302000000808F8000000000020A5
:10207000203F202000008080808080808000203FE2
:1020800020003F20003F8080008080800000203FB3
:10209000210000203F200000808080800000001F81
:1020A000202020201F00808000808000000080FF12
:1020B000A12020110E000000008080808000000E12
:1020C000112020A0FF808080800080808000202060
:1020D0003F212000010000008080808080000033CC
:1020E000242424241900008080E080800000000067
:1020F000001F202000008080000000808000001F62
:10210000202020103F2080808000008080800001FF
:102110000E300806010080800080008080800F3033
:102120000C030C300F0000808000808080000020B5
:10213000312E0E31200080808000008080808081E0
:102140008E70180601000080808080808000002151
:10215000302C2221300000000000807C02020000B0
:102160000000003F404000000000FF0000000000B1
:102170000000FF0000000002027C80000000004020
:10218000403F0000000000060101020204040000BC
:102190000000000000000000F010101010FF1010F0
:1021A0001010F0000000000000000000000000001F
:1021B00000000000000000000F04040404FF0404F9
:1021C00004040F00000000000000000000000000F8
:1021D00000000000000000FE0212929292F2929221
:1021E000921202FE0000000000000000000000004B
:1021F00000000000000000FF40484848484F484A9F
:102200004C4840FF000000000000000000000000FB
:1022100000000000000020242424FE23222020FFB0
:1022200020222CA020000000000000000000000080
:10223000000000000000000848847F024140201395
:102240000C142241F8000000000000000000000013
:1022500000000000000080642C342424EC32222290
:10226000322E23A2600000000000000000000000E9
:102270000000000000000041219189874D5525256F
:10228000554D81808000000000000000000000002B
:10229000000000000000008060F8074020180F08D0
:1022A000C808082818000000000000000000000016
:1022B000000000000000010000FF00100C0340803F
:1022C0007F00010618000000000000000000000070
:1022D00000000000000000FC0404FC00C2BA82827E
:1022E00082FE8282800000000000000000000000EA
:1022F000000000000000000F04040F20100804423A
:10230000817F0000000000000000000000000000CD
:10231000000000000000000038230008000000203A
:102320001C0000006C010008542300081C00002061
:10233000AC0600008801000800000000000000005A
:10234000000000000100000010000000000000007C
:042350000024F40071
:0400000508000131BD
:00000001FF
