:020000040800F2
:1000000090980120A1010008352C00088F250008D8
:10001000312C0008C1070008CB31000800000000A7
:100020000000000000000000000000003B2C000861
:10003000C507000800000000392C00083D2C00080E
:10004000BB010008BB010008BB010008BB010008A0
:10005000BB010008BB010008BB010008BB01000890
:10006000BB010008BB010008BB010008BB01000880
:10007000BB010008BB010008BB010008BB01000870
:10008000BB010008BB010008BB010008BB01000860
:10009000BB010008BB010008BB010008BB01000850
:1000A000BB010008BB010008BB010008BB01000840
:1000B000BB010008BB010008BB010008BB01000830
:1000C000BB010008BB010008BB010008BB01000820
:1000D000BB010008BB010008BB010008BB01000810
:1000E000BB010008BB010008BB010008BB01000800
:1000F000BB010008BB010008BB010008BB010008F0
:10010000BB010008BB010008BB010008BB010008DF
:10011000BB010008BB010008BB010008BB010008CF
:10012000BB010008BB010008BB010008BB010008BF
:10013000BB010008BB010008BB010008BB010008AF
:10014000BB010008BB010008BB010008BB0100089F
:10015000BB010008BB010008BB010008BB0100088F
:10016000BB010008BB010008BB010008BB0100087F
:10017000BB010008BB010008BB0100080000000033
:10018000BB010008BB010008DFF810D000F006FB3F
:100190000048004785A00008AFF300809098012038
:1001A0000648804706480047FEE7FEE7FEE7FEE711
:1001B000FEE7FEE7FEE7FEE7FEE7FEE7F92C0008B4
:1001C000890100082DE9F05F0546002092469B4614
:1001D00088460646814640241BE02846414647465D
:1001E000224600F0B9F953465A46C01A914110D33D
:1001F00011461846224600F0A0F92D1A67EB0108B7
:100200004F4622460120002100F097F917EB000924
:100210004E41201EA4F10104DFDC484631462A4647
:100220004346BDE8F09F2DE9F0410024061B25461A
:1002300071F1000605DA01240027D0EB070067EB17
:100240000101161E73F1000605DA0027D2EB070242
:10025000012567EB0303FFF7B5FF86460E461746F9
:100260009C46AC4204D00025D0EB050E65EB0106A0
:1002700024B10020D2EB000760EB030C704631463E
:100280003A466346BDE8F08140EA01039B0703D08C
:1002900009E008C9121F08C0042AFAD203E011F8C5
:1002A000013B00F8013B521EF9D27047D2B201E087
:1002B00000F8012B491EFBD270470022F6E710B56B
:1002C00013460A4604461946FFF7F0FF204610BDC4
:1002D000034611F8012B00F8012B002AF9D118462A
:1002E00070472DE9FE4F804681EA0300C00F0C469F
:1002F000009021F0004123F00045B8EB0200A94135
:1003000005D24046214690461C460B46024623F045
:100310000040104347D0270DC7F30A00C3F30A512A
:100320000290401A019040286BDAC3F3130040F4A6
:10033000801B0098924620B10023D2EB030A63EBA6
:100340000B0B01985946C0F14002504600F0F5F8F9
:1003500006460D4650465946019A00F00DF910EB3D
:1003600008006141002487EA115284EAE7731A43C6
:1003700040D0009A62B3019A012A4FEA075215DC75
:10038000001B61EB02014FF0004202EA0752CDE987
:100390000042001C41F5801132462B4600F00DF959
:1003A00003B0BDE8F08F40462146F9E7001B61EB42
:1003B0000201001C41F5801300185B412018A2F5D2
:1003C000001747EB030140EAD570B6196D4111E003
:1003D0006D084FEA360645EAC0754FEA0752001B22
:1003E00061EB0201001C41F5801149084FEA300021
:1003F0000019514132462B4603B0BDE8F04F00F0E2
:10040000CDB80098012240000023D0EB020263EB3C
:10041000E073009821464FEAE074B8EB000061EB0E
:100420000401E9E783F000435BE781F0004158E70E
:100430002DE9F04D81EA030404F0004B21F0004562
:1004400014464FF0000A23F0004150EA050220D084
:1004500054EA01021DD0C5F30A570246C5F313033F
:10046000C1F31300C1F30A5640F4801543F480131E
:10047000A7EB0608101BD64608F2FD3873EB050003
:1004800002D308F1010801E092185B41B8F1000FB6
:1004900003DA00200146BDE8F08D00204FF4801102
:1004A000064684460EE0171B73EB050705D3121BA7
:1004B00063EB050306434CEA010C49084FEA3000A0
:1004C00092185B4150EA0107EDD152EA030012D0C5
:1004D00082EA040083EA0501084305D0101BAB4102
:1004E00006D20122002306E000224FF0004302E082
:1004F0006FF0010253101AEB06004CEB085110EBA1
:100500000A0041EB0B01BDE8F04D00F047B830B5F3
:100510000B46014600202022012409E021FA02F5C1
:100520009D4205D303FA02F5491B04FA02F528445B
:10053000151EA2F10102F1DC30BD202A04DB203AB5
:1005400000FA02F1002070479140C2F1200320FA26
:1005500003F3194390407047202A04DB203A21FA24
:1005600002F00021704721FA02F3D040C2F12002CC
:100570009140084319467047202A06DBCB17203AE2
:1005800041FA02F043EAE07306E041FA02F3D04098
:10059000C2F12002914008431946704710B5141E5D
:1005A00073F1000408DA401C41F1000192185B412C
:1005B0001A4301D120F0010010BD2DE9F04D924603
:1005C0009B4611B1B1FA81F202E0B0FA80F220321A
:1005D0009046FFF7B2FF04460F4640EA0A0041EAA0
:1005E0000B0153465A46084313D0114653EA010003
:1005F00019D0C8F140025046FFF7AEFF05460E463F
:10060000504659464246FFF798FF084305D001205F
:1006100004E020463946BDE8F08D0020054346EA57
:10062000E0762C4337430A986305E40AA0EB080000
:100630000022FD0A44EA47540A3002D50020014650
:10064000E9E7010510196941DDE90845001969412B
:10065000BDE8F04DA2E72DE9FE4F81EA030404F066
:10066000004421F0004100944FF0000B23F00043C0
:1006700050EA01045ED052EA03045BD0C3F30A548B
:10068000C1F30A552C44A4F2F3340194A0FB0254A4
:10069000C1F3130141F48011C3F3130343F4801336
:1006A00001FB024400FB034E840A970A44EA81548A
:1006B00047EA8357A4FB076802958D0A05FB078567
:1006C0004FEA932C04FB0C542705029D4FEA065871
:1006D00047EA1637B5EB08056EEB070C870E920E4E
:1006E00047EA811742EA8312A7FB0201B6EB0B012E
:1006F00064EB00042B0D43EA0C335E1844EB1C50F2
:10070000DA465146E7FB0201C5F313044FEA0B3307
:1007100043EA14534FEA0432019C43EA0603A4F16E
:100720000C040294009CCDE900B4FFF746FF03B02F
:10073000BDE8F08F00200146F9E7C1F30A52C1F38A
:10074000130140F2FF3341F480119A4202DA002093
:100750000146704740F233439A42A2F2334202DC30
:100760005242FFF7F9BEFFF7E8BE000030B5041EA5
:1007700071F1000404DB4FF00044404264EB0101DE
:10078000141E73F1000405DB1C464FF00043524277
:1007900063EB0403994208BF904230BD064C074DFD
:1007A00006E0E06840F0010394E807009847103441
:1007B000AC42F6D3FFF7ECFCF4A8000814A900083B
:1007C00000BFFEE77047016801F58051896941F07B
:1007D0000202016801F580518A617047016801F5E4
:1007E0008051896941F40052016801F580518A61A4
:1007F0007047000008B508490968C9084FF47A72C3
:10080000B1FBF2F14143009100BF00BF00994A1EC5
:1008100000920029F9D108BD1000002038B5044627
:1008200000200090206800F58050806940F480111D
:10083000206800F580508161206800F58050806953
:1008400000900120FFF7D6FF0099206800F5805046
:10085000816138BD30B503461479557944EA0520E5
:10086000084C0C442064D4782406957844EA054466
:10087000557844EA0524157844EA0500014C0C44F7
:10088000606430BD0080024070B5AEB004460E46D4
:10089000002526B14FF40061E160C900A16000208D
:1008A000119012901390149015901690E06918B959
:1008B0004FF48060179001E0002017904FF4007013
:1008C0001890002019901A901B901C901D904020A9
:1008D0001E9000201F902090219022902390249021
:1008E00025902690802027900020289029902A90FB
:1008F0002B902C902D902068056871480540DDE90B
:10090000110108431399084314990843A168084347
:100910001599084316990843E16808431799084355
:1009200018990843199908431A9908431B990843D1
:1009300005432068056020680568012000F01EF965
:1009400020680560DDE91C0108431E9908431F99D2
:100950000843209908432199084322990843239981
:1009600008432168486020684568012000F006F9C6
:100970002068456024982168886025982168C860AF
:10098000206885694FF641700540DDE9261040EA90
:10099000014028990843299908432A9908432B992B
:1009A000084305432068856120688569012000F0BF
:1009B000E5F820688561DDE92C0108432168C861FC
:1009C0002068C569012000F0D9F82068C5610020C1
:1009D00001904FF000700290002003904FF400103F
:1009E000049000200590069007900890042009903C
:1009F000C0050A9040120B9080010C9040120D909F
:100A000080200E9000200F901090206800F58050FC
:100A100085692C480540DDE9010108430399084335
:100A20000499084305990843069908430799084320
:100A300008990843099908430543206800F5805048
:100A40008561206800F580508569012000F096F8E6
:100A5000206800F580508561DDE90A0108430C99A2
:100A600008430D9908430E9908430F9940EA810005
:100A70001099084340F40001206800F5805001609F
:100A8000206800F580500568012000F077F82068A4
:100A900000F580500560A069012809D1206800F5A3
:100AA0008050C06908490843216801F58051C86138
:100AB000002120466269FFF7CDFE2EB070BD000018
:100AC0000F8120FF233FDEF84000010038B50446C7
:100AD000002000902068006840F004002168086051
:100AE0002068006800900120FFF784FE00982168CC
:100AF000086038BD38B504460020009020680068C2
:100B000040F008002168086020680068009001201B
:100B1000FFF770FE00982168086038BD70B5044684
:100B20000D462A462146044800F0B0FB10B14FF0B4
:100B3000FF3070BD0020FCE74431002070B5044652
:100B40000D462E4632462146044800F0B0FC10B156
:100B50004FF0FF3070BD0020FCE700004431002062
:100B600072B600BFFEE70000014800687047000051
:100B7000240400404FF08040406A704770B504463E
:100B800000F0E4FD06462546681C10B104480078D4
:100B9000054400BF00F0DAFD801BA842FAD370BD07
:100BA0000C00002070B505460C46002600BF95F8E5
:100BB0004500012801D1022070BD012085F84500C3
:100BC00000BF022085F84400002C6DD0286806681C
:100BD00043480640D4E900010843A1680843E1689E
:100BE0000843A96808432169084361690843E96823
:100BF0000843A1690843E1690843216A0843616A1F
:100C00000843A16A08430643286806602868066806
:100C10000120FFF7B3FF28680660D4E90B01084301
:100C2000616B0843A16B0843E16B0843216C0843E7
:100C3000616C0843A16C08432968486028684668CD
:100C40000120FFF79BFF28684660E06C29688860F8
:100C5000206D2968C860286886694FF64170064093
:100C6000B4F85410A06D40EA0140E16D0843216ED4
:100C70000843616E0843A16E0843064328688661F5
:100C8000286886690120FFF779FF28688661D4E922
:100C90001B0108432968C8612868C6690120FFF75D
:100CA0006DFF2868C66110E02868066826F4904643
:100CB000D5E90201084306432868066028680668EB
:100CC0000120FFF75BFF28680660012085F84400DB
:100CD00000BF002085F8450000BF00BF6CE70000A2
:100CE0000F8120FF70B504460D461646002200BF56
:100CF00094F84500012801D1022070BD012084F83C
:100D0000450000BF022084F84400A56200221FE0D5
:100D100005EB42114FF00040086044F2F450486087
:100D2000C2EBC21000EB400006EB80008860A069B7
:100D3000012803D1486820F000404860581E9042C6
:100D400004D905EB42102030C86000E0CD60521C91
:100D50009A42DDD3206800F58050C560012084F8F8
:100D6000440000BF002084F8450000BF00BFC4E776
:100D700070B504460D461646002200BF94F84500A3
:100D8000012801D1022070BD012084F8450000BF78
:100D9000022084F84400E56200221BE005EB4211CA
:100DA0004FF480100860C2EBC21000EB400006EB6D
:100DB00080008860E06918B9086840F44000086065
:100DC000581E904204D905EB42102030C86000E064
:100DD000CD60521C9A42E1D3206800F58050056135
:100DE000012084F8440000BF002084F8450000BFC3
:100DF00000BFC8E70146002200BF91F84500012866
:100E000001D102207047012081F8450000BF022077
:100E100081F84400886A006800F00040002838D15A
:100E2000886A006800F48070F0B1886B401C8863A9
:100E3000886B012801D1886A08638B6A4B63886AD2
:100E40000068C0F30D40021FCA63086B83680B641F
:100E5000886AC0688862012081F8440000BF0020D1
:100E600081F8450000BFCDE7886A006800F4007093
:100E700048B1886A086300234B6301238B63886A47
:100E8000C068886205E0886B401C8863886AC06817
:100E90008862012081F8440000BF002081F84500ED
:100EA00000BF0120AEE700002DE9FC41044600250B
:100EB000002001909D4E0027804614B90120BDE816
:100EC000FC8194F8440028B9002084F845002046AD
:100ED00000F03AF900BF002000909548006840F407
:100EE0008040934908600846006800F48040009004
:100EF00000BF00BF8F48006820F400008D490860E3
:100F000008460068216A08438A490860206800F59D
:100F10008050006840F00101206800F580500160B9
:100F200000F014FC07460FE000F010FCC01BB0F509
:100F3000FA7F09D9032084F8440000BF002084F818
:100F4000450000BF0320BAE7206800F58050006824
:100F500000F001000028E7D12068056925F01C0594
:100F600000F082FD06467448864205D373488642E7
:100F700002D245F008051AE07048864205D36B4856
:100F8000864202D245F00C0511E06848864203D340
:100F90006B48864200D20AE06948864205D3694818
:100FA000864202D245F0040501E045F010052068B4
:100FB00005614FF400420021204600F078FA48B164
:100FC0004FF0010841462046FFF75EFC012084F8FF
:100FD000440074E7FF20FFF7D1FD6068002871D05E
:100FE00000F0B4FB074600BF01AA0121204600F033
:100FF0004DF900F0ABFBC01B41F2883188420FD99C
:101000004FF0010841462046FFF73EFC012084F8DE
:10101000440000BF002084F8450000BF03204EE7D5
:10102000019800F004000428DED18202002120464D
:1010300000F03DFA48B14FF0010841462046FFF765
:1010400023FC012084F8440039E700F07FFB0746C9
:1010500000BF01AA0121204600F018F900F076FB3C
:10106000C01B41F2883188420FD94FF00108414638
:101070002046FFF709FC012084F8440000BF00204F
:1010800084F8450000BF032019E7019800F0200014
:101090002028DED101AA1021204600F0F7F848B13F
:1010A0004FF0010841462046FFF7EEFB012084F88F
:1010B000440004E7019800F0040020B14FF40061FF
:1010C000E16002E00DE00021E160019800F0020023
:1010D000022802D10021A1601EE04FF48041A160EE
:1010E0001AE0E068C0F3CF00A168C1F34F0140EA05
:1010F00001020021204600F0DAF948B14FF0010862
:1011000041462046FFF7C0FB012084F84400D6E6A4
:1011100040F6FF70FFF732FD41462046FFF7B4FB73
:10112000012084F844000020C9E6000000879303F2
:101130004438024004380140002D3101C00E16022F
:1011400000E1F50580D1F00810B586B00446142101
:1011500001A8FFF7B2F84849206888427ED100BF55
:1011600000BF002000904548006840F000704349EF
:1011700008600846006800F00070009000BF00BFE3
:1011800000BF002000900846006840F080600860C2
:101190000846006800F08060009000BF00BF00BFFC
:1011A000002000900846006840F000600860084693
:1011B000006800F00060009000BF00BF00BF00BFEB
:1011C000002000900846006840F0040008600846CF
:1011D000006800F00400009000BF00BF00BF0020C6
:1011E00000900846006840F001000860084600686A
:1011F00000F00100009000BF00BF00BF0020009081
:101200000846006840F0400008600846006800F0AA
:101210004000009000BF00BF3220019002200290E9
:1012200000200390032004900B20059001A914488E
:1012300000F086F9862001900220029000200390A1
:10124000032004900B20059001A90E4800F078F9C6
:101250004FF4D04001900220029000E009E000200D
:101260000390032004900B20059001A9064800F08C
:1012700067F906B010BD000000800240303802401F
:101280000008024000000240001802402DE9F04131
:1012900004460E4617460025A84694F844008228C6
:1012A00002D10220BDE8F081822084F84400206849
:1012B000056905F01C05208A4FF4784101EAC02039
:1012C0000543481100EA8610054325F0020545F064
:1012D00001052068056100F039FA804612E000F04F
:1012E00035FAA0EB0800B0F5803F09D3012084F85F
:1012F000440000BF002084F8450000BF0320D1E770
:101300002068056905F001000028E8D120684069DF
:1013100080B23860012084F844000020C2E710B594
:10132000044600BF94F84500012801D1022010BDF9
:10133000012084F8450000BF022084F844002046C4
:10134000FFF7D8FB2046FFF7C1FB2046FFF766FA00
:101350002046FFF743FA2046FFF735FA012084F8CC
:10136000440000BF002084F8450000BF00BFDEE756
:1013700070B5024600230025002400BF92F8450006
:10138000012801D1022070BD012082F8450000BF74
:10139000022082F8440049B9012082F8440000BFCD
:1013A000002082F8450000BF0120ECE7D06A006809
:1013B00000F0004048B1122082F8440000BF002035
:1013C00082F8450000BF0120DDE740F2F450814281
:1013D00008D9B1FBF0F3B1FBF0F600FB161010B129
:1013E0005B1C00E00123012B13D1D06A006840F0A0
:1013F0004050D66A3060C1F30C00D66A7060D06A83
:10140000006840F00040D66A3060D06AC068D062A0
:1014100032E000242EE0D06A006820F04050D66A06
:1014200030602CB9D06A006840F08050D66A3060D5
:1014300040F2F450D66A7060581EA04210D1D06AB3
:10144000006840F00050D66A3060581EC0EBC010F3
:1014500000EB4000A1EB8005C5F30C00D66A70607C
:10146000D06A006840F00040D66A3060D06AC06838
:10147000D062641C9C42CED3106800F58050406955
:1014800000F0040048B10426106800F58050466161
:101490000026106800F580504660012082F8440064
:1014A00000BF002082F8450000BF00BF6BE72DE9B8
:1014B000F04104460E4617460025A84694F844001D
:1014C000422802D10220BDE8F081422084F8440085
:1014D0002068056905F01C05208A4FF4784101EA6F
:1014E000C0200543481100EA8610054345F0020577
:1014F00045F00105B8B2216848612068056100F037
:1015000025F9804612E000F021F9A0EB0800B0F5C3
:10151000803F09D3012084F8440000BF002084F8F4
:10152000450000BF0320CEE72068056905F00100F3
:101530000028E8D1012084F844000020C3E700001F
:10154000F8B502460B460025002400200021D5E016
:10155000012606FA01F51E6806EA0504AC4274D1BC
:101560001E7906F00306012E04D01E7906F003064C
:10157000022E13D190684F000326BE40B0434F00A7
:10158000DE68BE4030439060506801268E40B04314
:101590001E79C6F300168E40304350601E7906F067
:1015A0000306032E09D0D0684F000326BE40B04387
:1015B0004F009E68BE403043D0601E7906F003069F
:1015C000022E13D1CF0802F1200656F827004E074D
:1015D000F70E0F26BE40B0434F07FF0E1E69BE40F8
:1015E0003043CF0802F1200646F8270010684F006C
:1015F0000326BE40B0431E7906F003064F00BE40EE
:10160000304310605E6806F44036002E75D000BF8F
:10161000002600963B4E366846F48046394F3E60C1
:101620003E46366806F48046009600BF00BF364E40
:101630008F0856F827008E07370F0F26BE40B0439D
:10164000324EB24202D1002624E056E0304EB24281
:1016500001D101261EE02F4EB24201D1022619E02F
:101660002D4EB24201D1032614E02C4EB24201D1DC
:1016700004260FE02A4EB24201D105260AE0294E87
:10168000B24201D1062605E0274EB24201D107261B
:1016900000E008268F073F0FBE4030431A4E8F08E8
:1016A00046F82700214E3068A0435E6806F4803675
:1016B00006B120431D4E3060361D3068A0435E6881
:1016C00006F4003606B12043184E361D3060361D34
:1016D0003068A0435E6806F4801606B12043134EBE
:1016E00008363060361D3068A0435E6806F4001688
:1016F00006B120430D4E0C363060491C1029FFF412
:1017000027AFF8BD443802400838014000000240CD
:101710000004024000080240000C02400010024099
:101720000014024000180240001C0240003C01402E
:10173000024613690B400BB1012000E00020704706
:101740000AB1816101E00B048361704701480068C0
:10175000704700000400002003480068034909782E
:101760000844014908607047040000200C00002074
:1017700010B50D48006840F400700B490860084639
:10178000006840F4806008600846006840F480709B
:101790000860032000F092F8002000F007F800F045
:1017A0002BF8002010BD0000003C024070B504463C
:1017B0000E4800784FF47A71B1FBF0F00C490968DB
:1017C000B1FBF0F5284600F01BFC08B1012070BD0C
:1017D000102C07D200222146501E00F031F8054897
:1017E000046001E00120F2E70020F0E70C00002097
:1017F000100000200800002008B500BF0020009065
:101800000E48006840F480400C49086008460068B3
:1018100000F48040009000BF00BF00BF0020009097
:10182000081F006840F08050091F086008460068E3
:1018300000F08050009000BF00BF08BD4438024057
:101840002DE9F05F80460D461646002701F0E4FCC6
:10185000074639462A46334601F00700C0F1070A19
:10186000BAF1040F02D94FF0040A01E0C0F1070AEF
:10187000D14600F1040ABAF1070F02D24FF0000A74
:1018800001E0A0F1030AD4464FF0010A0AFA09FA6E
:10189000AAF1010A0AEA020A0AFA0CFA4FF0010B4D
:1018A0000BFA0CFBABF1010B0BEA030B4AEA0B043E
:1018B0002146404601F0B8FCBDE8F09F00BF00F0B3
:1018C0000702064B19684FF6FF031940044B0B4300
:1018D00043EA0221014B196000BF70470CED00E0A4
:1018E0000000FA0570B504460D460CB9012070BD24
:1018F0005848006800F00700A84209D255490D7009
:101900000846006800F00700A84201D00120EEE779
:10191000207800F0020002281DD1207800F0040099
:10192000042805D14C48006840F4E0504A4908605A
:10193000207800F00800082805D14748006840F4E6
:101940006040454908604448006820F0F000A16804
:10195000084341490860207800F00100A8B360689E
:10196000012807D13C4808380068C0F34040B8B9A6
:101970000120BCE76068022802D06068032807D114
:10198000354808380068C0F3406048B90120AEE728
:10199000314808380068C0F3400008B90120A6E7C4
:1019A0002D48006820F00300616808432A49086058
:1019B000FFF7CCFE064609E0FFF7C8FE801B41F2A8
:1019C0008831884202D9032091E707E02248006865
:1019D00000F00C006168B0EB810FEDD11D4800688C
:1019E00000F00700A84209D91A490D70084600689E
:1019F00000F00700A84201D0012078E7207800F02D
:101A00000400042807D11448006820F4E050E1687D
:101A1000084311490860207800F00800082808D120
:101A20000D48006820F46040216940EAC1000A497D
:101A3000086000F03FF808490968C1F30311074A3C
:101A4000515CC8400649086006480068FFF7AEFED2
:101A500000204CE7003C02400838024010A2000879
:101A600010000020080000200148006870470000B6
:101A70001000002000B5FFF7F7FF04490968C1F323
:101A80008221034A515CC84000BD00000838024072
:101A900020A2000800B5FFF7E7FF04490968C1F379
:101AA0004231034A515CC84000BD00000838024082
:101AB00020A200082DE9F047002400250026A146B9
:101AC0002548006800F00C0020B1042805D0082843
:101AD0003AD105E0DFF8849039E0DFF8849036E011
:101AE0001D48001F006800F03F041B48001F0068ED
:101AF00000F4800078B11A481749091F0968C1F33A
:101B00008811A0FB01700146224600233846FEF7EB
:101B100059FB05460EE011480F49091F0968C1F33A
:101B20008811A0FB01700146224600233846FEF7CB
:101B300049FB05460848001F0068C0F30140401CEF
:101B40004600B5FBF6F902E0DFF8109000BF00BFD9
:101B50004846BDE8F0870000083802400024F40041
:101B600000127A00F8B504460CB90120F8BD2078BF
:101B700000F00100002874D0F948006800F00C0063
:101B800004280DD0F648006800F00C00082813D196
:101B9000F348001F006800F48000B0F5800F0BD1FF
:101BA000EF4808380068C0F34040002859D060680A
:101BB000002856D10120D9E700BF6068B0F5803F0A
:101BC00008D1E7480838006840F48030E449083913
:101BD00008601EE06068B0F5A02F0DD1E04808381D
:101BE000006840F48020DE49083908600846006833
:101BF00040F4803008600CE0D9480838006820F4D0
:101C00008030D749083908600846006820F48020F1
:101C1000086000BF606890B1FFF798FD054606E0D8
:101C2000FFF794FD401B642801D903209EE7CC48B0
:101C300008380068C0F340400028F1D011E0FFF7F9
:101C400085FD054606E0FFF781FD401B642801D9AC
:101C500003208BE7C24808380068C0F340400028E2
:101C6000F1D1207800F0020002285FD1BC48006862
:101C700000F00C0058B1BA48006800F00C000828C9
:101C80001CD1B748001F006800F48000B0B9B44808
:101C900008380068C0F3400020B1E068012801D096
:101CA000012063E7AE480838006820F0F800216999
:101CB00040EAC100AA490839086037E0E06800B38B
:101CC0000120A8490860FFF741FD054606E0FFF73F
:101CD0003DFD401B022801D9032047E7A0480838F2
:101CE0000068C0F340000028F1D09D480838006823
:101CF00020F0F800216940EAC100994908390860DC
:101D000014E0002097490860FFF720FD054606E033
:101D1000FFF71CFD401B022801D9032026E790484D
:101D200008380068C0F340000028F1D1207800F0A6
:101D3000080008282CD16069A8B101208A490860F0
:101D4000FFF704FD054606E0FFF700FD401B0228F3
:101D500001D903200AE782486C300068C0F34000D4
:101D60000028F1D014E000207F490860FFF7EEFC66
:101D7000054606E0FFF7EAFC401B022801D90320D4
:101D8000F4E677486C300068C0F340000028F1D1D9
:101D9000207800F00400042870D100277048383003
:101DA000006800F0805090B900BF002000906C489F
:101DB0003830006840F08050694938310860084682
:101DC000006800F08050009000BF00BF0127674806
:101DD000006800F48070B0B96448006840F4807016
:101DE00062490860FFF7B2FC054606E0FFF7AEFC6B
:101DF000401B022801D90320B8E65C48006800F4C3
:101E000080700028F2D000BFA068012808D1544893
:101E10006830006840F001005149683108601DE0F9
:101E2000A06805280DD14E486830006840F00400D5
:101E30004B49683108600846006840F001000860BE
:101E40000CE047486830006820F0010044496831E0
:101E500008600846006820F00400086000BFA06821
:101E6000A8B1FFF773FC054609E0FFF76FFC401BC4
:101E700041F28831884202D9032077E626E03848CB
:101E800068300068C0F340000028EED013E0FFF790
:101E90005DFC054608E0FFF759FC401B41F2883124
:101EA000884201D9032061E62D4868300068C0F3FC
:101EB00040000028EFD1012F07D1294838300068B1
:101EC00020F0805026493831086000BFA069002802
:101ED00045D02348006800F00C0008285DD0A069B8
:101EE000022845D100201F490866FFF72FFC054650
:101EF00006E0FFF72BFC401B022801D9032035E642
:101F0000174808380068C0F340600028F1D1D4E9D0
:101F100007010843616A40EA81110122A06AC2EB0D
:101F2000500041EA00412C20005D41EA00600C496C
:101F3000091F086001200B490866FFF707FC0546EA
:101F400006E0FFF703FC401B022801D903200DE641
:101F5000034808380068C0F340600028F1D049E029
:101F60000838024000004742800E4742007000409F
:101F7000002021490866FFF7E9FB054606E0FFF768
:101F8000E5FB401B022801D90320EFE51B48006850
:101F9000C0F340600028F2D12CE0A069012800D1F4
:101FA000E4E51648001D0668A069012820D006F463
:101FB0008001E06981421BD106F03F01206A814225
:101FC00016D147F6C0703040616AB0EB811F0FD167
:101FD00006F440310122A06AC2EB5000B1EB004F81
:101FE00006D106F070612C20005DB1EB006F01D0CE
:101FF0000120BBE50020B9E500004742003802405F
:1020000070B504462546681EB0F1807F01D30120DB
:102010000FE0681E4FF0E02148610F214FF0FF30C4
:1020200001F002F900204FF0E021886107200861EB
:10203000002070BD30B502460B4600BF92F83C0050
:10204000012801D1022030BD012082F83C0000BFF0
:10205000022082F83D00106844681068816824F00E
:1020600070041868044310684460184D1068A84252
:102070001BD01068B0F1804F17D0154D1068A842E2
:1020800013D0144D1068A8420FD0134D1068A84209
:102090000BD0124D1068A84207D0114D1068A8420D
:1020A00003D0104D1068A84205D121F08001586876
:1020B000014310688160012082F83D0000BF0020CC
:1020C00082F83C0000BF00BFBDE7000000000140F7
:1020D0000004004000080040000C004000040140E3
:1020E000004001400018004010B504460CB9012022
:1020F00010BD94F83D0028B9002084F83C0020462B
:1021000000F026F8022084F83D00211D206800F030
:10211000FDFD012084F8460000BF84F83E00012147
:102120003F200155402001554120015500BF00BF0F
:10213000012084F8420043200155442001554520E8
:10214000015500BF012084F83D000020D0E70000C9
:1021500008B50168B1F1804F0FD100BF0021009197
:102160001049096841F001010E4A116011460968E1
:1021700001F00101009100BF13E00B4A0168914298
:102180000FD100BF002100910649096841F002010A
:10219000044A11601146096801F00201009100BF74
:1021A00000BF08BD4038024000040040014691F8DD
:1021B0003D00012801D001207047022081F83D0038
:1021C0001A4B086898421BD00868B0F1804F17D0AE
:1021D000174B0868984213D0164B086898420FD0E6
:1021E000154B086898420BD0144B0868984207D0EA
:1021F000134B0868984203D0124B086898420CD1E0
:102200000868806800F00702062A0CD00868006899
:1022100040F001000B68186005E00868006840F0B5
:1022200001000B6818600020C6E7000000000140B4
:102230000004004000080040000C00400004014081
:1022400000400140001800402DE9F04104460D46D1
:10225000002700BF94F83C00012802D10220BDE80D
:10226000F081012084F83C0000BF022084F83D008A
:102270002068866826F0770626F47F462068866008
:102280002868502833D00CDC202850D004DC0028EB
:102290004BD0102851D149E0302849D040284CD1AA
:1022A00039E060282DD0702807D0B0F5805F03D0CA
:1022B000B0F5005F41D10DE041E0D5E902136A6855
:1022C000206800F08FFD2068866846F07706206859
:1022D000866034E0D5E902136A68206800F082FD68
:1022E0002068806840F480402168886027E0EA68C0
:1022F0006968206800F0E3FD5021206800F07DFD52
:102300001DE0EA686968206800F0ECFD6021206843
:1023100000F073FD13E0EA686968206800F0CFFD03
:102320004021206800F069FD09E000BF00BF00BF48
:102330002968206800F061FD01E0012700BF00BFAF
:10234000012084F83D0000BF002084F83C0000BF5D
:10235000384684E770B504460D4600BF94F83C004B
:10236000012801D1022070BD012084F83C0000BF8B
:10237000022084F83D002946204600F047FD48B180
:10238000012084F83D0000BF002084F83C0000BF1D
:102390000120E8E72068C06820F040002168C8609C
:1023A0002068C06820F480402168C860012084F85B
:1023B0003D0000BF002084F83C0000BF00BFD2E712
:1023C00010B504460CB9012010BDA06900B100E0B1
:1023D00000BF94F83D0028B9002084F83C00204656
:1023E00000F028F8242084F83D002068C06820F41C
:1023F00000502168C860204600F088FD2068006910
:1024000020F49040216808612068406920F02A008B
:10241000216848612068C06840F400502168C860A5
:1024200000202064202084F83D0084F83E00002035
:10243000CAE7000010B586B00446142101A8FDF7D4
:102440003CFF1B492068884230D100BF002000902B
:102450001848006840F400201649086008460068E3
:1024600000F40020009000BF00BF00BF00200090DB
:1024700010481038006840F004000E491039086018
:102480000846006800F00400009000BF00BF4FF451
:1024900040600190022002900120039003200490EC
:1024A0000820059001A90448FFF74AF806B010BDBE
:1024B000004C004040380240000802402DE9F84F2F
:1024C00004460E46174699464FF0000A94F83D0020
:1024D00020285AD106B117B90120BDE8F88F00BFF6
:1024E00094F83C00012801D10220F6E7012084F88D
:1024F0003C0000BF00202064212084F83D00FFF74D
:1025000025F98246A784E784A068B0F5805F04D1EE
:10251000206910B90025B04602E035464FF00008AA
:1025200000BF002084F83C0000BF1BE0534600229F
:1025300080212046CDF8009000F0FEFD08B1032078
:10254000CBE745B9B8F80000C0F30800216848603F
:1025500008F1020803E02878216848606D1CE08CCF
:10256000401EE084E08C0028E0D153460022402148
:102570002046CDF8009000F0DFFD08B10320ACE765
:10258000202084F83D000020A7E70220A5E700BF37
:10259000FEE7000038B5002000906A4601213A4865
:1025A000FEF774FE04462CB138A000F011FE6FF067
:1025B000040038BD6A4601213348FEF767FE044631
:1025C0002CB132A000F004FE6FF00400F1E7009897
:1025D00000F0040008B90120EBE76A4600212A4810
:1025E000FEF754FE044614B16FF00400E1E70098D2
:1025F00000F48050B0F5805F1FD0009800F40050C8
:10260000B0F5005F07D1009800F48070B0F5807FCE
:1026100001D10220CDE7009800F40050B0F5005F32
:1026200001D10320C5E7009800F48070B0F5807FE9
:1026300001D10420BDE70520BBE76A461F211248EF
:10264000FEF724FE044614B16FF00400B1E70098D1
:1026500000F4805008B90620ABE7009800F01C0099
:10266000182801D10220A4E7009800F01C000828D7
:1026700001D103209DE7009800F01C00142801D12F
:10268000042096E7052094E74431002072656164D8
:10269000204C414E3837323020425352204572721E
:1026A0006F722E0D0A00000038B500200090002443
:1026B000002204212D48FFF743F86420FEF75EFA5C
:1026C000012204212948FFF73BF86420FEF756FA5F
:1026D00020202749086000BF15E06A4612212548DE
:1026E000FEF7D4FD054625B1214623A000F070FD7C
:1026F00008E0009800F01F00A04202D11C480460CE
:1027000005E000BF641C1A4800688442E5D900BF98
:10271000214620A000F05CFD154800681F2802D962
:102720004FF0FF3038BD4FF4004200211148FEF752
:10273000BEFE054615B14FF0FF30F3E700BF6A4615
:1027400000210C48FEF7A2FD05462DB117A000F0B0
:102750003FFD4FF0FF30E5E7009800F4004000280F
:10276000EDD100F031F80020DCE700000004024069
:1027700014000020443100205265616420416464EB
:1027800072657373202564206572726F722E0D0A54
:10279000000000004C414E383732302061646472D2
:1027A000203D2025642E0D0A000000007265616442
:1027B000204C414E3837323020424352204572720D
:1027C0006F722E0D0A00000008B5002000906946C7
:1027D000FEF7A4F9009840F480500090009881B270
:1027E0000020FEF7ABF908BDF8B551A000F0F0FCF1
:1027F0005248534908600120486081035048816075
:10280000C910C160012101820221406901700021CB
:102810004B48406941704A48406981704848406966
:10282000C170474840690171454840694171444859
:102830008161C1614FF40001016200210182FEF754
:1028400033FB04233F4A40493D48FEF791FA0423F5
:102850003E4A3F493A48FEF745FA3948FEF75FFDE0
:10286000002000906A4611213548FEF70FFD0098C0
:1028700040F00300009011213148009AFEF717FE46
:102880006A4612212E48FEF701FD009840F0200014
:10289000009012212A48009AFEF709FE2DA000F0B0
:1028A00097FC31A000F094FCFFF7FEFE32A000F090
:1028B0008FFC37A000F08CFC00BF6420FEF75EF9AF
:1028C000FFF768FE0546294638A000F081FC012D7F
:1028D000F3DD3DA000F07CFC002643A000F078FC76
:1028E000022D06D0032D08D0042D0AD0052D0FD1BE
:1028F0000BE04FF40064E6000EE000244FF4804645
:102900000AE04FF40064002606E00024002603E0FD
:102910004FF40064E60000BF00BF0948C460866051
:1029200039A000F055FC00210548FEF73BF9F8BD41
:1029300045544820496E69742E0D0A0000800240FB
:10294000443100207419002024010020A40100203B
:10295000A400002045544820496E697420646F6EBD
:10296000652E0D0A000000004C414E3837323020F1
:10297000496E69742E0D0A004C414E3837323020B2
:10298000496E697420646F6E652E0D0A00000000A8
:102990005761697420666F72204C414E383732306F
:1029A000206C696E6B2E0D0A0000000067657420B4
:1029B0004C414E383732302073746174653A2025AB
:1029C000642E0D0A000000005761697420666F7262
:1029D000204C414E38373230206C696E6B20646F6A
:1029E0006E652E0D0A000000536574204C414E3870
:1029F00037323020537065656420616E64204D6FFE
:102A000064652E0D0A000000536574204C414E3859
:102A100037323020537065656420616E64204D6FDD
:102A2000646520646F6E652E0D0A000000B587B0E6
:102A3000142102A8FDF741FC00BF0020019033489B
:102A4000006840F08000314908600846006800F0E6
:102A50008000019000BF00BF00BF00200190084629
:102A6000006840F0040008600846006800F00400B8
:102A7000019000BF00BF00BF002001900846006821
:102A800040F0010008600846006800F00100019075
:102A900000BF00BF00BF002001900846006840F062
:102AA000020008600846006800F00200019000BFC4
:102AB00000BF00BF002001900846006840F04000C1
:102AC00008600846006800F04000019000BF00BFA9
:102AD000012204210E48FEF733FE0420029001205B
:102AE000039000200490059002A90948FEF728FDF4
:102AF0004FF4A0500290002003900120049002A9FE
:102B00000448FEF71DFD07B000BD0000303802404C
:102B1000000402400018024000B587B00020039076
:102B2000049005900690019002904FF08040144967
:102B30000860532048600021114881601149C1603C
:102B4000002101618161FFF7CFFA08B1FEF708F8B3
:102B50004FF48050039003A90948FFF775FB08B1B3
:102B6000FDF7FEFF202001908020029001A904487B
:102B7000FFF760FA08B1FDF7F3FF07B000BD0000F2
:102B80008C3100203F420F0000B587B0142102A80D
:102B9000FDF793FB0020009001901548154908604F
:102BA000002048600021134881604FF6FF71C1602A
:102BB000002101618161FFF797FA08B1FDF7D0FFAD
:102BC000072002901020039002A90A48FFF7C2FBD9
:102BD00008B1FDF7C5FF0020009001906946054847
:102BE000FFF728FA08B1FDF7BBFF07B000BD0000F2
:102BF00000040040D431002010B50B480B49086098
:102C00004FF4E1304860002108488160C1600161F3
:102C10000C21416100218161C161FFF7D1FB08B145
:102C2000FDF79EFF10BD0000004C00401C3200204C
:102C300000BFFEE700BFFEE77047704710B5FEF724
:102C40008BFD10BD00B593B0302107A8FDF735FB13
:102C5000142102A8FDF731FB00BF00200190244899
:102C6000006840F08050224908600846006800F083
:102C70008050019000BF00BF00BF002001901D48A0
:102C8000006840F480401B4908600846006800F472
:102C90008040019000BF00BF012007900004089011
:102CA00002200D9041050E9104210F91A821109151
:102CB000022111910421129107A8FEF753FF08B1D8
:102CC000FDF74EFF0F200290022003900020049099
:102CD0004FF4A05005904FF480500690052102A8B3
:102CE000FEF700FE08B1FDF73BFF13B000BD00008A
:102CF00040380240007000400348006840F4700013
:102D0000014908607047000088ED00E010B50268D6
:102D1000294B98420ED0B0F1804F0BD0274B9842F0
:102D200008D0274B984205D0264B984202D0264B1C
:102D3000984203D122F070024B681A431E4B98420E
:102D400020D0B0F1804F1DD01C4B98421AD01C4BA4
:102D5000984217D01B4B984214D01B4B984211D06D
:102D60001A4B98420ED01A4B98420BD0194B9842EE
:102D700008D0194B984205D0184B984202D0184BF6
:102D8000984203D122F44072CB681A4322F08003A8
:102D90004C6943EA040202608B68C3620B68836279
:102DA000054B984202D0084B984201D10B6903634E
:102DB0000123436110BD00000000014000040040F9
:102DC00000080040000C00400004014000400140A9
:102DD000004401400048014000180040001C004031
:102DE0000020004030B50C46816821F47F4142EA62
:102DF000032525432943816030BD0A46816821F0BF
:102E0000700142F007031943816070472DE9F047D4
:102E100005460C464FF000092868866826F07006C3
:102E20006068064326F00706206806432868866027
:102E3000606800F00F0100293BD10011082838D24A
:102E4000DFE800F0333435360B272D04D4E90313C3
:102E5000A2682868FFF7C6FF2EE02068052802D187
:102E60000120BDE8F0872868D0F820802868006A33
:102E700020F00100296808622868876927F0F007B8
:102E8000206947EA0017286887612868C0F8208011
:102E900012E02269A168286800F011F80CE02269AC
:102EA000A168286800F01EF806E000BF00BF00BF60
:102EB00002E04FF0010900BF00BF4846D1E730B53E
:102EC0000B461446026A056A25F001050562816910
:102ED00021F0F00141EA041122F00A021A43816153
:102EE000026230BD30B50B461446056A25F0100568
:102EF00005628169026A21F4704141EA043122F0DD
:102F0000A00242EA03128161026230BD2DE9F84F4E
:102F100004462068006920F44050E16808432168B5
:102F200008612169A068084361690843E1690843B1
:102F300000902068C06849F20C61884300990843FA
:102F40002168C8602068406920F44070A169084386
:102F50002168486176492068884203D07549206815
:102F6000884203D1FEF796FD814602E0FEF782FD1E
:102F70008146E069B0F5004F6CD102206168A0FB8A
:102F8000015003461920A9FB007001462A46384625
:102F9000FDF718F96421B0FBF1F04FEA001A0220A6
:102FA0006168A0FB01510B461920A9FB00712A465C
:102FB0003846FDF707F9834602206168A0FB0150FF
:102FC00003461920A9FB00712A463846FDF7FAF896
:102FD0006421B0FBF1F000EBC00101EB0010ABEBA2
:102FE0008000322101EBC0006421B0FBF1F000F061
:102FF000F8000AEB400A02206168A0FB015003467A
:103000001920A9FB007001462A463846FDF7DAF878
:10301000834602206168A0FB015003461920A9FBEA
:1030200000712A463846FDF7CDF86421B0FBF1F077
:1030300000EBC00101EB0010ABEB8000322101EB93
:10304000C0006421B0FBF1F000F00700504421689B
:1030500088606AE004206168A0FB015003461920E3
:10306000A9FB007001462A463846FDF7ABF88246B8
:1030700004206168A0FB015003461920A9FB0070E1
:1030800001462A463846FDF79DF86421B0FBF1F071
:1030900000EBC00101EB0010AAEB8000322101EB34
:1030A00000106421B0FBF1F000F0F00A0420616828
:1030B000A0FB017003461920A9FB00513A4628469F
:1030C000FDF780F86421B0FBF1F00AEB001A042050
:1030D0006168A0FB01510B461920A9FB00712A462B
:1030E0003846FDF76FF8834604206168A0FB015065
:1030F00003461920A9FB007001462A463846FDF711
:1031000061F86421B0FBF1F000EBC00101EB0010AD
:10311000ABEB8000322101EB00106421B0FBF1F039
:1031200000F00F00504421688860BDE8F88F00006F
:1031300000100140001401402DE9F04104460D4605
:1031400017469846069E34E0701C88B32EB1FEF7F1
:10315000FDFAA0EB0800B0422BD900BF00BF2168E8
:103160000C3151E8001F21F4D07021680C3141E886
:103170000002002AF3D100BF00BF00BF2168143154
:1031800051E8001F21F001002168143141E80002DC
:10319000002AF3D100BF202084F83D0084F83E00CF
:1031A00000BF002084F83C0000BF0320BDE8F08190
:1031B000FFE7206800682840A84201D1012000E014
:1031C0000020B842C0D00020F0E700BFFEE70000BA
:1031D0000FB4054B10B503A9044A029800F00AF990
:1031E00010BC5DF814FB000069A00008A0000020DE
:1031F0000FB4084B10B504A902AA039800F0FAF81E
:10320000044602A9002000F078FC204610BC5DF8BE
:1032100014FB0000FB3A000802480068C0F30220DB
:10322000704700000CED00E010B5002804DB0A0731
:10323000130E054A135406E00A07140E034A00F061
:103240000F031B1FD45410BD00E400E018ED00E094
:1032500002E008C8121F08C1002AFAD1704770475F
:10326000002001E001C1121F002AFBD170470000BD
:103270002DE9FF5F82B00021DDE90430020DDDF8A9
:1032800040B0034318D044F61050A2F2FF3242433C
:103290001514119801281FD0A5EB0B00401C5FEA04
:1032A000000A4FF000064E4FDFF83891B046504606
:1032B00015D5CAF1000413E0119801244AA301288E
:1032C00001D16FEA0B010298119AC0E90031C0E9FF
:1032D000024206B0BDE8F09FCBF10000DFE70446F4
:1032E0000021404A491842EB0450CDE9001012E099
:1032F000E00707D032463B4640464946FDF7ABF96A
:103300008046894632463B4610461946FDF7A3F9EA
:1033100006460F466410002CEAD1DDE90401DDE920
:103320000023BAF1000F06DAFDF795F942464B4645
:10333000FDF791F905E0FDF77BF842464B46FDF7B6
:1033400077F804460E460022284BFDF70FFA03D803
:103350004FF0FF30014607E00022254B2046314662
:10336000FCF7BFFFFDF7E9F9102409E0002C0ADBA8
:103370000A220023FCF726FF039B30321A55641EF5
:1033800050EA0102F2D1641C039AC4F111031444FF
:10339000119A012A03D0012208430DD10AE0084303
:1033A00004D000204FF0110B119072E7A3EB0B0536
:1033B0006D1E0DE05B4504DD4FF0000205F10105D7
:1033C00004E003DA4FF00002A5F10105002AECD079
:1033D00002981199C0E90231C0E9004579E700007F
:1033E000000014400000F03F300000000000F043F7
:1033F0000000E03F2DE9FF4F95B09A46884606460B
:103400000025EEE1252877D100242746F94A01213D
:10341000039400E0044316F8013F203B01FA03F057
:103420001042F7D130782A2811D06FF02F0330786E
:10343000A0F13002092A16D8039A44F0020402EBE4
:10344000820203EB42021044761C0390EFE758F827
:10345000042B0392002A03DA504244F400540390F0
:1034600044F00204761C30782E2816D116F8010F8D
:1034700044F004042A280DD06FF02F023078A0F118
:103480003003092B09D807EB870302EB4303C71866
:10349000761CF3E758F8047B761C30786C280FD044
:1034A00006DC4C2817D068280DD06A2814D104E017
:1034B000742810D07A280FD10DE044F400140AE0EB
:1034C00044F4801401E044F440147278824202D142
:1034D00004F58014761C761C307866280BD013DC3B
:1034E000582877D009DC002875D04528F6D0462822
:1034F000F4D047281AD193E118E0632835D0642826
:1035000079D0652812D18BE1702873D008DC672848
:10351000F1D069286FD06E280DD06F2806D1ACE0AD
:1035200073282CD0752874D0782853D05246179918
:1035300090476D1C54E1C4F30250022809D00328BF
:103540000DD0D8F8001004280DD00D6008F1040843
:1035500046E1D8F80010EA17C1E90052F6E7D8F8BA
:1035600000100D80F2E70D70F0E718F8041B8DF8DD
:10357000001000208DF80100EB46012003E058F810
:1035800004BB4FF0FF3061074FF0000102D40DE0A3
:1035900009F101018946B9420FDA8145F8DB1BF8D0
:1035A00009100029F4D108E009F10101894681429E
:1035B000FADB1BF809100029F6D103985346A0EB5B
:1035C000090721463846179A00F080FA284400EB94
:1035D000090507E044E008E10DE01BF8010B524645
:1035E00017999047B9F10109F7D253462146384659
:1035F000179AF2E039E00A21C4F302524FF0000BAF
:103600000091022A06D058F8040BC117032A09D0EA
:103610000AE023E008F1070020F00702F2E80201C7
:10362000904605E000B2C117042A01D140B2C1178B
:10363000002906DA0A460021404261EB02012D22F0
:1036400002E0220504D52B228DF80420012203E09C
:10365000E20701D02022F7E7914657E00A2100E077
:1036600010214FF0000B00910BE010214FF0000BE8
:1036700044F004040827009103E008204FF0000BF9
:103680000090C4F30252022A05D058F8040B00211E
:10369000032A08D008E008F1070020F00702F2E84A
:1036A0000201904603E080B2042A00D1C0B24FF07C
:1036B000000922072AD53278702A07D0DDF800C029
:1036C0008CF0100C5CEA0B0C05D00EE040228DF85B
:1036D0000420012208E050EA010306D030238DF8CF
:1036E00004308DF8052002229146009B83F00803E8
:1036F00053EA0B030AD150EA010201D1620705D552
:1037000030228DF804204FF001097F1E3278582AAC
:1037100004D039A20C920CAA02920BE03BA2F9E76A
:103720005B46009AFCF74EFD0C9B9B5C029A521E76
:103730000292137050EA0102F2D1029804A9081A09
:1037400000F1200B600702D524F4803400E001274B
:103750005F4502DDA7EB0B0000E0002000EB0B0152
:10376000009003984944401A0390E00306D453465E
:103770002146179A039800F0A9F90544002706E0AE
:1037800001A85246C05D179990476D1C7F1C4F459C
:10379000F6DBE0030CD553462146179A039800F058
:1037A00095F9054404E030205246179990476D1C66
:1037B0000099481E00900029F5DC08E00298029963
:1037C00052460078491C0291179990476D1CBBF135
:1037D0000001ABF1010BF1DC5BE100F065F90544A0
:1037E000761C307800287FF40DAE19B02846BDE86D
:1037F000F08F00000928010030313233343536377C
:10380000383961626364656600000000303132332C
:1038100034353637383941424344454600000000CC
:10382000600700D4062708F1070020F00700F0E841
:103830000223804603F0004C5FEA0C0001D097A001
:1038400009E0200501D596A005E0E00701D095A08C
:1038500001E0AFF24C001390307823F0004365286C
:103860000CD006DC452809D046281DD047287FD13A
:103870003BE0662818D067287AD136E00021112F66
:1038800001DB112000E0781CCDE9000104A90CA89F
:10389000FFF7EEFCDDE90D010C9A4FF0000B07F18C
:1038A0000109109200914EE04FF000400097CDE9E1
:1038B000011004A90CA8FFF7DBFCDDE90D020C9B4D
:1038C0000F994FF0000B91461093009211B9791C9B
:1038D00000EB0109B7EB090003D4C0F1FF3B07F18E
:1038E0000109A9EB0700019042E0012F00DA01274E
:1038F0000021112F01DD112000E03846CDE9000143
:1039000004A90CA8FFF7B4FCDDE90D010C9A0091A5
:103910004FF0000BB946109221070FD4009A4A4588
:1039200003DA914601E0A9F10109B9F1010F05DDC2
:10393000109AA9F10101515C3029F4D0B84202DAA1
:1039400010F1040F03DA0121CDE9011010E0002885
:1039500003DC8344A9EB000102E0411C494500DD82
:103960008946A0EB0B00401C01904FF000400290F4
:10397000200705D40198484502DB4FF0FF30019045
:1039800000208DF84B0002980DF14B07B0F1004F6D
:1039900025D002200C902B200D90029800280CDAE4
:1039A000404202902D200D9007E00A210298FCF77A
:1039B000AEFD3031029007F8011D0C99481E0C90A5
:1039C0000029F2DC02980028EFD1791E0D980870CA
:1039D000307800F0200040F0450007F8020D11A8F3
:1039E000C01BC01D02901398007800B1012000EBAD
:1039F0000901019801EBE071029801440398401A13
:103A0000401E0390E00306D453462146179A0398BC
:103A100000F05CF805441398007818B152461799E5
:103A200090476D1CE00323D553462146179A03980F
:103A300000F04CF805441BE0BBF1000F07DB0098D9
:103A4000584504DD1098179910F80B0001E01799FC
:103A500030205246904701980BF1010B401E05F1B2
:103A60000105019004D12E205246179990476D1CF4
:103A7000B9F10001A9F10109DEDC05E017F8010B3D
:103A80005246179990476D1C0299481E02900029D2
:103A9000F4DC53462146179A03989EE62D00000059
:103AA0002B000000200000002DE9F0410446002515
:103AB0001E461746880404D405E039462020B04746
:103AC0006D1C641EF9D52846BDE8F0812DE9F04152
:103AD000044600251E469046C80301D5302700E065
:103AE0002027880404D505E041463846B0476D1CC0
:103AF000641EF9D52846BDE8F0810A68531C0B60A6
:103B0000107070472DE9F0470746894600250026CA
:103B10002548FDF76FF98046B8F1000F02D0681E06
:103B2000BDE8F0872048C56B20480068C0EBC01096
:103B300000EB40001E4A02EB80012A463846FCF7A3
:103B4000A3FB1A480068032805D218480068401CE7
:103B50001649086002E00020144908601248046B0E
:103B6000002605E0206840F000402060E468761CF4
:103B70000D48806BB042F5D800210B488163006886
:103B800000F58050406900F0800058B1802106485F
:103B9000006800F58050416100210348006800F58D
:103BA000805081602846BBE744310020000000209F
:103BB000A40100202DE9F04105460C462DB1002C52
:103BC00003DD40F2F450844203D94FF0FF30BDE8EA
:103BD000F0811948C66A306800F0004010B14FF01B
:103BE000FF30F4E7B06822462946FCF74DFB00BFE2
:103BF000114890F845000128FAD021460E48FDF7FB
:103C0000B7FB0746B7B10C48006800F58050406923
:103C100000F0200058B120210748006800F58050CE
:103C2000416100210448006800F5805041604FF078
:103C3000FF30CCE70020CAE74431002010B504462D
:103C400040F2CE512046FCF738FB10BD70B5064659
:103C50000C46304600F008F8054615B1204600F045
:103C60000DF8284670BD000010B5044621460248F4
:103C700001F06EFD10BD00003000002010B50446BC
:103C80000021204600F002F810BD000070B5044687
:103C90000D462A462146024802F08AFA70BD00000D
:103CA0003000002010B5024802F082FC10BD000078
:103CB00030000020F8B504460D4616461F46334630
:103CC0002A4621460248009702F0B8FFF8BD0000DE
:103CD0003000002010B50246002000BF401C00EB61
:103CE000C0030D4C54F833305B1C63B100EBC003D0
:103CF00054F833309342F1D100EBC00304EBC3031B
:103D00005B688B42EAD100EBC003034C54F83330BC
:103D10005B1C03B9002010BD34A2000810B5044696
:103D20002146024803F021FA10BD000030000020B7
:103D3000411CC8B2072800DD0120704710B50446B9
:103D40002146002000F002F810BD000070B50446C6
:103D50000D462A462146024805F089F970BD00004B
:103D60003000002010B5002000F002F810BD000067
:103D700010B504462146024805F06CFA10BD00005B
:103D80003000002070B5044625464FF6FF7006F05F
:103D900033FA28804FF6FF7006F02EFA68804FF64F
:103DA000FF7006F029FAA8800A49088806F024FA6C
:103DB000E8800849488806F01FFA28810549888864
:103DC00006F01AFA688148F6A40006F015FAA881F0
:103DD00070BD000028A2000870B504460D461646C6
:103DE00033462A462146024805F089FF70BD00008F
:103DF0003000002010B504462146024806F0FEF8C7
:103E000010BD00003000002070B551A0FFF7E0F9B0
:103E100054A0FFF783FF18B953A0FFF7D9F970BD7D
:103E200057A0FFF7D5F95C490020FFF70FFF0028E6
:103E30007DDD5A4801685AA0FFF7CAF95748006863
:103E400001280CDB01225F495FA0FFF7C1F965483B
:103E5000D0F84821D0F8441163A0FFF7B9F96B4AB4
:103E600002210020FFF7B8FFC820FCF787FEFFF70C
:103E700019FF4948FFF702FF0023654A0121084660
:103E8000FFF718FF614A04210020FFF7A5FF6148F2
:103E9000818C408C01EB40005F4908600846016856
:103EA0005EA0FFF795F964A0FFF792F908204D494D
:103EB0000880FFF757FF4FF4FA60FFF73FFF00203D
:103EC000FFF798FF00BF4CF2503208210020FFF7A7
:103ED00083FF281EA5F1010503D042480088082869
:103EE000F1D1002406E008203E4908800020FFF7B9
:103EF00081FF641C0A2CF6DB3A48008808281BD195
:103F00003848D0F85C01574908603648D0F8680155
:103F100055490860002053490968088051490968DB
:103F200048800120514908605149087000E009E0CB
:103F300050A0FFF74DF904E02A48018857A0FFF789
:103F400047F902E05EA0FFF743F900BF67E7000012
:103F5000457468657243415420696E69742E0D0A78
:103F60000000000065746800457468657243415440
:103F700020696E6974206661696C65640D0A0000D1
:103F8000457468657243415420696E697420646F9A
:103F90006E652E0D0A0000006088012018000020C8
:103FA000256420736C6176657320666F756E64207E
:103FB000616E6420636F6E666967757265642E0D4D
:103FC0000A000000BC340020466F756E6420257323
:103FD00020617420706F736974696F6E2025640DA1
:103FE0000A0000007032002056656E646F723A203D
:103FF0003078253038582C2050726F647563743ACD
:10400000203078253038580D0A00000080841E00CA
:1040100040420F00603700208800002043616C633D
:10402000756C6174656420776F726B636F756E7405
:1040300065722025640D0A005265717565737420E0
:104040006F7065726174696F6E616C2073746174F6
:104050006520666F7220616C6C20736C617665738D
:104060000D0A0000980000209C0000209000002015
:104070008C000020416C6C20736C6176657320723B
:10408000656163686564206F7065726174696F6EE5
:10409000616C2073746174652E0D0A004661696C51
:1040A000656420746F207265616368204F502C2016
:1040B00073746174653A203078253032580D0A00E7
:1040C0004E6F20736C6176657320666F756E642128
:1040D0000D0A000010B51748006800B910BD4FF474
:1040E00080511548FDF724FB08B9012000E00020AD
:1040F0001249096808804FF480610F48FDF718FBEA
:1041000008B9012000E000200C4909684880FFF749
:1041100029FE4FF4FA60FFF711FE094908600948CB
:104120000068428807480068018807A0FFF750F838
:1041300000BFD3E790000020001802409800002044
:10414000940000209C0000207377697463683A2013
:1041500025642C25640D0A002DE9FF5F05460F46F6
:1041600090461E46DDE90E9B284602F03FFFC4B292
:1041700040F2F72014FB00F046F274522A4402EB9E
:104180004001234601222846CDE90269CDE90078A5
:1041900005F02FF95A462146284605F083FD824650
:1041A000BAF1000F0CDD40F2F720604305F1200268
:1041B00002EB400000F10C0132464846FCF764F87F
:1041C00000222146284605F004F9504604B0BDE817
:1041D000F09FFEB505460E4617461C46002002908D
:1041E00002A802233A463146CDE900042846FFF7EB
:1041F000B3FFBDF80800FEBD2DE9FF5F05460E4682
:1042000017469846DDE90E9A284602F0EFFEC4B242
:1042100040F2F72014FB00F046F274522A4402EBFD
:1042200040012346022228468DE8C00305F0E1F84C
:1042300052462146284605F035FD83460022214698
:10424000284605F0C6F8584604B0BDE8F09FFFB513
:1042500083B004460D4616460C9F06A8022332463C
:104260002946CDE900072046FFF7C6FF07B0F0BD9D
:104270002DE9FF5F05460F4690461E46DDE90E9B81
:10428000284602F0B3FEC4B240F2F72014FB00F05F
:1042900046F274522A4402EB400123460722284684
:1042A000CDE90269CDE9007805F0A3F85A46214628
:1042B000284605F0F7FC8246BAF1000F0CDD40F20B
:1042C000F720604305F1200202EB400000F10C01F1
:1042D00032464846FBF7D8FF00222146284605F023
:1042E00078F8504604B0BDE8F09F2DE9FF5F054621
:1042F0000E4617469846DDE90E9A284602F076FEED
:10430000C4B240F2F72014FB00F046F274522A4483
:1043100002EB40012346082228468DE8C00305F041
:1043200068F852462146284605F0BCFC8346002228
:104330002146284605F04DF8584604B0BDE8F09FE8
:104340002DE9FF5F05460F4690461E46DDE90E9BB0
:10435000284602F04BFEC4B240F2F72014FB00F0F6
:1043600046F274522A4402EB4001234604222846B6
:10437000CDE90269CDE9007805F03BF85A462146BF
:10438000284605F08FFC8246BAF1000F0CDD40F2A2
:10439000F720604305F1200202EB400000F10C0120
:1043A00032464846FBF770FF00222146284605F0BA
:1043B00010F8504604B0BDE8F09FFEB505460E4625
:1043C00017461C460020029002A802233A463146B6
:1043D000CDE900042846FFF7B3FFBDF80800FEBD95
:1043E0002DE9FF5F05460E4617469846DDE90E9A11
:1043F000284602F0FBFDC4B240F2F72014FB00F0A7
:1044000046F274522A4402EB400123460522284614
:104410008DE8C00304F0EDFF52462146284605F022
:1044200041FC834600222146284604F0D2FF58462C
:1044300004B0BDE8F09FFFB583B004460D461646B4
:104440000C9F06A8022332462946CDE900072046E4
:10445000FFF7C6FF07B0F0BD2DE9F04188B0044674
:104460000D4616461F46DDF83880182102A8FBF7D6
:1044700024FF684605F036FEDDE90001CDE90201C2
:10448000ADF81250ADF814608DF816700120E16A95
:10449000087000208DF81700CDF8188002A920467A
:1044A00004F001F908B0BDE8F0812DE9FF4FADF649
:1044B000BC3D81468B46DDF8F47B0DF5BC60FFF713
:1044C000BDFB00230DF5BC625946484603F031FEA2
:1044D000804604A8FFF7B2FB0DF5BC6404AD0A20CA
:1044E0002880002068802871CBEB0B1202EB8B1226
:1044F000D9F8041001EB820191F8C800FFF718FC0D
:1045000003900398CBEB0B1202EB8B12D9F804103B
:1045100001EB820181F8C8000321039801EB001030
:1045200068714FF40050E880DDF8F00B10B15020B6
:10453000287201E040202872DDF8C40BA5F80900BC
:10454000DDF8F00B30B1DDF8C80B012802DD0120E9
:10455000CDF8C80BDDF8C80BE8720020E86044F61F
:10456000206304AA5946484603F013FF8046B8F179
:10457000000F3BDD0DF5BC60FFF760FB0DF5BC6285
:1045800059464846DDF8FC3B03F0D3FD8046B8F1C0
:10459000000FEEDD607900F00F0003287DD1E08888
:1045A0000321B1EB203FF9D1B4F80900B5F80910A7
:1045B0008842F3D1207A00F00200002823DD207A1F
:1045C000C0F38100C0F10400CDF8B80B3968DDF804
:1045D000B80B81420BDB04F10C01DDF8B82BDDF8E0
:1045E000F80BFBF751FEDDF8B80B386009E14FF02E
:1045F000000803200090594648460DF6C4320CCA04
:1046000003F05CFFFDE0D4F80CA0386850457EDB79
:10461000DDF8F80BCDF8B40BDDF8F80BCDF8B00BE6
:1046200020880A3886B2564572DA324604F1100103
:10463000DDF8B00BFBF728FEDDF8B00B3044CDF809
:10464000B00B3E600120019000200290A6E004AD76
:104650000A202880002068802871CBEB0B1202EB27
:104660008B12D9F8041001EB820191F8C800FFF712
:104670005FFB03900398CBEB0B1202EB8B12D9F884
:10468000041001EB820181F8C8000321039801EBBB
:10469000001068714FF4005000E09AE0E880029842
:1046A00060302872DDF8C40BA5F80900DDF8C80BEE
:1046B000E8720020E86044F6206304AA59464846A0
:1046C00003F067FE8046B8F1000F63DD0DF5BC60B6
:1046D000FFF7B4FA0DF5BC6259464846DDF8FC3BDD
:1046E00003F027FD8046B8F1000F53DD607900F03C
:1046F0000F00032834D1E0880321B1EB203F2FD1F4
:10470000207A00F0E00058BB2088C01E01E054E091
:1047100049E086B2207A00F00100002810DD002078
:104720000190072E04D1207AC0F34200301A86B2DD
:10473000324604F10901DDF8B00BFBF7A5FD0BE0F3
:10474000324604F10901DDF8B00BFBF79DFDDDF801
:10475000B00B3044CDF8B00B38683044386019E005
:1047600000200190207A802809D1E0680090594605
:1047700048460DF6C4320CCAFFF76EFE08E0012071
:104780000090594648460DF6C4320CCA03F096FE16
:104790004FF00008029880F0100002900198002865
:1047A0007FF455AF2DE0524604F11001DDF8B40B53
:1047B000FBF76AFDC7F800A023E04FF000080320D4
:1047C0000090594648460DF6C4320CCA03F076FEF6
:1047D00017E0207A802809D1E068009059464846C1
:1047E0000DF6C4320CCAFFF737FE08E00120009036
:1047F000594648460DF6C4320CCA03F05FFE4FF02E
:10480000000840460DF6CC3DBDE8F08FF0B589B00C
:1048100004460D4616461F46182103A8FBF74DFD1A
:1048200001A805F05FFCDDE90101CDE90301ADF868
:104830001650ADF8186000208DF81A000120E16ACA
:10484000087008208DF81B00ADF81C7003A92046E5
:1048500003F029FF09B0F0BD2DE9FF4FADF6BC3DD7
:1048600081468A469346DDF8F47B0DF2DC50FFF773
:10487000E5F900230DF2DC525146484603F059FC9D
:1048800003A8FFF7DBF90DF2DC5503AC0420208010
:10489000002060802071CAEB0A1202EB8A12D9F85C
:1048A000041001EB820191F8C800FFF741FA029071
:1048B0000298CAEB0A1202EB8A12D9F8041001EB33
:1048C000820181F8C8000521029801EB0010607197
:1048D000A07920F00700401CA071A07920F008000A
:1048E000A071A07920F01000A071A0796BF347109F
:1048F000A071DDF8C80BE071DDF8F00B20814FF0FE
:104900000008DDF8F81BCDF8B41B0DF2E650CDF829
:10491000B00B0120019044F6206303AA514648469B
:1049200003F037FDCDF8B80BDDF8B80B00287CDDBF
:104930009BE00DF2DC50FFF781F90DF2DC5251469D
:104940004846DDF8FC3B03F0F4FBCDF8B80BDDF88E
:10495000B80B00287EDD687900F00F00052843D1F0
:10496000A87900F0070002283ED1A879C0F3001012
:10497000C8BBA879BBEB501F36D1E979DDF8C80B6D
:10498000814231D12888001F86B208EB06001FFA49
:1049900080F8386840450CDB3246DDF8B01BDDF8A6
:1049A000B40BFBF771FCDDF8B40B3044CDF8B40B5D
:1049B00010E03888A8EB0000301A86B238881FFA59
:1049C00080F8002E06DD3246DDF8B01BDDF8B40BB2
:1049D000FBF75AFCA879C0F3C00040BB002001904F
:1049E000C7F8008041E0FFE700200190687900F0FF
:1049F0000F00052821D1A87900F0070002281CD15A
:104A0000A879C0F30010C0B12888001D0DF2DC5158
:104A10000844CDF8B00BDDF8B00BCDF8AC0BDDF8E9
:104A2000AC0B03885146484602E022E012E01CE04D
:104A3000DDF8F02BFFF7EAFE08E0012000230090EC
:104A400051464846DDF8F02B03F038FD0020CDF844
:104A5000B80B0AE00020019004200023009051468A
:104A60004846DDF8F02B03F029FD019800287FF47B
:104A700060AFDDF8B80B0DF6CC3DBDE8F08F2DE949
:104A8000F05F82468846934699460D9D47464CF214
:104A90005440504430F8290086B207F10E042088B3
:104AA0000C3028442080208940F400402081B01E32
:104AB000C41984F802B084F803900B98A0800C9875
:104AC000E0800A9818B145F40040208100E025817B
:104AD00006F10A01C8192A4659460E9B05F068FAE4
:104AE000002106F10A002844395406F10A0028443E
:104AF000401C395406F10C0028444CF254415144F6
:104B000041F82900301FBDE8F09F0146002003E076
:104B1000002241F82020401C1028F9DB70470021BA
:104B2000826A1170826A517070472DE9FF4F87B019
:104B300004461D46DDE9149700200690059000BF4D
:104B40000490804600BF00BFC5EB051101EB851145
:104B5000606800EB810080880290C5EB051101EBD5
:104B60008511606800EB810090F80461C5EB0511C8
:104B700001EB8511606800EB8100008B78B101E0EA
:104B8000701CC6B2C5EB051101EB8511606800EB26
:104B90008100793000EB061000680028F0D12DE28A
:104BA00000BF00BF03E008F1010000F0FF08B8F10A
:104BB000070F0BDAC5EB051101EB8511606800EBFF
:104BC0008100713010F808000428ECD100BF00BF4C
:104BD000C5EB051101EB8511606800EB81003130F8
:104BE00000EBC8000188C5EB051202EB8512606876
:104BF00000EB8200793000EB06100181C5EB051156
:104C000001EB8511606800EB8100313000EBC800DA
:104C1000B0F802A0059850440590069800EBCA0031
:104C20000690C5EB051101EB8511606800EB810072
:104C3000313000EBC8000088504480B2039049E056
:104C400008F1010000F0FF0803E008F1010000F0A6
:104C5000FF08B8F1070F0BDAC5EB051101EB851161
:104C6000606800EB8100713010F808000428ECD176
:104C7000C5EB051101EB8511606800EB8100313057
:104C800000EBC80001880398814200DD30E000BFDE
:104C900000BFC5EB051101EB8511606800EB8100D9
:104CA000313000EBC800B0F802A0059850440590E0
:104CB000069800EBCA000690C5EB051101EB8511C3
:104CC000606800EB8100313000EBC8000088504480
:104CD00080B20390C5EB051101EB8511606800EB14
:104CE0008100C18C0698814202DDB8F1070FA7DB75
:104CF00000BFC5EB051101EB8511606800EB810079
:104D0000806A002867D1D9F80010C5EB051202EBC4
:104D10008512606800EB8200793000EB06100160BC
:104D20003978C5EB051202EB8512606800EB820052
:104D3000793000EB06108171C5EB051101EB85118F
:104D4000606800EB810090F82600401E3978084426
:104D500038703878072807DDD9F80000401CC9F8FA
:104D60000000387808383870C5EB051101EB851163
:104D7000606800EB8100793000EB06100068D9F81C
:104D80000010081A00F1010BC5EB051202EB8512A9
:104D9000606800EB8200793000EB0610A0F804B0E8
:104DA0003978C5EB051202EB8512606800EB8200D2
:104DB000793000EB0610C1713878401C38703878B3
:104DC000072864DDD9F80000401CC9F800003878D5
:104DD000083838705BE0387830B1D9F80000401CF2
:104DE000C9F8000000203870D9F80010C5EB051292
:104DF00002EB8512606800EB8200793000EB061050
:104E000001603978C5EB051202EB8512606800EB92
:104E10008200793000EB0610817107203870DDF8D0
:104E200014B0C5EB051101EB8511606800EB810042
:104E3000816A0498584481420ADAC5EB051101EBF6
:104E40008511606800EB8100816A0498A1EB000B7A
:104E5000D9F800005844C9F80000C5EB051202EB70
:104E60008512606800EB8200793000EB0610A0F834
:104E700004B03978C5EB051202EB8512606800EBCF
:104E80008200793000EB0610C17100203870049860
:104E900058440490C5EB051101EB8511606800EBE7
:104EA0008100793000EB06108088E8B30021C5EB63
:104EB000051202EB8512606800EB8200793000EB8E
:104EC000061081720121C5EB051202EB85126068A4
:104ED00000EB8200793000EB0610C172C5EB0512C1
:104EE00002EB8512606800EB8200793000EB06105F
:104EF000017341F27071C5EB051202EB8512606817
:104F000000EB8200793000EB0610CDE900013101A1
:104F100001F5C062102320680299FFF761FA216948
:104F2000099800EB800200E00FE002EB401001EB7B
:104F3000C000808C401C81B22269099800EB80037C
:104F400003EB401002EBC0008184C5EB051101EBBF
:104F50008511606800EB8100C06AF0BB0998F0B170
:104F6000C5EB051101EB8511606800EB810079301C
:104F700000EB06100168089801442269099800EBCB
:104F8000800303EB401052F83000081AC5EB0512FD
:104F900002EB8512616801EB8201C86214E0C5EB87
:104FA000051101EB8511606800EB8100793000EBA1
:104FB0000610016808980844C5EB051202EB85123B
:104FC000616801EB8201C862C5EB051101EB851137
:104FD000606800EB8100793000E00DE000EB061026
:104FE0008079C5EB051202EB8512616801EB820145
:104FF00081F8300000BF00BF701CC6B2B8F1070FC7
:1050000010DAC5EB051202EB8512616801EB820133
:10501000C98CC81DC11700EB5171CA1004998A428E
:105020003FF7BEADC5EB051101EB8511606800EBE4
:10503000810080F804610BB0BDE8F08F2DE9FF4FCF
:1050400087B004461D46DDE91497002006900590C0
:1050500000BF0490804600BF00BFC5EB051101EB07
:105060008511606800EB810090F80461C5EB0511C3
:1050700001EB8511606800EB8100808802901FE2DF
:1050800000BF00BF03E008F1010000F0FF08B8F125
:10509000070F0BDAC5EB051101EB8511606800EB1A
:1050A0008100713010F808000328ECD100BF00BF68
:1050B000C5EB051101EB8511606800EB8100313013
:1050C00000EBC8000188C5EB051202EB8512606891
:1050D00000EB8200793000EB06100181C5EB051171
:1050E00001EB8511606800EB8100313000EBC800F6
:1050F000B0F802A0059850440590069800EBCA004D
:105100000690C5EB051101EB8511606800EB81008D
:10511000313000EBC8000088504480B2039049E071
:1051200008F1010000F0FF0803E008F1010000F0C1
:10513000FF08B8F1070F0BDAC5EB051101EB85117C
:10514000606800EB8100713010F808000328ECD192
:10515000C5EB051101EB8511606800EB8100313072
:1051600000EBC80001880398814200DD30E000BFF9
:1051700000BFC5EB051101EB8511606800EB8100F4
:10518000313000EBC800B0F802A0059850440590FB
:10519000069800EBCA000690C5EB051101EB8511DE
:1051A000606800EB8100313000EBC800008850449B
:1051B00080B20390C5EB051101EB8511606800EB2F
:1051C0008100018B0698814202DDB8F1070FA7DB51
:1051D00000BFC5EB051101EB8511606800EB810094
:1051E000C069002866D1D9F80010C5EB051202EBA2
:1051F0008512606800EB8200793000EB06100160D8
:105200003978C5EB051202EB8512606800EB82006D
:10521000793000EB06108171C5EB051101EB8511AA
:10522000606800EB8100007E401E397808443870C9
:105230003878072807DDD9F80000401CC9F80000BD
:10524000387808383870C5EB051101EB85116068B6
:1052500000EB8100793000EB06100068D9F80010EF
:10526000081A00F1010BC5EB051202EB851260680C
:1052700000EB8200793000EB0610A0F804B039781A
:10528000C5EB051202EB8512606800EB82007930F5
:1052900000EB0610C1713878401C38703878072848
:1052A00064DDD9F80000401CC9F8000038780838DF
:1052B00038705BE0387830B1D9F80000401CC9F88C
:1052C000000000203870D9F80010C5EB051202EB81
:1052D0008512606800EB8200793000EB06100160F7
:1052E0003978C5EB051202EB8512606800EB82008D
:1052F000793000EB0610817107203870DDF814B0AA
:10530000C5EB051101EB8511606800EB8100C169F7
:105310000498584481420ADAC5EB051101EB851166
:10532000606800EB8100C1690498A1EB000BD9F81B
:1053300000005844C9F80000C5EB051202EB8512C5
:10534000606800EB8200793000EB0610A0F804B032
:105350003978C5EB051202EB8512606800EB82001C
:10536000793000EB0610C171002038700498584461
:1053700004900021C5EB051202EB8512606800EB7A
:105380008200793000EB061081720221C5EB051214
:1053900002EB8512606800EB8200793000EB0610AA
:1053A000C1720121C5EB051202EB8512606800EBAA
:1053B0008200793000EB0610017341F27071C5EB89
:1053C000051202EB8512606800EB8200793000EB79
:1053D0000610CDE90001310101F5C06210232068FB
:1053E0000299FEF7FDFF2169099800EB800202EBAC
:1053F000401001EBC000408C401C81B2226909982A
:1054000000EB800303EB401002EBC0004184C5EBCE
:10541000051101EB8511606800EB8100006AE8BBB3
:105420000998F0B1C5EB051101EB8511606800EB3F
:105430008100793000EB0610016808980144226968
:10544000099800EB800303EB401052F83000081A73
:10545000C5EB051202EB8512616801EB820108625F
:1054600014E0C5EB051101EB8511606800EB8100CC
:10547000793000EB0610016808980844C5EB051266
:1054800002EB8512616801EB82010862C5EB051130
:1054900001EB8511606800EB810000E00EE07930DF
:1054A00000EB06108079C5EB051202EB85126168EE
:1054B00001EB820181F8240000BF00BF701CC6B25E
:1054C000B8F1070F10DAC5EB051202EB851261681F
:1054D00001EB8201098BC81DC11700EB5171CA1085
:1054E00004998A423FF7CCADC5EB051101EB85115C
:1054F000606800EB810080F804610BB0BDE8F08FBC
:105500002DE9F04105460E464FF0000806E0002068
:10551000254901EB0811486008F10108B8F1010FB5
:10552000F5DB012412E056B1C4EB041101EB841148
:10553000686800EB810090F80301B04204D10022BA
:105540002146284602F0D8FA601C84B2A868006898
:10555000A042E8DA00BF01F03BFD07461FB14FF45F
:105560007A7004F03BFE002FF5D1012415E056B10E
:10557000C4EB041101EB8411686800EB810090F822
:105580000301B04207D12146284602F075FB2146AF
:10559000284602F028FC601C84B2A8680068A0427B
:1055A000E5DABDE8F0810000603200202DE9F0412D
:1055B00006460F46C7EB071101EB8711706800EB39
:1055C0008104D4E90201FEF785FB0546A4F8F650F4
:1055D000002D7CD005EBC5005B4901EBC00090F8C5
:1055E0003100E08205EBC5000A4602EBC00000F185
:1055F000080104F58870FAF76BFE05EBC500524907
:1056000001EBC000408EE08405EBC50001EBC0005B
:10561000808E2083208B10B1012084F8B900E08CAB
:1056200010B1022084F8BA0005EBC500464901EB31
:10563000C00090F844108520015505EBC500424993
:1056400001EBC00090F8451084F8951005EBC500FB
:105650003D4901EBC000C18E04F13100A4F84110B6
:1056600005EBC500384901EBC000816BC4F845105B
:10567000208BE8B1B4F84100D0B94FF47060A4F8C1
:105680003100218BC81DC11700EB5171C91004F105
:105690003102A4F833102D49C4F8351001218520BA
:1056A0000155022184200155032084F871000AE08D
:1056B000218BC81DC11700EB5171CA10A4F84320FB
:1056C00003217320015505EBC5001F4900E038E0B8
:1056D00001EBC000818F04F13100A4F8491005EB03
:1056E000C500194901EBC000016CC4F84D10E08CF5
:1056F000E0B1B4F84900C8B94FF4805104F1310069
:10570000A4F83910E18CC81DC11700EB5171CA1003
:10571000A4F83B200021C4F83D10012184F8951025
:1057200084F894100421722001550AE0E18CC81D10
:10573000C11700EB5171CA10A4F84B20042174204A
:1057400001552846BDE8F08134A20008440001005C
:105750002DE9F34F8DB0044600BF00BF204601F095
:105760000DFD204601F020FB0590059800287DDD09
:10577000204603F078FD01257FE0C5F1010080B2ED
:105780000C9041F270734FF4A07220680C99FEF7F0
:1057900020FD8246C5EB051101EB8511606800EB29
:1057A0008100A0F814A041F2707005F580518BB211
:1057B0000090102220680C99FEF749FD012D01D1BF
:1057C000AB4601E04FF0000B41F2707000905B4679
:1057D0004FF4807220680C99FEF739FD41F2707326
:1057E000102220680C99FEF7F4FC0B900B980B909C
:1057F0000B98C5EB051202EB8512616801EB820183
:10580000888041F2707007A9CDE9001002231222AE
:1058100020680B99FEF794FDBDF81C00C5EB05123E
:1058200002EB8512616801EB8201C88041F2707061
:105830000AA9CDE90010022340F2025220680B9918
:10584000FEF77EFDBDF828000A90BDF8280000F0A4
:10585000400048B10120C5EB051202EB85126168DA
:1058600001EB820181F8FA00082200E0FDE32946FD
:10587000204603F0D5FA681C85B2A0680068A842EB
:10588000BFF67BAF012515E044F62062294620468D
:1058900003F018FB0646C5EB051101EB85116068A6
:1058A00000EB810086600A222946204603F0B8FA00
:1058B000681C85B2A0680068A842E5DA012515E0F9
:1058C00044F620622946204603F0FCFA0646C5EB62
:1058D000051101EB8511606800EB8100C6600C22A8
:1058E0002946204603F09CFA681C85B2A06800682F
:1058F000A842E5DA012515E044F620622946204653
:1059000003F0E0FA0646C5EB051101EB851160686E
:1059100000EB8100066118222946204603F080FA38
:10592000681C85B2A0680068A842E5DA01252BE072
:1059300044F620622946204603F0C4FA0646C5EB29
:10594000051202EB8512616801EB8201A1F8C060CB
:10595000300CC5EB051202EB8512616801EB820188
:10596000A1F8BE00C5EB051101EB8511606800EBE5
:105970008100B0F8BE00002804DD1A222946204626
:1059800003F04EFA681C85B2A0680068A842CFDA1E
:105990000125FCE3C5EB051101EB8511606800EB07
:1059A0008100B0F8BE0000283ADD44F620622946A6
:1059B000204603F087FA0646C5EB051202EB851276
:1059C000616801EB8201A1F8C460300CC5EB0512DF
:1059D00002EB8512616801EB8201A1F8C200C5EB00
:1059E000051101EB8511606800EB8100B0F8C20081
:1059F00088B9C5EB051101EB8511606800EB8100EA
:105A0000B0F8BE00C5EB051202EB8512616801EB30
:105A10008201A1F8C2001C222946204603F000FAA8
:105A2000C5EB051101EB8511606800EB81008088F2
:105A30000B9041F27073082220680B99FEF7BDFCB1
:105A400082460AF0040000280ADD0120C5EB051299
:105A500002EB8512616801EB820181F8C90009E05F
:105A60000020C5EB051202EB8512616801EB820193
:105A700081F8C90041F270734FF4887220680B9965
:105A8000FEF79BFC074600BF00200690834607F404
:105A90004070B0F5007F05D10698401CC0B206905A
:105AA0004BF0010B07F44060B0F5006F05D106988C
:105AB000401CC0B206904BF0020B07F44050B0F50A
:105AC000005F05D10698401CC0B206904BF0040B55
:105AD00007F44040B0F5004F05D10698401CC0B215
