:020000040800F2
:10000000A8060020CD010008AF140008ED13000879
:10001000AD140008B50300086D18000800000000CA
:10002000000000000000000000000000EB170008C6
:10003000B703000800000000E9170008ED170008EA
:10004000E7010008E7010008E7010008E7010008F0
:10005000E7010008E7010008E7010008E7010008E0
:10006000E7010008E7010008E7010008E7010008D0
:10007000E7010008E7010008E7010008E7010008C0
:10008000E7010008E7010008D5020008E7010008C1
:10009000E7010008E7010008E7010008E7010008A0
:1000A000E7010008E7010008E7010008E701000890
:1000B000E7010008E7010008E7010008E701000880
:1000C000E7010008E7010008E7010008E701000870
:1000D000E7010008E7010008E7010008E701000860
:1000E000E7010008E7010008E7010008E701000850
:1000F000E7010008E7010008E7010008E701000840
:10010000E7010008E7010008E7010008E70100082F
:10011000E7010008E7010008E7010008E70100081F
:10012000E7010008E7010008E7010008E70100080F
:1001300000F002F800F03AF80AA090E8000C8244BF
:100140008344AAF10107DA4501D100F02FF8AFF29C
:10015000090EBAE80F0013F0010F18BFFB1A43F0A5
:100160000103184780210000A0210000103A24BF9D
:1001700078C878C1FAD8520724BF30C830C144BF0C
:1001800004680C607047000000230024002500264E
:10019000103A28BF78C1FBD8520728BF30C148BFEA
:1001A0000B6070471FB51FBD10B510BD00F058F8AB
:1001B0001146FFF7F7FF01F06BFB00F076F803B490
:1001C000FFF7F2FF03BC00F07DF80000094880470C
:1001D00009480047FEE7FEE7FEE7FEE7FEE7FEE729
:1001E000FEE7FEE7FEE7FEE704480549054A064B41
:1001F000704700006B18000831010008A8000020BB
:10020000A8060020A8020020A80200204FF000024B
:1002100000B5134694469646203922BFA0E80C50FC
:10022000A0E80C50B1F12001BFF4F7AF090728BFD7
:10023000A0E80C5048BF0CC05DF804EB890028BF53
:1002400040F8042B08BF704748BF20F8022B11F07C
:10025000804F18BF00F8012B7047704770477047F8
:10026000754600F02BF8AE4605006946534620F06F
:100270000700854618B020B5FFF7B6FFBDE820405F
:100280004FF000064FF000074FF000084FF0000B52
:1002900021F00701AC46ACE8C009ACE8C009ACE805
:1002A000C009ACE8C0098D46704710B50446AFF3ED
:1002B00000802046BDE81040FFF781BF004870472E
:1002C0004400002001491820ABBEFEE726000200D2
:1002D00070470000014800F063B9000014000020DE
:1002E00070B5044600688168C943C90717D18168A1
:1002F00021F00101816000F099FC05460AE000BF91
:1003000000F094FC401B022804D920688068C04398
:10031000C00706D020688068C043C007F0D0002026
:1003200070BDA06A40F01000A062E06A40F00100D9
:10033000E062012070BD0000F8B50026044600967A
:1003400000688168C943C9072DD0816841F0010167
:100350008160164816490068B0FBF1F000E0401ECD
:1003600000900028FBD100F061FC054616E000BFBC
:1003700000F05CFC401B022810D920688068C04354
:10038000C0070BD0A06A40F01000A062E06A40F005
:100390000100E06284F824600120F8BD20688068D4
:1003A000C043C007E4D10020F8BD000010000020C9
:1003B00040420F00FEE7704772B6FEE7F8B5002531
:1003C0000446009590F8240001280BD0012084F801
:1003D00024002046FFF784FF2046FFF7ADFF06000C
:1003E00002D050E00220F8BDA06A20F4885040F00E
:1003F0000200A062022000F0B7FC25490968B1FBA9
:10040000F0F0400000E0401E00900028FBD1206882
:10041000816841F00801816000F008FC074608E0AF
:1004200000F004FCC01B0A2803D92068806800077C
:1004300015D4206880680007F2D42068816841F0F4
:100440000401816000F0F2FB074612E000F0EEFBD1
:10045000C01B0A280DD920688068400709D5A06A0A
:1004600020F0020040F01000A06284F82450012027
:10047000F8BD206880684007E8D4A06A20F0020038
:1004800040F00100A06284F824503046F8BD00001E
:100490001000002070470000F8B50024009490F888
:1004A00024202546012A12D0012280F824204A68FF
:1004B0001F23072A0DD20668776B521E02EB8202B9
:1004C00093409F430B6893401F43776319E00220DA
:1004D000F8BD06680D2A0AD2376BD21F02EB8202E2
:1004E00093409F430B6893401F43376309E0F76ACB
:1004F0000D3A02EB820293409F430B6893401F43E7
:10050000F7620A68072306680A2A0AD3F7680A3AD4
:1005100002EB420293409F438B6893401F43F76076
:1005200008E0376902EB420293409F438B68934097
:100530001F4337610A68102A01D0112A20D1124BBB
:1005400002689A4217D193681B0219D4936843F446
:10055000000393600968102912D10C490C4A0968FC
:10056000B1FBF2F101EB8101490000E0491E00916D
:100570000029FBD104E0816A41F02001816201245D
:1005800080F824502046F8BD0024014010000020CF
:1005900040420F007047806A70470068C06C704727
:1005A00070B50446006806684568A90625D5B107F8
:1005B00023D5A16AC90603D4A16A41F40071A162DE
:1005C0008168C1F34241072910D1217B71B941688B
:1005D00021F020014160A06A20F48070A062A06A2E
:1005E000C00403D4A06A40F00100A0622046FFF7D7
:1005F000D1FF21686FF01200086028062ED5700721
:100600002CD5A06AC00603D4A06A40F40050A062B2
:1006100020688168C1F30231072909D04168490582
:1006200015D48168C1F34241072910D1217B71B9EA
:10063000416821F080014160A06A20F48050A062EE
:10064000A06AC00503D4A06A40F00100A062204661
:10065000FFF720FF21686FF00C00086068060CD5DA
:10066000F0070AD0A06A40F48030A062204600F073
:1006700095F821686FF00100086070BD2DE9F04128
:1006800004004FF000057FD0A06A002628B9E6627A
:1006900084F82460204600F083F82046FFF720FE0F
:1006A000A16AC90600D420B1A06A40F01000A0627F
:1006B0006AE0A16A21F4885141F00201A162334944
:1006C00023688B42E16904D1B1F5402F01D14FF489
:1006D0000021277B4FF4807C41EA470261680A438E
:1006E000A168614508D0012906D0002194F814E0E2
:1006F000BEF1010F02D00AE06146F7E7C7B1A76A71
:1007000047F02007A762E76A47F00107E7625F68E2
:1007100027F469470F435F60236899681C4F39408D
:1007200011439960A16861450BD0012909D00CE003
:10073000DFF860E0A7690EEB47370F4347F400612D
:10074000E5E7218A0D05A5F580152168CB6A23F41C
:1007500070032B43CB62216889680F4B194091428B
:1007600008D1E662A16A21F0020141F00101A16213
:10077000BDE8F081A06A20F0020040F01000A06205
:10078000E06A40F00100E0620120F1E7003C014036
:10079000FDF7E1FF00E0FFFFFE0E1FFF70470000C6
:1007A00000B585B00021009101910291039100688C
:1007B0001249884220D11248816941F40071816157
:1007C000816901F400710491816941F00401816142
:1007D0008069694600F00400049002200090032024
:1007E0000190084800F020F900221146122000F084
:1007F00089FA122000F078FA05B000BD002401400B
:1008000000100240000801402DE9F84300270D4682
:100810000446009700F00AFA804620688168C905FE
:1008200008D5A06A40F02000A06284F8247001205E
:10083000BDE8F8834168C90503D4C06A10F4700F9D
:100840002AD0022000F090FA3B490968B1FBF0F68B
:100850002068036939490B424FEA61014FEAA1124E
:100860001FD1C3684FEA611C13EA0C0F19D1036949
:100870000B4225D1C068104222D1142023E0681C0D
:100880000AD02DB100F0D2F9A0EB0800A84203D99C
:1008900020680068800725D5206800688007EED5AD
:1008A0002DE003690B4202D1C168114206D00269F2
:1008B00023490A4206D1C068084203D1542002E00D
:1008C000292000E0FC204643009816E0681C11D067
:1008D0002DB100F0ABF9A0EB0800A8420AD90098AE
:1008E000B04207D2A06A40F00400A06284F82470ED
:1008F00003209DE70098401C0090B042E6D3216899
:100900006FF012000860A06A40F40070A0622068D6
:100910008068C0F3424007280CD1207B50B9A06A00
:1009200020F48070A062A06AC00403D4A06A40F0E2
:100930000100A06200207BE71000002024499224DF
:100940004992240070B5044690F8240001280DD087
:10095000012084F824002046FFF7EEFC02004FF04F
:10096000000005D084F82400104670BD022070BD40
:10097000A16A40F20123994341F48071A1621F4DA5
:1009800023681F49AB4218D10E6816F4702F14D09B
:10099000A66A46F48016A6620E68760505D5A66A94
:1009A00026F4005646F48056A662A66AF6040AD5D6
:1009B000E66A26F00606E66206E0A66A26F48016D7
:1009C000A6625E68E9E7E06284F824006FF0020046
:1009D000186020688368C3F34243072B05D1A842FF
:1009E00008D1096811F4702F04D0816841F4801196
:1009F0008160B9E7816841F4A001F9E7002801406E
:100A00000424014070B5044600F010F90546601C4E
:100A100002D004480078044400F008F9401BA042CA
:100A2000FAD370BD040000202DE9F84FDFF8C8911B
:100A30000024A9F1040B23460F2709F1040AABF1A6
:100A4000040ED1E00125A54006EA0502AA4276D1AE
:100A5000DFF8A8C14E68A6EB0C0866452BD00DDC6C
:100A6000032E34D005DC36B3012E19D0022E2FD13F
:100A70001BE0112E16D0122E2AD119E0B8F5881FCE
:100A800019D006DCB8F5803F15D0B8F5801F1FD10E
:100A900011E0B8F5001F0ED0B8F5041F18D10AE018
:100AA000CB6815E0CB681B1D12E0CB6808330FE064
:100AB000CB680C330CE08B682BB1012B4FF0080393
:100AC00003D0456104E0042302E0056100E0002357
:100AD000FF2A01D8064601E000F104064FEA84052A
:100AE00001D9A5F12005D6F8008007FA05FC28EA0F
:100AF0000C0803FA05F548EA0508C6F800804D68B9
:100B0000ED0070D53E4DAE6946F00106AE61AD69AF
:100B100024F0030605F0010500953A4D06EB050C9F
:100B2000DCF80850A607360F07FA06F825EA08058C
:100B3000DFF8D480404503D14FF0000825E052E0B3
:100B4000DFF8C880404502D14FF001081DE0DFF812
:100B5000C080404502D14FF0020816E0DFF8B480B3
:100B6000404502D14FF003080FE0DFF8AC8040456C
:100B700002D14FF0040808E0DFF8A080404502D120
:100B80004FF0050801E04FF0060808FA06F848EAB9
:100B90000508CCF808804D68D9F80060ED024D4694
:100BA00001D5164300E096432E604D68DAF80060E8
:100BB000AD02554601D5164300E096432E604D68C0
:100BC000DBF80060AD035D4601D5164300E09643B7
:100BD0002E604D68DEF80060ED03754601D51643C2
:100BE00000E096432E60641C0A681646E2407FF4DB
:100BF00029AFBDE8F88F0000080401400000111083
:100C0000001002400000014000080140000C0140BB
:100C1000001001400014014000180140001C014078
:100C20000AB1016170470904FBE7000001488068D0
:100C300070470000040000200248816802781144D7
:100C40008160704704000020074810B5016841F03A
:100C500010010160032000F075F80F2000F006F885
:100C600000F024F8002010BD0020024070B50D4DAA
:100C700004464FF47A712878B1FBF0F00A4909680C
:100C8000B1FBF0F000F09EFB48B9102C07D2002217
:100C90002146501E00F036F800206C6070BD012027
:100CA00070BD000004000020100000200C4808B5B2
:100CB000816941F001018161816901F001010091C7
:100CC000C16941F08051C161C06900F0805000905D
:100CD0000448416821F0E06141F00071416008BDC5
:100CE0000010024000000140002809DB00F01F0254
:100CF000012191404009800000F1E020C0F800117E
:100D000070470000F0B40E4B1B680C46C3F302237F
:100D1000C3F10705042D00D90425191D072901D2A7
:100D2000002300E0DB1E012606FA05F1491E2140E2
:100D300099409E40761E16403143F0BC00F097BDAE
:100D40000CED00E0064900F0070208684FF6FF03CB
:100D5000184040EA0220034A104308607047000030
:100D60000CED00E00000FA0510B501460020284C0B
:100D700004292FD00BDC012930D0022929D100F021
:100D80005BF96168C1F38131491C49001FE0082902
:100D900020D010291DD161682268D20119D51D48C3
:100DA000C1F38342C903805C0AD56168194AC1F363
:100DB0004041921E515C184AB2FBF1F1484301E0F8
:100DC000164948436168490203D440000321B0FB3F
:100DD000F1F010BDBDE8104000F03EB9226AC2F348
:100DE0000121012903D1920701D5C80310BD0229B1
:100DF00005D1626A920702D549F6404010BD032929
:100E0000FCD121688903F9D54FF2244010BD0000C0
:100E1000001002402419000800127A0000093D0069
:100E20002DE9F84305460078354CC00754D0E069F9
:100E30000026C00008D4E06940F08050E061E0691D
:100E4000012600F0805000902E480168C90512D498
:100E50000168804641F480710160FFF7E7FE0746B4
:100E600005E000BFFFF7E2FEC01B642823D8D8F8D6
:100E70000000C005F6D5206A10F4407021D0A98882
:100E800001F4407181421CD0206A1F49012220F4E4
:100E900040700A6000220A602062C00711D0FFF78C
:100EA000C5FE074641F2883808E000BFFFF7BEFEE6
:100EB000C11B414502D90320BDE8F883206A8007A1
:100EC000F4D5206A696820F44070084320621EB19E
:100ED000E06920F08050E0612878800705D56068DF
:100EE000A96820F44040084360602878C00605D512
:100EF0006068696920F48000084360600020DBE7D7
:100F00000010024000700040400442422DE9F047CA
:100F10000F46050061D0434E306800F00700B8422C
:100F200009D2306820F0070038433060306800F0A4
:100F30000700B84251D128683B4C810712D54007C1
:100F400003D5606840F4E06060602878000703D54E
:100F5000606840F4605060606068A96820F0F0004C
:100F6000084360602878C00728D06868012810D03E
:100F70002168022810D0890700292EDA616821F043
:100F8000030101436160FFF751FE804641F2883959
:100F90000DE021688903EFE78901EDE7FFF746FEE1
:100FA000A0EB0801494502D90320BDE8F08760683D
:100FB000696800F00C00B0EB810FEFD1306800F0F1
:100FC0000700B8420BD9306820F007003843306082
:100FD000306800F00700B84201D00120E5E728782A
:100FE000400705D56068E96820F4E0600843606068
:100FF0002878000706D56068296920F4605040EA27
:10100000C100606000F028F86168084AC1F303116C
:10101000515CC8400649086006480068FFF726FE94
:101020000020C2E7002002400010024034190008EE
:1010300010000020080000200448054900684968A5
:10104000044AC1F3C221515CC8407047100000201F
:1010500000100240441900080E4A51680E4801F081
:101060000C03042B11D0082B0FD10C48C1F3834380
:10107000C903C05C0AD55168084AC1F34041921EB9
:10108000515C054A5043B0FBF1F0704704494843B6
:10109000704700000010024000127A001219000888
:1010A00000093D002DE9F84F040070D02078C04DB4
:1010B000C00749D06868C0F38100012807D068687C
:1010C000C0F38100022809D16868C00306D52868EA
:1010D000800339D560680028E7D035E06068B0F556
:1010E000803F0BD010B1B0F5A02F11D0286820F4AC
:1010F00080302860286820F4802002E0286840F4CE
:1011000080302860606890B1FFF790FD06460AE0E5
:10111000286840F480202860F0E700BFFFF786FDD4
:10112000801B642873D828688003F7D50CE0FFF78C
:101130007DFD064605E000BFFFF778FD801B6428B3
:10114000F0D828688003F7D420789A4E80074FF0B3
:1011500001094FF0000839D5686810F00C0F07D06E
:101160006868C0F38100022809D16868C00306D40A
:101170002868800714D52069012808D110E020696B
:10118000B0B1C6F80090FFF751FD074605E00AE14F
:10119000FFF74CFDC01B0228C4D828688007F7D58C
:1011A0002868616920F0F80040EAC10028600DE07D
:1011B000C6F80080FFF73AFD074604E0FFF736FD6A
:1011C000C01B022823D828688007F7D4207800079E
:1011D0002CD57948A169D9B1C0F80090FFF726FD58
:1011E000074604E0FFF722FDC01B02280FD8686AFB
:1011F0008007F7D571484FF4FA510068B0FBF1F061
:10120000009000BF0098411E0091FAD20EE080E0ED
:10121000C0F80080FFF70AFD074604E0FFF706FD6F
:10122000C01B022875D8686A8007F7D42078400769
:1012300060D5E8690027C00008D4E86940F0805014
:10124000E861E869012700F0805000905C4801687F
:10125000C90513D40168834641F480710160FFF72A
:10126000E5FC824606E000BFFFF7E0FCA0EB0A00C9
:1012700064284ED8DBF80000C005F5D5E0680128E9
:101280000AD008B1052813D0286A20F0010028628E
:10129000286A20F0040002E0286A40F00100286279
:1012A000E06841F2883B98B1FFF7C0FC82460BE052
:1012B000286A40F004002862EEE700BFFFF7B6FCA2
:1012C000A0EB0A0159455AD8286A8007F6D50CE0E8
:1012D000FFF7ACFC824605E0FFF7A8FCA0EB0A0193
:1012E00059454CD8286A8007F6D41FB1E86920F028
:1012F0008050E861E06988B36968C1F3810102291F
:1013000044D00228C6F8608004D0FFF78FFC044662
:1013100038E034E0FFF78AFC074604E0FFF786FC7C
:10132000C01B02282BD828688001F7D4206AB0F5AA
:10133000803F05D16868A16820F4003008436860E8
:10134000D4E908010843696821F47411084368600E
:10135000C6F86090FFF76AFC044606E025E000BF8F
:10136000FFF764FC001B022809D828688001F7D524
:101370001BE000BFFFF75AFC001B022802D9032024
:10138000BDE8F88F28688001F4D40EE00128F7D07A
:101390006868226A00F48031914204D1616A00F4E5
:1013A0007010884201D00120EAE70020E8E7000041
:1013B000001002400000424280044242100000201F
:1013C0000070004010B5401EB0F1807F01D30120B5
:1013D00010BD4FF0E02460610F21601700F047FA64
:1013E0000020A06107202061002010BDFEE7000062
:1013F0003EB5002410480094019402940D49846085
:10140000016001250573047505614FF46021446096
:10141000C161FFF733F908B1FEF7CEFF0095CDE9C2
:10142000015469460448FFF737F8002801D0FEF759
:10143000C3FF3EBD002401401400002070B586B0FB
:10144000002418480094019402940394816941F0A7
:1014500020018161816901F020010491816941F0DD
:1014600004018161816901F004010491816941F005
:101470000801816180690C4E00F008004FF4F87596
:101480000490002229463046FFF7CAFB0120009550
:10149000CDE901040320039069463046FFF7C4FA02
:1014A00006B070BD00100240000C0140FEE7FEE7F0
:1014B00070B5002404F1B000C0B200F08FF9022032
:1014C00000F08CF9102000F089F90025002000F0D0
:1014D00088F96D1CEDB2802DF8D3641CE4B2082CA1
:1014E000E8D370BD10B5454C00224FF48071204602
:1014F000FFF796FB012280212046FFF791FB012296
:1015000010212046FFF78CFB012220212046FFF707
:1015100087FB012240212046FFF782FB6420FFF772
:1015200071FA012240212046FFF77AFB6420FFF781
:1015300069FA012240212046FFF772FBAE2000F03D
:101540004DF9022000F04AF9102000F047F9402040
:1015500000F044F9812000F041F9CF2000F03EF97D
:10156000A12000F03BF9C82000F038F9A62000F0D7
:1015700035F9A82000F032F93F2000F02FF9D320F0
:1015800000F02CF9002000F029F9D52000F026F910
:10159000802000F023F9D92000F020F9F12000F09C
:1015A0001DF9DA2000F01AF9122000F017F9DB20FB
:1015B00000F014F9402000F011F9202000F00EF99D
:1015C000022000F00BF98D2000F008F9142000F043
:1015D00005F9A42000F002F9A62000F0FFF8AF20E2
:1015E00000F0FCF8AF2000F0F9F8FFF761FF0021F0
:1015F000BDE81040084600F00BB80000000C0140A8
:101600000246012000E05043491EC9B2FBD2704798
:1016100010B50446B031C8B200F0E0F8102040EA3E
:10162000141000F0DBF804F00F00BDE8104000F0EB
:10163000D5B800002DE9F047203A0024089F0D4658
:101640008146D6B27F2803D900208D1C8146EDB299
:10165000102B16D0062B12D16D1CE9B2FFF7D8FF64
:101660001A4906EB460001EB4005285D07B1C0436F
:10167000C0B200F0B6F8641CE4B2062CF5D3BDE8A5
:10168000F0872946FFF7C4FFDFF8448004EB06111A
:1016900018F8010007B1C043C0B200F0A2F8641C02
:1016A000E4B2082CF2D36D1CE9B24846FFF7B0FF54
:1016B0000024454604EB06102844007A00F091F817
:1016C000641CE4B2082CF5D3D9E700004C190008DB
:1016D000741B00082DE9F84F0026DDE90AA81D4615
:1016E00091468B460746344627E0281B401EC1B270
:1016F0000A20FFF785FFB9FBF0F00A21B0FBF1F2F9
:1017000001FB120026B9691E8C4201DA48B101269C
:101710003030C2B207EBC400C0B25346CDF80080EF
:1017200006E007EBC400C0B253462022CDF800808B
:101730005946FFF77FFF641CE4B2AC42D5D3BDE845
:10174000F88F2DE9F843994617460E4604460025C2
:10175000DDF820800FE04B4631462046CDF8008072
:10176000FFF768FF0834E4B2782C02D90024B61CD5
:10177000F6B26D1CEDB27A5D002AECD1BDE8F883BB
:1017800070B5154E054609B1012200E00022802106
:101790003046FFF745FA0024002210213046FFF7BB
:1017A0003FFA280601D5012200E000222021304620
:1017B000FFF736FA012210213046FFF731FA6806AA
:1017C000641C050EE4B2082CE6D33046BDE8704038
:1017D00001228021FFF724BA000C01400021FFF70D
:1017E000CFBF0121FFF7CCBF70477047FFF724BA86
:1017F00030B595B028216846FEF708FD14210AA8E7
:10180000FEF704FD18210FA8FEF700FD01210804D2
:10181000CDE900100025029502240491CDE907408E
:101820004FF4E01009906846FFF73CFC08B172B62F
:10183000FEE70AA90F2081E831004FF48060CDE96E
:101840000D0502210AA8FFF761FB08B172B6FEE799
:101850004FF4004011900F940FA8FFF7E1FA002811
:1018600001D072B6FEE715B030BD7047FEE709073C
:10187000090E002804DB00F1E02080F80014704716
:1018800000F00F0000F1E02080F8141D7047000008
:101890001CB5FFF7D9F9FFF7ABFFFFF7CFFDFFF757
:1018A000A7FDFFF71FFE0120FFF7ACF81448FEF775
:1018B00085FD1348FFF746F80025124C1026104806
:1018C000FFF740F832210E48FEF79EFF0C48FEF766
:1018D00062FE8005F3D50A48FEF75FFE20800021F6
:1018E000102309A208460095FFF72BFFCDE90065FC
:1018F0000423228802210020FFF7ECFEDFE700002E
:10190000140000200000002056616C75653A00004C
:10191000010202030405060708090A0B0C0D0E0F4D
:101920001010010202030405060708090A0B0C0D3A
:101930000E0F101000000000000000000102030460
:10194000060708090000000001020304000000006F
:1019500000000000002F0000000007000700001436
:101960007F147F1400242A7F2A1200626408132344
:1019700000364955225000000503000000001C22DB
:101980004100000041221C000014083E0814000819
:10199000083E0808000000A06000000808080808C9
:1019A000000060600000002010080402003E514961
:1019B000453E0000427F40000042615149460021FF
:1019C00041454B31001814127F1000274545453919
:1019D000003C4A4949300001710905030036494974
:1019E000493600064949291E00003636000000002D
:1019F0005636000000081422410000141414141478
:101A00000000412214080002015109060032495920
:101A1000513E007C1211127C007F49494936003E3C
:101A200041414122007F4141221C007F49494941F7
:101A3000007F09090901003E4149497A007F0808F1
:101A4000087F0000417F4100002040413F01007FAE
:101A500008142241007F40404040007F020C027F7A
:101A6000007F0408107F003E4141413E007F09098C
:101A70000906003E4151215E007F091929460046B2
:101A8000494949310001017F0101003F4040403F89
:101A9000001F2040201F003F4038403F00631408D3
:101AA00014630007087008070061514945430000AE
:101AB0007F41410000552A552A55000041417F00D1
:101AC00000040201020400404040404000000102C6
:101AD0000400002054545478007F484444380038AF
:101AE0004444442000384444487F00385454541837
:101AF00000087E0901020018A4A4A47C007F080449
:101B000004780000447D4000004080847D00007F18
:101B1000102844000000417F4000007C0418047835
:101B2000007C0804047800384444443800FC242431
:101B300024180018242418FC007C08040408004819
:101B40005454542000043F444020003C4040207C3A
:101B5000001C2040201C003C4030403C0044281029
:101B60002844001CA0A0A07C004464544C441414DD
:101B70001414141400000000000000000000000015
:101B800000000000000000F800000000000000332A
:101B90003000000000100C06100C060000000000D1
:101BA0000000000040C07840C0784000043F0404BA
:101BB0003F040400007088FC08300000001820FF7B
:101BC000211E0000F008F000E018000000211C03B6
:101BD0001E211E0000F00888700000001E21232432
:101BE0001927211010160E00000000000000000050
:101BF00000000000000000E01804020000000007E0
:101C00001820400000020418E000000000402018E6
:101C100007000000404080F0804040000202010FB9
:101C200001020200000000F0000000000101011F9D
:101C300001010100000000000000000080B0700001
:101C40000000000000000000000000000001010191
:101C50000101010100000000000000000030300020
:101C600000000000000000008060180400601806FA
:101C70000100000000E010080810E000000F102034
:101C800020100F00001010F8000000000020203F7E
:101C90002020000000700808088870000030282408
:101CA00022213000003008888848300000182020A9
:101CB00020110E000000C02010F8000000070424CE
:101CC000243F240000F80888880808000019212013
:101CD00020110E0000E0108888180000000F11206D
:101CE00020110E0000380808C83808000000003F26
:101CF000000000000070880808887000001C222185
:101D000021221C0000E010080810E0000000312231
:101D100022110F00000000C0C000000000000030D1
:101D20003000000000000080000000000000806023
:101D300000000000000080402010080000010204A4
:101D4000081020004040404040404000040404048B
:101D50000404040000081020408000000020100847
:101D600004020100007048080808F000000000307C
:101D700036010000C030C828E810E000071827240A
:101D800023140B000000C038E0000000203C2302B8
:101D90000227382008F8888888700000203F20201B
:101DA00020110E00C030080808083800071820204D
:101DB0002010080008F808080810E000203F202044
:101DC00020100F0008F88888E8081000203F202025
:101DD0002320180008F88888E8081000203F200019
:101DE00003000000C0300808083800000718202051
:101DF000221E020008F808000008F808203F210110
:101E000001213F20000808F8080800000020203FBA
:101E10002020000000000808F8080800C08080802A
:101E20007F00000008F888C028180800203F200123
:101E30002638200008F8080000000000203F20207D
:101E40002020300008F8F800F8F80800203F003F94
:101E5000003F200008F830C00008F808203F2000AC
:101E600007183F00E01008080810E0000F102020BD
:101E700020100F0008F808080808F000203F210192
:101E800001010000E01008080810E0000F182424E9
:101E900038504F0008F8888888887000203F20005C
:101EA000030C302000708808080838000038202112
:101EB00021221C00180808F8080818000000203F1C
:101EC0002000000008F808000008F808001F202083
:101ED00020201F000878880000C838080000073854
:101EE0000E010000F80800F80008F800033C0700A5
:101EF000073C0300081868808068180820302C030D
:101F0000032C30200838C800C83808000000203FE3
:101F10002000000010080808C838080020382621D2
:101F200020201800000000FE020202000000007FD6
:101F300040404000000C30C00000000000000001E4
:101F40000638C00000020202FE00000000404040CF
:101F50007F000000000004020202040000000000F4
:101F60000000000000000000000000008080808071
:101F70008080808000020204000000000000000059
:101F800000000000000080808080000000192422F2
:101F900022223F2008F8008080000000003F11202E
:101FA00020110E000000008080800000000E112033
:101FB00020201100000000808088F800000E112011
:101FC00020103F200000808080800000001F22221F
:101FD00022221300008080F0888888180020203F8B
:101FE000202000000000808080808000006B94949E
:101FF0009493600008F8008080800000203F21005A
:1020000000203F2000809898000000000020203F22
:1020100020200000000000809898000000C0808010
:10202000807F000008F8000080808000203F2402AC
:102030002D302000000808F8000000000020203F9C
:10204000202000008080808080808000203F200051
:102050003F20003F8080008080800000203F2100E2
:1020600000203F200000808080800000001F202092
:1020700020201F00808000808000000080FFA120C1
:1020800020110E000000008080808000000E1120D2
:1020900020A0FF80808080008080800020203F2161
:1020A0002000010000008080808080000033242414
:1020B00024241900008080E0808000000000001FC0
:1020C000202000008080000000808000001F202071
:1020D00020103F20808080000080808000010E3032
:1020E0000806010080800080008080800F300C0393
:1020F0000C300F0000808000808080000020312E96
:102100000E312000808080000080808080818E7071
:102110001806010000808080808080000021302C23
:102120002221300000000000807C0202000000003C
:10213000003F404000000000FF00000000000000E1
:10214000FF0000000002027C800000000040403FD1
:10215000000000000006010102020404000000006B
:10216000000000000000F010101010FF1010101000
:10217000F00000000000000000000000000000006F
:102180000000000000000F04040404FF0404040421
:102190000F00000000000000000000000000000030
:1021A0000000000000FE0212929292F292929212AD
:1021B00002FE00000000000000000000000000001F
:1021C0000000000000FF40484848484F484A4C483B
:1021D00040FF0000000000000000000000000000C0
:1021E0000000000020242424FE23222020FF20229F
:1021F0002CA02000000000000000000000000000F3
:1022000000000000000848847F02414020130C14A5
:102210002241F80000000000000000000000000063
:102220000000000080642C342424EC322222322E60
:1022300023A2600000000000000000000000000079
:10224000000000000041219189874D552525554DFD
:1022500081808000000000000000000000000000FD
:1022600000000000008060F8074020180F08C80830
:102270000828180000000000000000000000000016
:1022800000000000010000FF00100C0340807F00F0
:10229000010618000000000000000000000000001F
:1022A0000000000000FC0404FC00C2BA828282FE2E
:1022B000828280000000000000000000000000009A
:1022C00000000000000F04040F2010080442817F6A
:1022D00000000000000000000000000000000000FE
:1022E000000000000423000800000020140000008B
:1022F0006C01000818230008140000209406000058
:10230000880100080000000001000000100000002B
:08231000000000000024F400AD
:0400000508000131BD
:00000001FF
