:020000040800F2
:100000008009002005010008A30E0008BF0D0008AC
:10001000A10E0008DD0300083510000800000000F4
:10002000000000000000000000000000A70E000813
:10003000DF03000800000000A50E0008A90E00085C
:100040001F0100081F0100081F0100081F01000810
:100050001F0100081F0100081F0100081F01000800
:100060001F0100081F0100081F0100081F010008F0
:100070001F0100081F0100081F0100081F010008E0
:100080001F0100081F0100081F0100081F010008D0
:100090001F0100081F0100081F0100081F010008C0
:1000A0001F0100081F0100081F0100081F010008B0
:1000B0001F0100081F0100081F0100081F010008A0
:1000C0001F0100081F0100081F0100081F01000890
:1000D0001F0100081F0100081F0100081F01000880
:1000E0001F0100081F0100081F010008DFF810D0E1
:1000F00000F062F9004800472D120008AFF30080BD
:10010000800900200648804706480047FEE7FEE7D2
:10011000FEE7FEE7FEE7FEE7FEE7FEE7FEE7FEE7B7
:10012000030F0008ED000008202A04DB203A21FA22
:1001300002F00021704721FA02F3D040C2F1200200
:100140009140084319467047D2B201E000F8012BF4
:10015000491EFBD270470022F6E710B513460A4647
:1001600004461946FFF7F0FF204610BD2DE9FE4F6B
:10017000804681EA0300C00F0C46009021F0004148
:1001800023F00045B8EB0200A94105D240462146C4
:1001900090461C460B46024623F00040104347D0D1
:1001A000270DC7F30A00C3F30A510290401A0190C9
:1001B00040286BDAC3F3130040F4801B009892468A
:1001C00020B10023D2EB030A63EB0B0B01985946D5
:1001D000C0F14002504600F070F806460D46504609
:1001E0005946019A00F078F810EB080061410024AC
:1001F00087EA115284EAE7731A4340D0009A62B347
:10020000019A012A4FEA075215DC001B61EB02013B
:100210004FF0004202EA0752CDE90042001C41F5CE
:10022000801132462B4600F078F803B0BDE8F08F1D
:1002300040462146F9E7001B61EB0201001C41F535
:10024000801300185B412018A2F5001747EB03014B
:1002500040EAD570B6196D4111E06D084FEA3606D7
:1002600045EAC0754FEA0752001B61EB0201001C12
:1002700041F5801149084FEA3000001951413246DA
:100280002B4603B0BDE8F04F00F038B800980122CB
:1002900040000023D0EB020263EBE073009821469C
:1002A0004FEAE074B8EB000061EB0401E9E783F08A
:1002B00000435BE781F0004158E7202A04DB203A45
:1002C00000FA02F1002070479140C2F1200320FAA9
:1002D00003F3194390407047202A06DBCB17203ADE
:1002E00041FA02F043EAE07306E041FA02F3D0403B
:1002F000C2F12002914008431946704710B5141E00
:1003000073F1000408DA401C41F1000192185B41CE
:100310001A4301D120F0010010BD2DE9F04D9246A5
:100320009B4611B1B1FA81F202E0B0FA80F22032BC
:100330009046FFF7C2FF04460F4640EA0A0041EA32
:100340000B0153465A46084313D0114653EA0100A5
:1003500019D0C8F140025046FFF7E6FE05460E46AA
:10036000504659464246FFF7A8FF084305D00120F2
:1003700004E020463946BDE8F08D0020054346EAFA
:10038000E0762C4337430A986305E40AA0EB0800A3
:100390000022FD0A44EA47540A3002D500200146F3
:1003A000E9E7010510196941DDE9084500196941CE
:1003B000BDE8F04DA2E70000064C074D06E0E068FE
:1003C00040F0010394E8070098471034AC42F6D39C
:1003D000FFF790FE1813000838130008FEE7704777
:1003E00072B6FEE770B5044600F004F90546601CDD
:1003F00002D004480078044400F0FCF8401BA042FE
:10040000FAD370BD040000202DE9F84FDFF8B89151
:100410000024A9F1040B23460F2709F1040AABF1CC
:10042000040EC9E00125A5402A40AA427DD1674EAD
:10043000D1F804C0ACEB0608B44532D014DCBCF1F2
:10044000030F3AD009DCBCF1000F2AD0BCF1010F38
:100450001CD0BCF1020F31D11DE0BCF1110F17D03F
:10046000BCF1120F2AD119E0B8F5881F19D006DCAB
:10047000B8F5803F15D0B8F5801F1FD111E0B8F551
:10048000001F0ED0B8F5041F18D10AE0CB6815E0A4
:10049000CB681B1D12E0CB6808330FE0CB680C3330
:1004A0000CE08B682BB1012B4FF0080303D04561A2
:1004B00004E0042302E0056100E00023FF2A01D8E4
:1004C000064601E000F104064FEA840501D9A5F1D2
:1004D0002005D6F8008007FA05FC28EA0C0803FA84
:1004E00005F548EA0508C6F800804D68ED0062D5BC
:1004F000374DAE6946F00106AE61AD6924F00306E2
:1005000005F001050095334D06EB050CDCF80850AD
:10051000A607360F07FA06F825EA0805DFF8B880BF
:10052000404503D14FF0000817E044E0DFF8AC800D
:10053000404502D14FF001080FE0DFF8A4804045AC
:1005400002D14FF0020808E0DFF89880404502D160
:100550004FF0030801E04FF0040808FA06F848EAF3
:100560000508CCF808804D68D9F80060ED024D46CA
:1005700001D5164300E096432E604D68DAF800601E
:10058000AD02554601D5164300E096432E604D68F6
:10059000DBF80060AD035D4601D5164300E09643ED
:1005A0002E604D68DEF80060ED03754601D51643F8
:1005B00000E096432E60641C0D682A46E5407FF4F7
:1005C00031AFBDE8F88F00000804014000001110B1
:1005D000001002400000014000080140000C0140F2
:1005E00000100140001401400AB101617047090484
:1005F000FBE700000148806870470000040000200D
:10060000024881680278114481607047040000202C
:10061000074810B5016841F010010160032000F0A7
:1006200067F80F2000F006F800F024F8002010BD55
:100630000020024070B50D4D04464FF47A712878C1
:10064000B1FBF0F00A490968B1FBF0F000F0CEFA16
:1006500048B9102C07D200222146501E00F028F87D
:1006600000206C6070BD012070BD000004000020FF
:10067000100000200C4808B5816941F0010181613A
:10068000816901F001010091C16941F08051C161AE
:10069000C06900F0805000900448416821F0E0619A
:1006A00041F00071416008BD0010024000000140AF
:1006B000F0B40E4B1B680C46C3F30223C3F10705CD
:1006C000042D00D90425191D072901D2002300E0BB
:1006D000DB1E012606FA05F1491E214099409E4085
:1006E000761E16403143F0BC00F0ECBC0CED00E08F
:1006F000064900F0070208684FF6FF03184040EA79
:100700000220034A10430860704700000CED00E02F
:100710000000FA052DE9F0470F46050061D0434E71
:10072000306800F00700B84209D2306820F00700B6
:1007300038433060306800F00700B84251D1286873
:100740003B4C810712D5400703D5606840F4E06058
:1007500060602878000703D5606840F460506060EE
:100760006068A96820F0F000084360602878C0073E
:1007700028D06868012810D02168022810D0890785
:1007800000292EDA616821F0030101436160FFF75F
:1007900031FF804641F288390DE021688903EFE797
:1007A0008901EDE7FFF726FFA0EB0801494502D9D3
:1007B0000320BDE8F0876068696800F00C00B0EBCA
:1007C000810FEFD1306800F00700B8420BD93068D4
:1007D00020F0070038433060306800F00700B8426E
:1007E00001D00120E5E72878400705D56068E96871
:1007F00020F4E060084360602878000706D5606850
:10080000296920F4605040EAC100606000F038F8C7
:100810006168084AC1F30311515CC8400649086089
:1008200006480068FFF706FF0020C2E700200240EC
:1008300000100240FE1200081000002008000020F6
:100840000448054900684968044AC1F30221515C23
:10085000C840704710000020001002400E1300082E
:100860000448054900684968044AC1F3C221515C43
:10087000C840704710000020001002400E1300080E
:100880000E4A51680E4801F00C03042B11D0082BBE
:100890000FD10C48C1F38343C903C05C0AD551682A
:1008A000084AC1F34041921E515C054A5043B0FBD7
:1008B000F1F07047044948437047000000100240BF
:1008C00000127A00EE12000800093D002DE9F84FF1
:1008D000040070D02078C04DC00749D06868C0F3CC
:1008E0008100012807D06868C0F38100022809D17F
:1008F0006868C00306D52868800339D56068002879
:10090000E7D035E06068B0F5803F0BD010B1B0F5AE
:10091000A02F11D0286820F480302860286820F4A7
:10092000802002E0286840F480302860606890B140
:10093000FFF760FE06460AE0286840F48020286041
:10094000F0E700BFFFF756FE801B642873D82868C5
:100950008003F7D50CE0FFF74DFE064605E000BF2B
:10096000FFF748FE801B6428F0D828688003F7D47E
:1009700020789A4E80074FF001094FF0000839D5D2
:10098000686810F00C0F07D06868C0F38100022877
:1009900009D16868C00306D42868800714D5206987
:1009A000012808D110E02069B0B1C6F80090FFF727
:1009B00021FE074605E00AE1FFF71CFEC01B0228E6
:1009C000C4D828688007F7D52868616920F0F80046
:1009D00040EAC10028600DE0C6F80080FFF70AFE7B
:1009E000074604E0FFF706FEC01B022823D828684C
:1009F0008007F7D4207800072CD57948A169D9B1B0
:100A0000C0F80090FFF7F6FD074604E0FFF7F2FD9F
:100A1000C01B02280FD8686A8007F7D571484FF4C9
:100A2000FA510068B0FBF1F0009000BF0098411E41
:100A30000091FAD20EE080E0C0F80080FFF7DAFD06
:100A4000074604E0FFF7D6FDC01B022875D8686A88
:100A50008007F7D42078400760D5E8690027C000F8
:100A600008D4E86940F08050E861E869012700F0A7
:100A7000805000905C480168C90513D40168834622
:100A800041F480710160FFF7B5FD824606E000BFCA
:100A9000FFF7B0FDA0EB0A0064284ED8DBF8000099
:100AA000C005F5D5E06801280AD008B1052813D0A3
:100AB000286A20F001002862286A20F0040002E081
:100AC000286A40F001002862E06841F2883B98B152
:100AD000FFF790FD82460BE0286A40F00400286290
:100AE000EEE700BFFFF786FDA0EB0A0159455AD893
:100AF000286A8007F6D50CE0FFF77CFD824605E00A
:100B0000FFF778FDA0EB0A0159454CD8286A800709
:100B1000F6D41FB1E86920F08050E861E06988B33D
:100B20006968C1F38101022944D00228C6F86080B7
:100B300004D0FFF75FFD044638E034E0FFF75AFDCC
:100B4000074604E0FFF756FDC01B02282BD8286893
:100B50008001F7D4206AB0F5803F05D16868A168AC
:100B600020F4003008436860D4E90801084369684C
:100B700021F4741108436860C6F86090FFF73AFDED
:100B8000044606E025E000BFFFF734FD001B022805
:100B900009D828688001F7D51BE000BFFFF72AFDC0
:100BA000001B022802D90320BDE8F88F28688001C5
:100BB000F4D40EE00128F7D06868226A00F480318E
:100BC000914204D1616A00F47010884201D0012082
:100BD000EAE70020E8E7000000100240000042427F
:100BE00080044242100000200070004010B5401EFA
:100BF000B0F1807F01D3012010BD4FF0E02460618F
:100C00000F21601700F05EFA0020A061072020612C
:100C1000002010BD70B5040004D094F841000025F8
:100C200010B106E0012070BD84F84050204600F06D
:100C300023F8242084F841002068C16821F4005181
:100C4000C160204600F05EF92068016921F49041FE
:100C500001612068416921F02A0141612068C16871
:100C600041F40051C1606564202084F8410084F89B
:100C700042006563002070BD70B586B0002400940A
:100C8000019402940394234E036823490220032213
:100C9000224DB34219D18B6943F480438B618B6938
:100CA00003F4804304938B6943F004038B618969E7
:100CB000039201F0040104910102CDE9001069469C
:100CC0002846FFF7A1FB28151BE0154EB3421FD1A4
:100CD000CB6943F40033CB61CB6903F40033049355
:100CE0008B6943F004038B618969039201F004016D
:100CF00004910421CDE9001069462846FFF784FBE2
:100D00000820CDE90004694628460294FFF77CFBE1
:100D100006B070BD003801400010024000080140DC
:100D2000004400402DE9F843044690F841001F4676
:100D300016460D46202802D00220BDE8F8837DB17A
:100D400076B100206064212084F84100FFF752FC56
:100D5000A6848046E684A068B0F5805F02D003E0F8
:100D60000120EAE7206910B12E4600250EE000269A
:100D70000CE08021204600F021F9A0B9AEB116F8B0
:100D8000010B21684860E08C401EE084E08C434603
:100D90004FF0000200970028EBD14FF040012046B1
:100DA00000F00CF930B10320C7E735F8020BC0F3AF
:100DB0000800E6E7202084F841000020BDE7FEE7B8
:100DC00070B586B0002418480094019402940394EE
:100DD000816941F010018161816901F01001049184
:100DE000816941F020018161816901F02001049154
:100DF000816941F00401816180690C4E00F00400BA
:100E00004FF400550490002229463046FFF7ECFBD2
:100E100001200095CDE90104022003906946304687
:100E2000FFF7F2FA06B070BD00100240001001405A
:100E30000C4810B50A4901604FF4E13141600021CE
:100E400081600C22C160C0E904128161C161FFF7B9
:100E5000E1FE002803D0BDE81040FFF7C1BA10BD85
:100E600000380140600000200C4810B50A490160BC
:100E70004FF4E1314160002181600C22C160C0E982
:100E800004128161C161FFF7C5FE002803D0BDE8EF
:100E90001040FFF7A5BA10BD00440040A800002094
:100EA000FEE7FEE770477047FFF7AABB30B58FB08B
:100EB00028216846FFF74FF914210AA8FFF74BF9DC
:100EC0000121080400240491CDE90010CDE90804B3
:100ED0000294022507956846FFF7F8FC08B172B640
:100EE000FEE70F200A90CDE90B540D9400210AA8CB
:100EF0000E94FFF70FFC002801D072B6FEE70FB08A
:100F000030BD704770B5044600680169E26821F49D
:100F10004051114301612169A06808436169084398
:100F20002168CA6841F20C639A430243CA60206890
:100F30004169A26921F44071114341611E49206851
:100F4000884202D1FFF78CFC01E0FFF779FC00EB4F
:100F5000C00101EB0012606864218000B2FBF0F375
:100F6000B3FBF1F36FF018067343B2FBF0F5B2FB7D
:100F7000F0F605EB8305322303EB0515B5FBF1F520
:100F8000B6FBF1F605F0F00505EB0615B2FBF0F641
:100F9000B2FBF0F0B0FBF1F06FF01802504306EB3B
:100FA000800003EB0010B0FBF1F0216800F00F00AF
:100FB0002844886070BD0000003801402DE9F041F0
:100FC000984617460E460446069D27E0681C25D025
:100FD0002DB1FFF70FFBA0EB0800A8421ED9206837
:100FE0000C3050E8001F21F4D07140E80012002AB4
:100FF000F5D12068143050E8001F21F0010140E8CD
:101000000012002AF5D1202084F8410084F8420023
:10101000002084F840000320BDE8F08120680068CB
:1010200036EA000004D00020B842CFD00020F3E719
:101030000120F9E7FEE70000042907D201EBC10215
:1010400002EB8111024A42F821007047FEE70000DE
:10105000F0000020042831D200EBC00101EB801227
:10106000174951F8220048B101EB820190F8423053
:101070000122091D202B04D0022070474FF0FF30C1
:101080007047C9B10023036381628285C2854364CE
:10109000222180F842100168CA6842F48072CA6056
:1010A00001684A6942F001024A610068C16841F082
:1010B0002001C1600020704701207047FEE700005A
:1010C000F00000200907090E002804DB00F1E020F1
:1010D00080F80014704700F00F0000F1E02080F865
:1010E000141D704702E008C8121F08C1002AFAD177
:1010F00070477047002001E001C1121F002AFBD198
:10110000704700002DE9F04788B01646DDE9107AF7
:101110000A468046042834D200EBC00101EB881057
:101120002B492C4B01EB8000FE218DF800108DF82F
:10113000017090F81C118DF802101C788DF8034096
:101140005B788DF80430491C8DF8052080F81C115F
:101150004FF6FF70ADF8180004250DF1010400BF33
:1011600014F8010B06A900F053F86D1EADB2F7D2CA
:10117000BDF81800ADF810000DF110093C463546D9
:1011800005E0FEE715F8010B494600F041F8641E42
:10119000A4B2F7D204A9504600F03AF8BDF8100006
:1011A0008DF81400000A8DF81500062269464046A5
:1011B00000F012F83A463146404600F00DF802229F
:1011C00005A9404600F008F808B0BDE8F087000027
:1011D000F0000020000000202DE9F0410D461446EB
:1011E000042812D200EBC001084F01EB80164FF02B
:1011F000FF3800BF57F82600434622462946FFF72E
:1012000091FD0228F6D0BDE8F081FEE7F000002055
:101210000A88504080EA0010C0B2120A82EA002216
:1012200082EAC00282EA1010088070471CB5FFF7FE
:10123000EFF9FFF73BFEFFF7C3FDFFF7F9FDFFF7FF
:1012400013FE00212448FFF7F7FE0020FFF702FFFE
:10125000224DDFF88CA0DFF88CB0F12605F11804E0
:101260000C274FF064084FF01809E8880022401C52
:10127000E88028895346801C28816889801E6881FF
:10128000D4E90401FEF772FFC4E90401D4E90001C6
:1012900000225B46FEF76AFFC4E90001D4E90201BF
:1012A0000022114BFEF762FFC4E90201CDE900768E
:1012B00000200A4A0C230221FFF724FF074ACDE948
:1012C00000980020183218230121FFF71BFF64202B
:1012D000FFF788F8C9E70000600000201800002030
:1012E0000000F0BF0000E03F0000E0BF0102020389
:1012F0000405060708090A0B0C0D0E0F101000005C
:1013000000000000000001020304060708090000B5
:101310000000010203040000381300080000002050
:1013200014000000E41000084C1300081400002012
:101330006C090000F4100008010100000100000029
:0C13400010000000000000000024F40079
:04000005080000ED02
:00000001FF
