:020000040800F2
:1000000000C00020610400084504000847040008FF
:10001000490400084B0400084D04000800000000DB
:100020000000000000000000000000004F04000875
:1000300051040008000000005304000855040008A3
:10004000A9040008A9040008A9040008A9040008DC
:10005000A9040008A9040008A9040008A9040008CC
:10006000A9040008A9040008A9040008A9040008BC
:10007000A9040008A9040008A9040008A9040008AC
:10008000A9040008A9040008A9040008A90400089C
:10009000A9040008A9040008A9040008A90400088C
:1000A000A9040008A9040008A9040008A90400087C
:1000B000A9040008A9040008A9040008A90400086C
:1000C000A9040008A9040008A9040008A90400085C
:1000D000A9040008A9040008A9040008A90400084C
:1000E000A9040008A9040008A9040008A90400083C
:1000F000A9040008A9040008A9040008A90400082C
:10010000A9040008A9040008A9040008A90400081B
:10011000A9040008A9040008A9040008A90400080B
:10012000A9040008A9040008A9040008A9040008FB
:1001300000000000000000000000000000000000BF
:1001400000000000000000000000000000000000AF
:10015000000000000000000000000000000000009F
:10016000000000000000000000000000000000008F
:10017000000000000000000000000000000000007F
:10018000000000000000000000000000000000006F
:10019000000000000000000000000000000000005F
:1001A000000000000000000000000000000000004F
:1001B000000000000000000000000000000000003F
:1001C000000000000000000000000000000000002F
:1001D000000000000000000000000000000000001F
:0401E0005FF8E0F1F3
:1001E40010B5054C237833B9044B13B10448AFF36D
:1001F40000800123237010BD3C0400200000000097
:10020400880F000808B5034B1BB103490348AFF33B
:10021400008008BD0000000040040020880F000892
:100224002DE9F04F89B000240494059406940794B2
:10023400454B9A6942F020029A619A6902F02002C1
:100244000092009A9A6942F004029A619A6902F053
:1002540004020192019A9A6942F010029A619A6921
:1002640002F010020292029A9A6942F008029A611C
:100274009B6903F008030393039BDFF8D4802246B1
:100284004FF4E061404600F0E5FA304F22464FF467
:100294008071384600F0DEFADFF8B8B02246042157
:1002A400584600F0D7FADFF8B09022464FF4C071F8
:1002B400484600F0CFFA012504950594069504A953
:1002C400384600F0ABF920230493059402260696E1
:1002D40004A9404600F0A2F94FF4E06304930595A5
:1002E40006944FF0030ACDF81CA004A9404600F080
:1002F40095F94FF48073049305950694079604A921
:10030400384600F08BF94FF40043049305940696A5
:1003140004A9384600F082F9042304930595069451
:10032400079604A9584600F079F94FF4C073049372
:1003340005950694CDF81CA004A9484600F06EF972
:1003440009B0BDE8F08F00BF001002400008014072
:100354000010014000140140000C014072B6FEE799
:1003640000B591B0002309930B930C93019302936E
:10037400039304930593012106914FF4803207926D
:1003840008930A9102230D930E924FF4E0130F93F6
:1003940006A800F07BFA80B90F2301930221029191
:1003A400002303934FF480620492059301A800F0A4
:1003B4009FFC20B911B05DF804FBFFF7CFFFFFF7F6
:1003C400CDFF000008B500F095F8FFF7C9FFFFF76F
:1003D40027FF094C00220421204600F03BFAC820E4
:1003E40000F0ACF801220421204600F033FAC820C2
:1003F40000F0A4F8EDE700BF0014014082B00E4BFA
:100404009A6942F001029A619A6902F0010200922B
:10041400009ADA6942F08052DA61DB6903F08053B2
:100424000193019B054A536823F0E06343F0007392
:10043400536002B0704700BF00100240000001404A
:10044400FEE7FEE7FEE7FEE7FEE77047704770470A
:1004540008B500F061F808BD70470000FFF7FCFF25
:100464000B480C490C4A002302E0D458C45004330E
:10047400C4188C42F9D3094A094C002301E01360E3
:100484000432A242FBD300F0E9FCFFF79BFF704764
:10049400000000203C040020D40F00083C0400208D
:1004A40080040020FEE7000010B504460E4B1878C7
:1004B4004FF47A73B3FBF0F30C4A1068B0FBF3F01B
:1004C40000F096F868B90F2C01D901200AE0002247
:1004D40021464FF0FF3000F057F8054B1C60002018
:1004E40000E0012010BD00BF040000200000002037
:1004F4000800002008B5074A136843F0100313608E
:10050400032000F02FF80F20FFF7CEFFFFF776FF50
:10051400002008BD00200240034A1168034B1B78E9
:100524000B441360704700BF5804002004000020EF
:10053400014B1868704700BF5804002038B50446C2
:10054400FFF7F6FF0546B4F1FF3F02D0044B1B78DA
:100554001C44FFF7EDFF401BA042FAD338BD00BF97
:1005640004000020074AD36823F4E0631B041B0C37
:10057400000200F4E060034343F0BF6343F400333C
:10058400D360704700ED00E030B4174BDB68C3F371
:100594000223C3F10704042C28BF04241D1D062DC7
:1005A40018D9033B4FF0FF3505FA04F421EA04019E
:1005B400994005FA03F322EA0303194300280BDBED
:1005C4000901C9B200F1604000F5614080F80013F0
:1005D40030BC70470023E5E700F00F000901C9B201
:1005E400024B1954F4E700BF00ED00E014ED00E005
:1005F4000138B0F1807F0AD2064B5860064AF021D8
:1006040082F823100020986007221A6070470120A6
:10061400704700BF10E000E000ED00E0F0B482B0ED
:1006240000252C46ABE0854FBB4210D007D9844F40
:10063400BB420CD007F58037BB4208D013E0A7F5C6
:100644008017BB4203D007F57027BB4207D18B68E4
:10065400002B60D0012B59D04261082503E0A7F597
:100664008017BB42F3D0FF2E57D88446FF2E57D8AD
:10067400A200DCF800300F27974023EA070305FAAD
:1006840002F21343CCF800304B6813F0805F75D04E
:100694006C4B9A6942F001029A619B6903F0010371
:1006A4000193019BA208971C674B53F827C004F0E1
:1006B40003039F000F23BB402CEA030C634B9842B7
:1006C40034D003F58063984200F0948003F580638E
:1006D400984200F0918003F58063984200F08E8088
:1006E40003F58063984200F08B8003F580639842A1
:1006F4001AD006231BE0CD68B5E7CD680435B2E710
:10070400CD680835AFE7CD680C35ACE70261082544
:10071400A9E70025A7E70425A5E700F1040CA5E750
:10072400A4F108029200A4E7052300E00023BB40E3
:1007340043EA0C030232444F47F822304B6813F467
:10074400801F5FD0424A9368334393604B6813F42D
:10075400001F5DD03E4AD3683343D3604B6813F423
:10076400003F5BD03A4A5368334353604B6813F4F9
:10077400803F59D0364A13681E43166001340B6813
:1007840033FA04F256D00122A24003EA020632EA06
:100794000303F3D14B68122B3FF645AF122B3FF600
:1007A40062AF01A757F823F053060008FB060008C0
:1007B40005070008170700086B0600086B06000809
:1007C4006B0600086B0600086B0600086B06000841
:1007D4006B0600086B0600086B0600086B06000831
:1007E4006B0600086B0600086B060008FF0600088D
:1007F4000B07000801239AE7022398E7032396E7EF
:10080400042394E7124A936823EA060393609DE75E
:100814000F4AD36823EA0603D3609FE70C4A536860
:1008240023EA06035360A1E7094A136823EA06068C
:100834001660A3E702B0F0BC704700BF00002210AE
:100844000000311000100240000001400008014087
:10085400000401400AB10161704709040161704755
:1008640082B0084B1B68084AA2FB03235B0A00FB07
:1008740003F3019300BF019B5A1E0192002BF9D18F
:1008840002B0704700000020D34D6210002800F031
:10089400F18170B582B00446036813F0010F2CD0C7
:1008A400AA4B5B6803F00C03042B1DD0A74B5B68B9
:1008B40003F00C03082B12D06368B3F5803F41D0DA
:1008C400002B55D103F1804303F504331A6822F455
:1008D40080321A601A6822F480221A6037E09B4B37
:1008E4005B6813F4803FE7D0984B1B6813F4003F18
:1008F40003D06368002B00F0BF81236813F0020F5C
:1009040075D0924B5B6813F00C0F5FD08F4B5B6814
:1009140003F00C03082B54D02369002B00F08980CA
:100924008B4B01221A60FFF703FE0546874B1B68B9
:1009340013F0020F74D1FFF7FBFD401B0228F5D919
:1009440003209EE1814A136843F480331360636893
:1009540043B3FFF7EDFD05467C4B1B6813F4003FE2
:10096400CBD1FFF7E5FD401B6428F5D9032088E1CE
:10097400B3F5A02F09D0754B1A6822F480321A609F
:100984001A6822F480221A60E1E703F18043A3F598
:100994003C331A6842F480221A601A6842F48032A6
:1009A4001A60D4E7FFF7C4FD0546684B1B6813F4CF
:1009B400003FA2D0FFF7BCFD401B6428F5D90320FB
:1009C4005FE1624B5B6813F4803FA5D15F4B1B680A
:1009D40013F0020F03D02369012B40F04F815B4ACF
:1009E400136823F0F803616943EAC10313602368C1
:1009F40013F0080F32D0A369002B45D0554B0122C8
:100A04001A60FFF795FD0546504B5B6A13F0020F21
:100A140021D1FFF78DFD401B0228F5D9032030E1D9
:100A24004A4A136823F0F803616943EAC103136077
:100A3400DDE7474B00221A60FFF77AFD0546434B7A
:100A44001B6813F0020FD2D0FFF772FD401B02287F
:100A5400F5D9032015E10120FFF702FF236813F005
:100A6400040F00F09780394BDB6913F0805F1DD1D0
:100A7400364BDA6942F08052DA61DB6903F0805365
:100A84000193019B012512E0324B00221A60FFF70B
:100A94004FFD05462D4B5B6A13F0020FDED0FFF7C6
:100AA40047FD401B0228F5D90320EAE000252A4B24
:100AB4001B6813F4807F11D0E368012B22D0002B34
:100AC40038D103F1804303F504331A6A22F001029A
:100AD4001A621A6A22F004021A6218E01E4A1368A3
:100AE40043F480731360FFF723FD06461A4B1B681B
:100AF40013F4807FE0D1FFF71BFD801B6428F5D938
:100B04000320BEE0114A136A43F001031362E36851
:100B140073B3FFF70DFD06460C4B1B6A13F0020F6F
:100B240037D1FFF705FD801B41F288339842F3D992
:100B34000320A6E0052B11D0044B1A6A22F001020F
:100B44001A621A6A22F004021A62E0E700100240F4
:100B54000000424280044242007000404D4B1A6A39
:100B640042F004021A621A6A42F001021A62CEE7E3
:100B7400FFF7DEFC0646474B1B6A13F0020F08D052
:100B8400FFF7D6FC801B41F288339842F3D9032047
:100B940077E0E5B9E369002B72D03E4A526802F06F
:100BA4000C02082A56D0022B17D03B4B00221A60A5
:100BB400FFF7BEFC0446374B1B6813F0007F47D099
:100BC400FFF7B6FC001B0228F5D9032059E0314A8F
:100BD400D36923F08053D361DCE72F4B00221A60E2
:100BE400FFF7A6FC05462B4B1B6813F0007F06D0CD
:100BF400FFF79EFC401B0228F5D9032041E0236A3D
:100C0400B3F5803F1AD023494B6823F47413226A46
:100C1400606A024313434B601F4B01221A60FFF7C3
:100C240087FC04461B4B1B6813F0007F0ED1FFF7B3
:100C34007FFC001B0228F5D9032022E0154A5368E3
:100C440023F40033A1680B435360DCE7002018E071
:100C5400002016E0012B16D00E4B5B6803F48031A4
:100C6400226A914211D103F47013626A93420ED145
:100C7400002006E001207047012002E0012000E08E
:100C8400002002B070BD0120FBE70120F9E701203C
:100C9400F7E700BF00100240600042420F4B5B6860
:100CA40003F00C02082A01D00D487047C3F38342B5
:100CB4000C498A5C13F4803F0BD0084B5B68C3F388
:100CC40040430949CB5C064800FB02F0B0FBF3F05B
:100CD4007047064800FB02F0704700BF0010024056
:100CE40000127A00B00F0008C00F000800093D0090
:100CF400002800F0A08070B50D460446524B1B68D6
:100D040003F007038B420BD24F4A136823F0070307
:100D14000B431360136803F007038B4240F08D808C
:100D2400236813F0020F17D013F0040F04D0474ABE
:100D3400536843F4E0635360236813F0080F04D04E
:100D4400424A536843F460535360404A536823F063
:100D5400F003A1680B435360236813F0010F31D0F3
:100D64006368012B20D0022B25D0384A126812F078
:100D7400020F64D035494A6822F0030213434B60E2
:100D8400FFF7D6FB0646314B5B6803F00C03626841
:100D9400B3EB820F16D0FFF7CBFB801B41F28833F5
:100DA4009842F0D9032045E0284A126812F4003F23
:100DB400E0D101203EE0254A126812F0007FD9D12B
:100DC400012037E0204B1B6803F00703AB420AD92C
:100DD4001D4A136823F007032B431360136803F0C1
:100DE4000703AB422DD1236813F0040F06D0174A32
:100DF400536823F4E063E1680B435360236813F002
:100E0400080F07D0114A536823F46053216943EA59
:100E1400C1035360FFF742FF0C4B5B68C3F303133A
:100E24000B4AD35CD8400B4B18600B4B1868FFF788
:100E34003BFB002070BD012070470120FAE7012030
:100E4400F8E70120F6E700BF00200240001002404E
:100E5400A00F0008000000200800002070B50D4E0F
:100E64000D4D761BB61006D0002455F8043B013412
:100E74009847A642F9D1094E094D00F083F8761B34
:100E8400B61006D0002455F8043B01349847A64216
:100E9400F9D170BDC80F0008C80F0008D00F0008B2
:100EA400C80F0008024B13B1024800F005B87047A0
:100EB40000000000C90E0008002301461A46184627
:100EC40000F01AB838B5084B084D5B1B9C1007D0CE
:100ED400043B1D44013C55F804399847002CF9D1D2
:100EE400BDE8384000F054B8D40F0008D00F000813
:100EF400704700BF704700BF2DE9F047DFF880A0BE
:100F04000646DAF8000098460F469146FFF7F0FFD0
:100F14001A4B1B68D3F8484124B365681F2D26DC9F
:100F24005EB96B1C0235DAF80000636044F8257082
:100F3400FFF7E0FF0020BDE8F087012304EB850103
:100F4400C1F88890D4F88821AB401A43022EC4F823
:100F54008821C1F80881E4D1D4F88C211343C4F862
:100F64008C31DEE703F5A674C3F84841D5E7DAF817
:100F74000000FFF7BFFF4FF0FF30DCE7C40F0008AD
:100F840038040020F8B500BFF8BC08BC9E46704782
:0C0F9400F8B500BFF8BC08BC9E467047D2
:100FA0000000000000000000010203040607080919
:100FB00002030405060708090A0B0C0D0E0F10109A
:080FC0000102000010000020F6
:080FC800A90E0008090200084F
:040FD000E50100082F
:100FD4000024F400010000001000000000000000E4
:100FE40000000000FC02002064030020CC03002069
:100FF40000000000000000000000000000000000ED
:1010040000000000000000000000000000000000DC
:1010140000000000000000000000000000000000CC
:1010240000000000000000000000000000000000BC
:1010340000000000000000000000000000000000AC
:10104400000000000000000000000000000000009C
:10105400000000000000000000000000000000008C
:10106400000000000000000000000000000000007C
:10107400000000000000000000000000000000006C
:10108400000000000000000001000000000000005B
:101094000E33CDAB34126DE6ECDE05000B00000020
:1010A400000000000000000000000000000000003C
:1010B400000000000000000000000000000000002C
:1010C400000000000000000000000000000000001C
:1010D400000000000000000000000000000000000C
:0C14040000000000000000005C0400205C
:04000005080004618A
:00000001FF
