:020000040800F2
:10000000E808002049020008DF2200082D2200082D
:10001000DD220008850D00083D26000800000000D4
:10002000000000000000000000000000E3220008C3
:10003000950D000800000000E1220008E5220008FC
:1000400063020008630200086302000863020008FC
:1000500063020008630200086302000863020008EC
:1000600063020008630200086302000863020008DC
:1000700063020008630200086302000863020008CC
:1000800063020008630200086302000863020008BC
:10009000890D00086302000863020008630200087B
:1000A000630200086302000863020008630200089C
:1000B000630200086302000863020008630200088C
:1000C000630200086302000863020008630200087C
:1000D000630200083126000863020008630200087A
:1000E000630200086302000863020008630200085C
:1000F000630200086302000863020008630200084C
:10010000630200086302000863020008630200083B
:10011000630200086302000863020008630200082B
:10012000630200086302000863020008630200081B
:10013000630200086302000863020008630200080B
:1001400063020008630200086302000863020008FB
:1001500063020008630200086302000863020008EB
:1001600063020008630200086302000863020008DB
:100170006302000863020008630200080000000038
:10018000630200086302000800F002F800F04DF876
:100190000AA090E8000C82448344AAF10107DA45E2
:1001A00001D100F042F8AFF2090EBAE80F0013F0E7
:1001B000010F18BFFB1A43F001031847F425000094
:1001C00014260000103A24BF78C878C1FAD8520724
:1001D00024BF30C830C144BF04680C6070470000C1
:1001E0000023002400250026103A28BF78C1FBD840
:1001F000520728BF30C148BF0B607047642900F028
:10020000FB80002070471FB502F0BAFA9DE803009A
:1002100000F0B8FBAFF30080AFF3008000F0DAF934
:100220001FBD10B500F03FFA10BD00F06FFA114687
:10023000FFF7E9FF02F04AFA00F074FB03B4FFF79E
:10024000F0FF03BC02F020FA094880470948004744
:10025000FEE7FEE7FEE7FEE7FEE7FEE7FEE7FEE776
:10026000FEE7FEE704480549054A064B70470000D3
:100270007D23000889010008E8020020E80800202A
:10028000E8040020E8040020704753EA020C00F064
:1002900069802DE9F04B4FF00006002B1FBFB3FA29
:1002A00083F503FA05F424FA05F65E4012BF1643FF
:1002B000B2FA82F502FA05F4C5F120051EBF22FA52
:1002C00005FC44EA0C04203556EA044C4FEA144479
:1002D00018BF641C4FF000084FF00009904271EB0A
:1002E000030C39D3002919BFB1FA81F701FA07F6D7
:1002F000B0FA80F700FA07F6C7F120071EBF20FA10
:1003000007FC46EA0C062037B6FBF4FCA7EB050712
:10031000103F07F01F0BCBF120060CFA0BFB2CFA59
:1003200006F644BFB3460026202FA4BF5E464FF01A
:10033000000B5BEA060C08BF4FF0010B19EB0B0931
:10034000ABFB027C48EB0608C01B06FB02CC0BFB98
:1003500003CC71EB0C01C1E70B460246414648460F
:10036000BDE8F08B13B54FF000004FF00001AFF384
:100370000080BDE81C4070470FB4044910B503AAC3
:10038000029800F0F9F810BC5DF814FBE0010020C1
:100390002DE9F0410E460446002020622046E16827
:1003A000884730B3252805D0D4E901219047206A39
:1003B000401CF2E7E168204600278847050018D076
:1003C000A5F14100192802D820354FF400673246C4
:1003D000294620462760FFF711FF40B1012804D0CD
:1003E000F61D26F007060836D8E7361DD6E728465C
:1003F000DAE7206ABDE8F0812DE9F04106460024E5
:1004000010687529314616A510D0AFF3008000287A
:1004100002DA404213A507E031688A0701D512A528
:1004200002E0490704D511A5012401E0AFF30080E3
:1004300000210A2206F1240709E0B0FBF2FCB0FB20
:10044000F2F302FB1C00303078541846491C002897
:10045000F3D123462A463046BDE8F04100F033B8D8
:10046000000000002D0000002B0000002000000014
:100470004FF0000200B5134694469646203922BF3D
:10048000A0E80C50A0E80C50B1F12001BFF4F7AF88
:10049000090728BFA0E80C5048BF0CC05DF804EB6A
:1004A000890028BF40F8042B08BF704748BF20F8D8
:1004B000022B11F0804F18BF00F8012B70477047D6
:1004C0007047704770472DE9F0470D4699469246B0
:1004D000044600F124080168880604D5E06921F08B
:1004E0001001216000E00120A84201DD471B00E06F
:1004F0000027A1697A1902EB0900081AA061207887
:10050000C00602D42046AFF30080002608E0D4E9FC
:1005100001211AF806009047206A401C761C2062D0
:100520004E45F4DB2078C0060AD52046AFF30080A4
:1005300006E0D4E9012130209047206A401C206267
:10054000381EA7F10107F4DC07E0D4E9012118F80F
:1005500005009047206A401C2062281EA5F1010575
:10056000F3DC2046AFF300802078000602D502209D
:10057000BDE8F0870120FBE7074B70B50D467B44D3
:1005800000F011F80446284600F020F810B14FF0B2
:10059000FF3070BD204670BD2321000001694A1C58
:1005A00002610878704700B58FB0CDE901310021B4
:1005B000059105497944CDE9031011466846FFF7D6
:1005C000E7FE0FB000BD0000E5FFFFFF007B00F07D
:1005D0008000704710B542485421FFF749FF414859
:1005E0005421FFF745FF40485421FFF741FF3F49A1
:1005F0003B483C4A3F4B08603D490A603A49196014
:10060000531C0365481C1065012008653B48344AAB
:1006100039A1784400F0EAF820B9384878440A381B
:1006200000F089F937482F4A35A1784400F0DEF808
:1006300020B9344878440A3800F07DF932482A4A13
:100640002FA1784400F0D2F820B92F4878440A3816
:1006500000F071F940232248DC000021224600F01E
:10066000A1F820B125487844543800F064F91D48B9
:1006700022464023002100F095F820B1214878441B
:10068000543800F058F9184822461023002100F091
:1006900089F8002806D01C487844BDE81040563838
:1006A00000F049B910BD104870B5006D20F001048C
:1006B0000B4800F011F90B4800F00EF90A4800F061
:1006C0000BF909E0206D20F00105204600F004F947
:1006D000204600F040F82C46002CF3D170BD0000FD
:1006E0008C010020E001002034020020B80000202E
:1006F000BC000020C0000020720000008C2100001F
:10070000770000007821000064210000754600F0A9
:1007100019F9AE4605006946534620F007008546A4
:1007200018B020B5FFF79EFDBDE820404FF0000651
:100730004FF000074FF000084FF0000B21F00701C9
:10074000AC46ACE8C009ACE8C009ACE8C009ACE80C
:10075000C0098D46704770B50446051F00F0F6F8D5
:100760000068002C14BF446870BD002C18BFAC4258
:100770003CBF20466468F8D301680A18AA4218BF33
:10078000456003D12A680546114401602868411973
:10079000A1421CBF6C6070BD61686960216808443B
:1007A000286070BD70B5C468A50713D0650211D468
:1007B000B2F5807F09D0B2F5007F06D0B2F5806F28
:1007C00008D1012300F1240106E05D1E6FF07F4691
:1007D000B54201D3012070BD0161C361416024F4C1
:1007E00070611143C160002070BD00002DE9F0412F
:1007F0000C4607461646104600F06EF82078611C3D
:1008000061280AD0722802D077283CD102E0012565
:10081000002405E00225042402E0082448F2020531
:1008200011F8010B2B2806D0622809D011F8010C11
:1008300074280AD00BE045F0030544F00204EFE70A
:1008400045F0040544F00104EAE744F0100438469A
:10085000214601F01FFF411C15D00021316171605C
:100860004FF40071F560F1617061200704D53046E6
:100870000222002100F0E4F8306D40F00100306504
:100880003046BDE8F0810020FBE72DE9F0410D4640
:100890000646104C206DC10704D0410804D020F05A
:1008A0000104F7E722460EE0542000F09AF8070012
:1008B0000ED0206D47F001010843542120653846D1
:1008C000FFF7D6FD3A4629463046BDE8F0418DE7B0
:1008D0000020D6E78C0100202DE9F04704464FF0B8
:1008E00000094FF0FF37C568D4E90486A80707D090
:1008F000204600F055F9304601F0C4FE002802DA27
:100900003846BDE8F087280502D54046FFF723FFAB
:100910004C212046FFF7ACFD206D20F00100206542
:100920004846EEE710B50446AFF300802046BDE828
:100930001040FFF783BC10B500F07CF9BDE8104013
:1009400000F072B9004870478802002000487047E4
:1009500090020020704770477047704738B50446D2
:100960000A4600206946AFF30080002808BF38BD62
:1009700002460099204600F07EF9012038BD012092
:1009800000F0CDB9F8B5AFF30080054600200C4665
:10099000102000BF0646A819A0420DD9324669466C
:1009A0000020AFF30080070008BF00F0B8F90098FE
:1009B000A04218BF0546C419FFF7C8FF05600746E7
:1009C000F01D20F007004619284600F04DF9B4420A
:1009D00008BFF8BDA21B31463868BDE8F84000F0FA
:1009E0004AB970B50646FFF7B1FF056806F10B007E
:1009F00020F00704B4429CBF002070BD2B466A68FB
:100A0000BAB11068A04210D304F1080188423CBF7B
:100A10005068586007D35168101941601168091B6C
:100A2000016058601460101D70BD13465268002AA2
:100A3000E7D121462846FFF791FF0028DED170BD9F
:100A40002DE9F041044616460D464769007B8007B4
:100A50002ED0384601F01CFE50BB3EB3012E02D012
:100A6000022E25D104E0204600F01FF905441DE0C8
:100A7000384601F00AFEE168002841F01001E1600B
:100A800005DA204600F058F80120BDE8F081C903DE
:100A90000BD56268E16A914200D81146A2691144FF
:100AA0002269891A814200DD08460544002D01DAD9
:100AB0000220EAE7E16A6068E268814206D29103B7
:100AC000E06203D522F4003141F01002A66900274C
:100AD000AE4213DCE16A814201D90B4600E00346D5
:100AE00003EB060C2369ACEB030CAC4506DD81423D
:100AF00001D98C4600E084469C4505D1A76027605B
:100B000042F02000A5620DE0AD1BE669AE1B8142FC
:100B1000A66000D90846C01A281A206058196060DB
:100B200022F0200003490840E060002084F848706B
:100B3000ABE70000BFCFD7FFC16821F4001141F03F
:100B40008001C16000218160016070472DE9F0479C
:100B5000814614460E464FF0FF383248D568576933
:100B6000054209D03846A16901F096FD002811DB45
:100B70002C48C0430540E5602B463246494638467E
:100B800001F08DFDA16920F00042B21A1144002845
:100B9000A16103D02046FFF7CFFF4046BDE8F087B4
:100BA00070B504460569C06A6168884200D8084685
:100BB000E16821F42011E160C90312D5A84208D0F0
:100BC0002246411B2846FFF7C1FF10B14FF0FF300E
:100BD00070BD0020E562C4E90150E06820F4803077
:100BE000E060002070BD10B50446C06820F0200011
:100BF000E060A16AA06988420DD02046FFF7D0FFCF
:100C0000E06820F4405040F01000E060A06AA0616D
:100C10002069E062606044F24001E0688843E0607F
:100C200010BD000010000200002801D001F02CBD12
:100C30007047000010B5014602A000F057F80120EF
:100C400010BD000053494752545245443A20526562
:100C50006469726563743A2063616E2774206F70F3
:100C6000656E3A200000000000210160C0E901101B
:100C7000704710207047034640688C46002818BF14
:100C800088423CBF03464068F8D31868184488423D
:100C900007D00CF1030020F00700001D411A521A82
:100CA0000146081D0A60FFF756BD10B50146C2682F
:100CB000900703D0900607D5886A0AE000F036F85E
:100CC00001210160881E10BD8B69486818440B69BA
:100CD000C01A91F848301BB191F84910401A10BD64
:100CE0001103FCD50028FADD401E10BD70B5054685
:100CF0000C460A2000E06D1C01F0D3FC35B12878C9
:100D00000028F8D102E0641C01F0CBFC14B120787B
:100D10000028F8D1BDE870400A2001F0C2BC10B52F
:100D200000F008F8BDE81040FFF77EBF00487047AC
:100D30008802002010B5012805D0002103A0FFF78C
:100D4000D5FF012010BD09A1F8E700005349475223
:100D5000544D454D3A204F7574206F66206865618B
:100D600070206D656D6F7279000000003A20486553
:100D70006170206D656D6F727920636F727275702E
:100D800074656400FEE70000014800F082B90000CD
:100D9000E0000020704772B6FEE790F82020012A9C
:100DA00007D0022A05D0416A41F480214162012026
:100DB0007047006842690A43426100207047F0B5FD
:100DC00090F820500468A468012D05D0022D03D0AE
:100DD000416A41F480215DE014F0406F01D1E500EB
:100DE00055D5C4F30164022C03D9416A41F40001D2
:100DF00050E00125A5401D608D684FF4C0739DB182
:100E0000CE6835434E6845EAC605066803EB04170D
:100E1000F5514FF4C275076805EB04150E697E5154
:100E2000097D012905D009E00E88CD6845EA4655BF
:100E3000EBE701684E5946F480764E511179D57929
:100E4000567941EA056195792D0445EA062529433D
:100E50004FF4C676056806EB0416A9511178D578CB
:100E600041EA0561957852782D0445EA0222114342
:100E70004FF4C475026805EB04155151006803EB8B
:100E80000411425842F0010242500020F0BD416A74
:100E900041F4001141620120F0BD000010B590F84E
:100EA0002020012A07D0022A05D0416A41F480217E
:100EB0004162012010BD3B48D0F8002242F00102FF
:100EC000C0F80022D0F8002222F47C52C0F80022A0
:100ED000D0F800224B6A42EA0322C0F800220A7DC1
:100EE00002F01F0301229A40D0F81C329343C0F84D
:100EF0001C32CB69B3B9D0F80C329343C0F80C3232
:100F00008C894B6864F31F434C6900EBC404C4F83C
:100F100040320C890B6864F31F434C6900EBC40436
:100F2000C4F84432CB69012B16D1D0F80C321343EC
:100F3000C0F80C320C884B6864F31F434C6900EB1B
:100F4000C404C4F840320C89CB6864F31F434C6975
:100F500000EBC404C4F844328B69002BD0F804328F
:100F60000ED01343C0F804320B69002BD0F81432B2
:100F700008D01343C0F81432096A012904D008E0EC
:100F80009343EFE79343F5E7D0F81C121143C0F801
:100F90001C12D0F8001221F00101C0F8001200204C
:100FA00010BD000000640040704730B590F820404C
:100FB000012C05D0022C03D0416A41F480215DE070
:100FC0000468002955D02469A40754D04FF4D8747C
:100FD000056804EB01142D5915F0040595600568AA
:100FE0002D594ED0ED08556005682C5904F00204C7
:100FF000D4604FF4DA74056804EB01142D5905F040
:101000000F05156105682D59C5F30725956105681C
:101010002C59240C54614FF4DC72046802EB011269
:10102000A4581C700468A458240A5C700468A4586E
:10103000240C9C700468A258120EDA704FF4DE7211
:10104000046802EB0112A4581C710468A458240A15
:101050005C710468A458240C9C710468A258120E98
:10106000DA71006881B1016941F02001016100205D
:1010700030BDE468A8E7416A41F4001141620120F3
:1010800030BD6D0D1560AFE7C16841F02001C16052
:10109000EDE72DE9F05F0546006800244669D0F8C9
:1010A00004908768D0F80CB0D0F810A0D0F8188061
:1010B000F10748D0F90714D001218160B80703D5A2
:1010C000284600F0F2F90CE0780702D54FF40064EE
:1010D00007E0380702D54FF4805402E0284600F0BC
:1010E000E3F9F80516D529684FF480708860B805D3
:1010F00003D5284600F0DBF90CE0780502D544F46E
:10110000005407E0380502D544F4804402E0284644
:1011100000F0CCF9F80316D529684FF480308860C8
:10112000B80303D5284600F0C4F90CE0780302D5D3
:1011300044F4004407E0380302D544F4803402E06C
:10114000284600F0B5F9300707D55FEACB6004D533
:101150002968102044F40074C86070074FF0080735
:1011600007D55FEA0B7004D52868C760284600F0F1
:1011700059F9B00706D52868C068800702D028460C
:1011800000F052F9700607D55FEACA6004D52968F5
:10119000102044F480640861B00607D55FEA0A7045
:1011A00004D528680761284600F04EF9F00606D5F8
:1011B00028680069800702D0284600F046F9B0038D
:1011C00008D55FEAC96005D529681020486028461F
:1011D00000F03CF9F00307D55FEA097004D52868F0
:1011E0004760284600F066F9300446D55FEA49704A
:1011F00040D5F00504D55FEAC87001D044F0010481
:10120000B00504D55FEA887001D544F0020470058A
:1012100004D55FEA487001D544F00404300529D5AF
:1012200018F0700F26D008F07000402815D006DCAA
:10123000102809D020280AD0302816D10AE05028DA
:101240000ED0602811D10EE044F008040DE044F007
:1012500010040AE044F0200407E044F0400404E0F5
:1012600044F0800401E044F480742868816921F02E
:1012700070018161296804204860002C05D0686AEB
:10128000204368622846FFF78FFEBDE8F09F70B5E7
:10129000040003D094F8200010B104E0012070BDD8
:1012A000204600F081F82068016841F001010160EA
:1012B00000F066FA0546052604E000F061FA401BDE
:1012C0000A2811D820684068C007F6D02068016855
:1012D00021F00201016000F053FA05460BE000F036
:1012E0004FFA401B0A2806D9606A40F40030606259
:1012F00084F82060D2E7206840688007EFD4207E21
:101300000128206801683DD021F080010160607EE5
:1013100001282068016838D021F040010160A07EDA
:1013200001282068016833D021F020010160E07EAF
:101330000128206801682ED041F010010160207F53
:1013400001282068016829D021F008010160607F30
:1013500001282068016824D021F004010160D4E94B
:1013600002010843D4E90412114308436168491E8D
:1013700008432168C86100206062012084F82000D1
:10138000002070BD41F08001C0E741F04001C5E799
:1013900041F02001CAE721F01001CFE741F0080138
:1013A000D4E741F00401D9E710B586B00446142112
:1013B0006846FFF75DF818492068884229D1174828
:1013C0000021026842F000720260006800F00070C4
:1013D000059012481038026842F00102026000686D
:1013E00000F0010005904FF4C05000900220CDE9BC
:1013F000010103200390092004906946084800F089
:10140000C7F800221146142000F028FA142000F03A
:1014100017FA06B010BD00000064004040380240DA
:10142000000002407047000010B5054B054A00213E
:10143000FFF7BBFD002801D072B6FEE710BD00002B
:1014400000000020C4000020704770477047000073
:1014500070B5044690F82000012804D0606A40F47A
:101460000020606218E0022084F8200020680168F3
:1014700021F00101016000F083F905460EE000BF94
:1014800000F07EF9401B0A2808D9606A40F4003059
:101490006062052084F82000012070BD206840684B
:1014A000C007EDD1606270BD7047704770477047EC
:1014B0007047704770472DE9F0410446876D00F092
:1014C0005FF9064694F835000025022806D08020F2
:1014D000606584F834500120BDE8F081206801681F
:1014E00021F0160101602068416921F0800141610D
:1014F000206C08B9A06C20B12068016821F00801B7
:1015000001602068016821F0010101600CE000F039
:1015100037F9801B052807D920206065032084F84F
:10152000350084F83450D7E720680068C007EED152
:1015300094F85C103F208840B860012084F83500A2
:1015400084F834500020C7E790F83510022903D002
:101550008021416501207047052180F83510006821
:10156000016821F0010101600020704770B5044658
:1015700000F006F90546601C02D0044800780444D7
:1015800000F0FEF8401BA042FAD370BD0800002016
:101590002DE9F84FDFF8BCA10022012503264FF00A
:1015A0000F090AF1040BAAF1040E00BF0B6805FA3B
:1015B00002F42340A34270D10F7907F00307012FF3
:1015C00001D0022F16D187684FEA420806FA08FCBC
:1015D00027EA0C07D1F80CC00CFA08FC4CEA070CFF
:1015E000C0F808C04768A7430C79C4F300149440BE
:1015F0003C4344600C79E443A4070AD0C4684FEA32
:10160000420C06FA0CF7BC438F6807FA0CF7274325
:10161000C7600C7904F00304022C12D1D40800EB4B
:10162000840CDCF820405707FF0E09FA07F824EA7B
:101630000804D1F8108008FA07F848EA0408CCF842
:10164000208004684FEA420C06FA0CF7BC430F797D
:1016500007F0030707FA0CF7274307604C6814F4F8
:10166000403F70D03C4C276847F48047276024688F
:1016700022F0030704F480440094384C07EB040C78
:10168000DCF8084897074FEA177809FA08F7BC43CF
:10169000334FB84202D1002724E054E0314FB84222
:1016A00001D101271EE0304FB84201D1022719E0D5
:1016B0002E4FB84201D1032714E02D4FB84201D17B
:1016C00004270FE02B4FB84201D105270AE02A4F2B
:1016D000B84201D1062705E0284FB84201D10727BB
:1016E00000E0082707FA08F72743CCF80878DAF86B
:1016F00000405746D1F804C09C435FEACC2C00D58B
:101700001C433C60DBF800405F46D1F804C09C43BA
:101710005FEA8C2C00D51C433C60DEF80040774625
:10172000D1F804C09C435FEA8C3C00D51C433C606C
:10173000084F083F3C68D1F804C09C435FEACC3CAA
:1017400000D51C433C60521C102AFFF42FAFBDE8AB
:10175000F88F0000083C014044380240003001404E
:10176000000002400004024000080240000C024059
:10177000001002400014024000180240001C024009
:101780000148806870470000080000200248816816
:101790000278114481607047080000200B4810B5A2
:1017A000016841F400710160016841F480610160E9
:1017B000016841F480710160032000F06FF80F2090
:1017C00000F006F800F024F8002010BD003C0240B4
:1017D00070B50D4D04464FF47A712878B1FBF0F0E6
:1017E0000A490968B1FBF0F000F00AFB48B9102C77
:1017F00007D200222146501E00F030F800206C6015
:1018000070BD012070BD0000080000201400002001
:101810000A4808B5016841F480410160006800F49D
:10182000804000900548001F016841F08051016030
:10183000006800F08050009008BD0000443802406D
:10184000002809DB00F01F020121914040098000BF
:1018500000F1E020C0F8001170470000F0B40E4B1A
:101860001B680C46C3F30223C3F10705042D00D9FE
:101870000425191D072901D2002300E0DB1E0126E3
:1018800006FA05F1491E214099409E40761E1640F9
:101890003143F0BC00F0E6BE0CED00E0064900F07C
:1018A000070208684FF6FF03184040EA0220034A87
:1018B00010430860704700000CED00E00000FA05DE
:1018C0002DE9F0470E46050065D0DFF81481D8F801
:1018D0000000F7B200F00700B04207D288F80070AD
:1018E000D8F8000000F00700B04254D128683D4C01
:1018F000810712D5400703D5206840F4E0502060EE
:101900002878000703D5206840F4604020602068F4
:10191000A96820F0F000084320602878C0072DD087
:10192000304968680839012812D0022813D00328EA
:1019300011D00968890700292DDA216821F00301F7
:1019400001432160FFF71CFF814641F2883A0EE017
:1019500009688903EFE709688901ECE7FFF710FFE1
:10196000A0EB0901514502D90320BDE8F0872068AA
:10197000696800F00C00B0EB810FEFD1D8F80010CF
:10198000404601F00701B14207D90770006800F036
:101990000700B04201D00120E7E72878400705D5CD
:1019A0002068E96820F4E0500843206028780007A8
:1019B00006D52068296920F4604040EAC100206013
:1019C00000F038F82168084AC1F30311515CC8409F
:1019D0000649086006480068FFF7FAFE0020C4E7E1
:1019E000003C0240083802408A270008140000200A
:1019F0000C0000200448054900680968044AC1F346
:101A00008221515CC8407047140000200838024011
:101A10009A2700080448054900680968044AC1F388
:101A20004231515CC8407047140000200838024021
:101A30009A270008154810B5006810F00C021448E9
:101A400013D04110042A0FD0082A0ED10F4C241FA6
:101A50002268236802F03F025B0207D52068C0F3CA
:101A60008810A0FB010106E0084610BD2168C1F303
:101A70008811A1FB00010023FEF707FC2168C1F3D8
:101A80000141491C4900B0FBF1F010BD083802408B
:101A90000024F4002DE9F84F04006ED02078DFF820
:101AA0004C93C007A9F104054AD009F1040001686C
:101AB000C1F38101012908D00068C0F38100022828
:101AC0000AD1D9F80000400206D52868800337D52E
:101AD00060680028E1D033E06068B0F5803F10D046
:101AE000B0F5A02F286810D020F480302860286836
:101AF00020F4802028606068A8B1FFF741FE064608
:101B00000DE0286840F48030F4E740F4802028603D
:101B1000F7E700BFFFF734FE801B642873D82868FE
:101B20008003F7D50CE0FFF72BFE064605E000BF6B
:101B3000FFF726FE801B6428F0D828688003F7D4BE
:101B40002078DFF8AC8280074FF0000A3ED5A74826
:101B5000001D016811F00C0F08D00068C0F381006F
:101B600002280BD1D9F80000400207D4286880076A
:101B700016D5E068012800D112E033E1E068B8B181
:101B80000120C8F80000FFF7FBFD064605E000BF96
:101B9000FFF7F6FD801B0228C0D828688007F7D51C
:101BA0002868216920F0F80040EAC10028600DE0B3
:101BB000C8F800A0FFF7E4FD064604E0FFF7E0FDEB
:101BC000801B02281FD828688007F7D420780007D8
:101BD00022D5864F87486169703771B10121016054
:101BE000FFF7CEFD064604E0FFF7CAFD801B022882
:101BF00009D838688007F7D50EE0C0F800A0FFF7D5
:101C0000BFFD064605E082E0FFF7BAFD801B022813
:101C10007DD838688007F7D42078400768D5DFF88A
:101C2000CCB100270BF13C0BDBF80000C0000BD45B
:101C3000DBF8001041F08051CBF80010DBF8000019
:101C4000012700F0805000906B4E3068C00510D422
:101C5000306840F480703060FFF792FD009005E03E
:101C6000FFF78EFD0099401A022850D83068C00551
:101C7000F6D55E4EA0686C3601280FD00528306876
:101C800010D020F001003060306820F00400306097
:101C9000A068B8B1FFF774FD00900FE0306840F025
:101CA0000100F4E740F004003060F7E7FFF768FD5B
:101CB0000099411A41F28830814266D83068800725
:101CC000F4D50EE0FFF75CFD009007E0FFF758FD4C
:101CD0000099411A41F28830814256D83068800715
:101CE000F4D42FB1DBF8001021F08051CBF80010B4
:101CF000A069C8B33D49091D0968C1F381010229E2
:101D00004AD00228504607D0C8F8600000E03CE006
:101D1000FFF736FD04463BE04746C8F86000FFF792
:101D20002FFD064605E000BFFFF72AFD801B0228B5
:101D30002BD828688001F7D4D4E907010843A16AA9
:101D40002E4A490802EB0141626A41EA82110843C6
:101D500094F82C1040EA0161C9F80010012038669F
:101D6000FFF70EFD044606E03EE000BFFFF708FD6A
:101D7000001B022809D828688001F7D534E000BF8D
:101D8000FFF7FEFC001B022802D90320BDE8F88FF4
:101D900028688001F4D427E00128F7D0D9F80000A2
:101DA000E26900F4800191421CD1226A00F03F01F7
:101DB000914217D147F6C071626A0140B1EB821FB0
:101DC00010D1A26A4FF0FF3300F4403103EB52020E
:101DD000B1EB024F06D194F82C1000F07060B0EB1C
:101DE000016F01D00120D1E70020CFE70438024085
:101DF00000004742800E4742007000400000FFFF95
:101E000010B5401EB0F1807F01D3012010BD4FF00E
:101E1000E02460610F21601700F024FC0020A06125
:101E200007202061002010BD70477047F8B5016899
:101E300004460868CA684B6910F00F0F4FF00005A0
:101E400059D003F0010602F49077374365D0C107FB
:101E500005D0D10503D5216C41F001012164410772
:101E600005D5D90703D0216C41F002012164810717
:101E700005D5D90703D0216C41F004012164010785
:101E800007D502F02001314303D0216C41F0080155
:101E90002164216C00293AD0800604D5900602D531
:101EA000204600F0A2FA20684069216CC0F380103F
:101EB000090700D460B3204600F070FA206840693A
:101EC000400621D52068143050E8001F21F0400161
:101ED00040E80012002AF5D1A06BA8B16C49016559
:101EE000A06BFFF731FB002811D0A06B016D01B092
:101EF000BDE8F040084783060FD593060DD5204670
:101F0000BDE8F84000F071BA2046FFF78EFFF8BD3B
:101F10002046FFF78AFF2564F8BD266B2023012E9B
:101F200079D1C60677D5D60675D508684868009079
:101F30004869400640D5A16B086840680004000C61
:101F4000EAD0A28D8242E7D9E085C869B0F5807FEA
:101F50002DD020680C3050E8001F21F4807140E83B
:101F60000012002AF5D12068143050E8001F21F03B
:101F7000010140E80012002AF5D12068143050E831
:101F8000001F21F0400140E80012002AF5D184F83A
:101F90003E30256320680C3050E8001F21F010010E
:101FA00040E80012002AF5D1A06BFFF784FAA08D5B
:101FB000E18D401A81B229E0A08DE18D401A81B2F5
:101FC000E08D0028A8D00029A6D020680C3050E869
:101FD000002F22F4907240E80026002EF5D12068F0
:101FE000143050E8002F22F0010240E80026002EB5
:101FF000F5D184F83E30256320680C3050E8002F7E
:1020000022F0100240E80023002BF5D12046FFF714
:102010000BFFF8BDFFE705062BD5150629D594F86B
:102020003D002128F5D1A068B0F5805F01D120697D
:10203000B0B1206A411C2162216800784860E08CC0
:10204000401E0004000CE084E3D12068C16821F048
:102050008001C1602068C16841F04001C160D8E7DB
:10206000206A0088C0F308004860206A801C206253
:10207000E5E74006CDD55006CBD5CA68204622F00C
:102080004002CA6084F83D3000F0CFF8C1E700009C
:102090008D23000870B5040004D094F83D0000259D
:1020A00010B106E0012070BD84F83C50204600F0DD
:1020B00023F8242084F83D002068C16821F40051F1
:1020C000C160204600F0F2F92068016921F49041D6
:1020D00001612068416921F02A0141612068C168DD
:1020E00041F40051C1602564202084F83D0084F84B
:1020F0003E00002070BD000010B586B004461421DB
:102100006846FEF7B5F918492068884229D1174872
:102110000021026842F010020260006800F0100026
:10212000059012481438026842F00102026000680B
:1021300000F0010005904FF4C06000900220CDE94E
:102140000101032003900720049069460848FFF727
:102150001FFA002211462520FFF780FB2520FFF7FC
:102160006FFB06B010BD0000001001404438024073
:1021700000000240704700002DE9F843044690F843
:102180003D001F4616460D4620284CD1C5B1BEB1B4
:1021900094F83C00012846D0012084F83C004FF020
:1021A0000008C4F84080212084F83D00FFF7E8FAD9
:1021B000A6848146E684A068B0F5805F03D004E081
:1021C0000120BDE8F883206928B12E465FF00005A4
:1021D00084F83C800EE00026FAE78021204600F0DB
:1021E000EBF9A0B9AEB116F8010B21684860E08C9C
:1021F000401EE084E08C4B464FF000020097002820
:10220000EBD14FF04001204600F0D6F930B1032069
:10221000D7E735F8020BC0F30800E6E7202084F882
:102220003D000020CDE70220CBE77047FEE700002D
:10223000104810B50E49016009214160890781608D
:1022400000214FF40032C0E903121201426101760D
:1022500041768176C176017701214177FFF717F842
:10226000002803D0BDE81040FEF795BD10BD00006A
:1022700000640040E0000020094808B5016841F012
:1022800080010160016801F080010091016841F066
:1022900001010160006800F00100009008BD00002D
:1022A000303802400C4810B50A4901604FF4E13162
:1022B0004160002181600C22C160C0E9041281618B
:1022C000C161FFF7E7FE002803D0BDE81040FEF72C
:1022D00062BD10BD0010014008010020FEE7FEE7CE
:1022E00070477047FFF752BA30B593B03021684657
:1022F000FEF7BEF814210CA8FEF7BAF81D48002519
:10230000016841F080510160006800F08050119038
:102310001948016841F4804101600068022400F41A
:102320008040119001200090000401908001CDE9CF
:10233000064008AA0420A82182E813000B906846F2
:10234000FFF7A8FB08B172B6FEE70CA90F2081E8E1
:1023500031004FF4A0500F904FF4805010900521A1
:102360000CA8FFF7ADFA002801D072B6FEE713B053
:1023700030BD000040380240007000400248016853
:1023800041F470010160704788ED00E010B5806B8A
:102390000021C185C184FFF748FD10BD01680C31E3
:1023A00051E8002F22F4907241E80023002BF5D170
:1023B0000168143151E8002F22F0010241E80023A6
:1023C000002BF5D1016B012909D101680C3151E8CD
:1023D000002F22F0100241E80023002BF5D120212C
:1023E00080F83E1000210163704708B590F83E1058
:1023F000222901D0022008BD82684FF480539A42FE
:1024000001D1016921B1816A9A421BD04AB10AE027
:102410000268816A5268C2F308020A80816A891CD4
:1024200008E0026972B10268526802F07F020A7025
:10243000816A491C8162C18D491E0904090CC1854C
:1024400003D019E002685268F1E70168CA6822F017
:102450002002CA600168CA6822F48072CA600168FA
:102460004A6922F001024A61202180F83E10016B86
:10247000012903D0FFF77EFE002008BD0021016383
:1024800001680C3151E8002F22F0100241E80023CE
:10249000002BF5D101680A68D20602D50A6849689E
:1024A0000091818DFFF7C0FCE6E7000070B504469F
:1024B00000680169E26821F440511143016121691A
:1024C000A068E26908436169114308432168CA684A
:1024D00049F20C639A430243CA6020684169A269C9
:1024E00021F440711143416131492068884202D092
:1024F0003049884202D1FFF78DFA01E0FFF77AFAFE
:10250000E2690023192164253226B2F5004F626882
:1025100028D0A0FB0101930F9200FDF7B6FE014603
:10252000B0FBF5F06FF01802504301EB800006EBB2
:102530000010B0FBF5F000F0F002B1FBF5F002EB9B
:102540000012B1FBF5F06FF01803584301EB800067
:1025500006EB0010B0FBF5F000F00F00216810440E
:10256000886070BDA0FB010192185B41FDF78DFEF4
:102570000146B0FBF5F00201B1FBF5F06FF0180376
:10258000584301EB800006EBC000B0FBF5F000F013
:10259000F80002EB4002B1FBF5F0584301EB80007C
:1025A00006EBC000B0FBF5F000F00700D6E7000036
:1025B00000100140001401402DE9F04198461746F3
:1025C0000E460446069D27E0681C25D02DB1FFF776
:1025D000D7F8A0EB0800A8421ED920680C3050E8BC
:1025E000001F21F4D07140E80012002AF5D12068C4
:1025F000143050E8001F21F0010140E80012002AC9
:10260000F5D1202084F83D0084F83E00002084F8B5
:102610003C000320BDE8F0812068006836EA000035
:1026200004D00020B842CFD00020F3E70120F9E722
:102630000148FFF7FBBB000008010020FEE7F0B5F2
:102640000DF1180E9EE8F0100EC080E8F810F0BDF5
:1026500070B50DF1100C9CE87000036180E8360045
:10266000067570BD0907090E002804DB00F1E020A3
:1026700080F80014704700F00F0000F1E02080F8AF
:10268000141D704700207047FEE74FF0FF30704781
:1026900000207047012070474FF0FF307047002046
:1026A000704770472DE9F341074801246D460668DD
:1026B000A71E3B46224629463046FFF75DFD02280D
:1026C000F7D00098BDE8FC812400002086B0FFF719
:1026D00065F8FFF709FEFFF7CFFDFFF7A9FDFFF74C
:1026E000E1FD0024009401940523224640F22311C9
:1026F00018480294FFF7ACFF0120CDE902040094D2
:102700000023049005901A46194601941248FFF7D9
:1027100096FF1248FEF79CFE0F491048FEF7BEFBDD
:1027200002210E48FEF739FB0D4C0E4B0E4A0949AB
:102730000A48FEF744FB6420FEF718FF2179E07891
:10274000CDE90001A3786278217808A0FDF714FE96
:10275000EBE700004C01002064010020E0000020B5
:102760000000002020000020180000202564202503
:10277000642025642025642025640D0A00000000E3
:102780004FF04070E1EE100A7047000000000000BA
:10279000000001020304060708090000000001020E
:1027A00003043A7474003A7474003A7474000000BC
:1027B000D027000800000020C4000000C401000869
:1027C00094280008C400002024080000E00100084C
:1027D00000000000000000000100000010000000E8
:1027E000000000000024F400AA5535BBCC00000016
:1027F0000000000008010020080100200000000087
:1028000000000000000000000000000000000000C8
:1028100000000000000000000000000000000000B8
:1028200000000000000000000000000000000000A8
:102830000000000000000000000000000000000098
:102840000000000000000000000000000000000088
:102850000000000000000000000000000000000078
:102860000000000000000000000000000000000068
:102870000000000000000000000000000000000058
:1028800000000000800000000000000000000000C8
:042890000000000044
:040000050800018965
:00000001FF
