:020000040800F2
:10000000C807002099010008DF160008FB1500084A
:10001000DD160008ED050008491C0008000000007E
:10002000000000000000000000000000391A000875
:10003000EF05000800000000E11600083B1A000868
:10004000B3010008B3010008B301000889180008D3
:10005000B3010008B3010008B3010008B3010008B0
:10006000B3010008B3010008B3010008B3010008A0
:10007000B3010008B3010008B3010008B301000890
:10008000B3010008B3010008B3010008B301000880
:10009000B3010008B3010008B3010008B301000870
:1000A000B3010008B3010008B3010008B301000860
:1000B000B3010008B3010008B3010008B301000850
:1000C000B3010008B3010008B3010008B301000840
:1000D000B3010008291C0008B3010008B30100089F
:1000E000B3010008B3010008B301000800F002F8F2
:1000F00000F042F80AA090E8000C82448344AAF180
:100100000107DA4501D100F037F8AFF2090EBAE87D
:100110000F0013F0010F18BFFB1A43F0010318473B
:10012000C01D0000E01D0000103A24BF78C878C14F
:10013000FAD8520724BF30C830C144BF04680C60ED
:10014000704700000023002400250026103A28BF35
:1001500078C1FBD8520728BF30C148BF0B60704739
:10016000642900F09780732900F0DB81002070473C
:100170001FB51FBD10B510BD00F006FA1146FFF700
:10018000F7FF01F0CDFD00F024FA03B4FFF7F2FF12
:1001900003BC01F071FD0000094880470948004791
:1001A000FEE7FEE7FEE7FEE7FEE7FEE7FEE7FEE727
:1001B000FEE7FEE704480549054A064B7047000084
:1001C0003F1A0008ED000008C8010020C807002001
:1001D000C8030020C8030020704700000FB4044982
:1001E00010B503AA029800F0A1F910BC5DF814FB49
:1001F0003400002070B5044685690068C10601D549
:10020000302600E02026C00707D070BDD4E90121C8
:1002100030469047206A401C20626D1EF6D570BDA6
:1002200070B5044685690078C00707D170BDD4E970
:10023000012120209047206A401C20626D1EF6D5C7
:1002400070BD70B50C460546012A05D02878800699
:1002500000D5EA69002302E0012305E05B1C93421C
:1002600002D2E05C0028F9D1A869E618C01AA8619A
:10027000286A184428622846FFF7BCFF04E0D5E945
:10028000012114F8010B9047B442F8D32846FFF738
:10029000C7FF70BD2DE9F04106460024106875299E
:1002A000314616A510D0AFF30080002802DA404294
:1002B00013A507E031688A0701D512A502E04907B6
:1002C00004D511A5012401E0AFF3008000210A222A
:1002D00006F1240709E0B0FBF2FCB0FBF2F302FBED
:1002E0001C00303078541846491C0028F3D12346AE
:1002F0002A463046BDE8F04100F0A8B800000000F2
:100300002D0000002B000000200000002DE9F05F10
:10031000894604464FF0000ADFF824B1FB44C0F8D8
:1003200020A02046E168884700287DD0252806D0F7
:10033000D4E901219047206A401C2062F1E70025A2
:100340005F462046E16888472028064607DB312EB5
:1003500005D2B81910F8200C08B10543F1E7A80739
:1003600001D525F00405C4F81CA00027C4F818A086
:100370002A2E09D0304601F078FC38B304EB870808
:10038000303EC8F8186019E059F8041B204604EB09
:1003900087029161E1688847012F064618D1E0691C
:1003A000002820DA25F020051DE0D8F8180000EB21
:1003B000800006EB40003038C8F818002046E1689D
:1003C0008847064601F051FC0028EED1012F0AD0E3
:1003D0002E2E08D12046E16888477F1C0646022F52
:1003E00045F02005C4DBA069002803DA404245F04F
:1003F0000105A061E80701D025F01005A6B1A6F11E
:100400004100192802D8203645F400654A46314695
:10041000204625604D46FFF7A3FE60B1012807D0B6
:10042000ED1D25F0070000E007E000F1080978E77E
:1004300005F1040975E730467AE7206ABDE8F09FC8
:10044000681B000070477047704770472DE9F04700
:100450000D4699469246044600F124080168880634
:1004600004D5E06921F01001216000E00120A842DC
:1004700001DD471B00E00027A1697A1902EB0900A2
:10048000081AA0612078C00602D42046FFF7B2FE09
:10049000002608E0D4E901211AF806009047206AF6
:1004A000401C761C20624E45F4DB2078C0060AD53D
:1004B0002046FFF79FFE06E0D4E901213020904757
:1004C000206A401C2062381EA7F10107F4DC07E017
:1004D000D4E9012118F805009047206A401C2062E9
:1004E000281EA5F10105F3DC2046FFF799FE2078D0
:1004F000000602D50220BDE8F0870120FBE710B519
:10050000436913B1AFF3008001E0FFF79AFE0120C9
:1005100010BD127800F124010A7000224A700122F5
:10052000EDE711684FF0FF32E9E70000074B70B5C7
:100530000D467B4400F011F80446284600F020F8F0
:1005400010B14FF0FF3070BD204670BDD3170000D2
:1005500001694A1C02610878704700B58FB0CDE987
:1005600001310021059105497944CDE90310114677
:100570006846FFF7CBFE0FB000BD0000E5FFFFFFB0
:10058000007B00F080007047754600F02BF8AE4607
:1005900005006946534620F00700854618B020B58F
:1005A000FFF708FEBDE820404FF000064FF00007BF
:1005B0004FF000084FF0000B21F00701AC46ACE80B
:1005C000C009ACE8C009ACE8C009ACE8C0098D4678
:1005D000704710B50446AFF300802046BDE81040D8
:1005E000FFF7D3BD0048704768010020FEE7704761
:1005F00010B590F821100022022905D00421816352
:1006000080F82020012010BD01680B6823F00E0344
:100610000B6001680B6823F001030B6090F8403019
:10062000C46B012101FA03F3636080F8211080F8A4
:100630002020104610BD000010B590F821100024B5
:10064000022903D00421816301243DE001680A6886
:1006500022F00E020A6001680A6822F001020A60B4
:100660001A4A0168914201D1012121E0174A14324E
:10067000914201D110211BE0144A2832914201D14C
:10068000891515E0114A3C32914201D189140FE0DD
:100690000E4A5032914202D14FF4803108E00B4AA9
:1006A0006432914202D14FF4801101E04FF0807129
:1006B000064A083A5160012180F82110002180F893
:1006C0002010416B01B18847204610BD0800024050
:1006D0002DE9F84FDFF8B891002409F1040A0AF176
:1006E000040B23460F270BF1040EC9E00125A5409A
:1006F0002A40AA427DD1674ED1F804C0ACEB06086F
:10070000B44532D014DCBCF1030F3AD009DCBCF1A3
:10071000000F2AD0BCF1010F1CD0BCF1020F31D167
:100720001DE0BCF1110F17D0BCF1120F2AD119E056
:10073000B8F5881F19D006DCB8F5803F15D0B8F59C
:10074000801F1FD111E0B8F5001F0ED0B8F5041FAF
:1007500018D10AE0CB6815E0CB681B1D12E0CB680E
:1007600008330FE0CB680C330CE08B682BB1012B06
:100770004FF0080303D0456104E0042302E0056163
:1007800000E00023FF2A01D8064601E000F104063C
:100790004FEA840501D9A5F12005D6F8008007FAB3
:1007A00005FC28EA0C0803FA05F548EA0508C6F82E
:1007B00000804D68ED0062D5374DAE6946F0010608
:1007C000AE61AD6924F0030605F001050095334DD7
:1007D00006EB050CDCF80850A607360F07FA06F8FA
:1007E00025EA0805DFF8B880404503D14FF000083E
:1007F00017E044E0DFF8AC80404502D14FF001083B
:100800000FE0DFF8A480404502D14FF0020808E075
:10081000DFF89880404502D14FF0030801E04FF027
:10082000040808FA06F848EA0508CCF808804D687C
:10083000D9F80060ED034D4601D5164300E096431C
:100840002E604D68DAF80060AD03554601D51643B9
:1008500000E096432E604D68DBF80060ED025D46D7
:1008600001D5164300E096432E604D68DEF8006027
:10087000AD02754601D5164300E096432E60641C18
:100880000D682A46E5407FF431AFBDE8F88F0000DF
:10089000000401400000111000100240000001405F
:1008A00000080140000C014000100140001401400C
:1008B000C26821EA02030A4043EA0241016170472B
:1008C00001488068704700002000002002488168CD
:1008D000027811448160704720000020074810B55D
:1008E000016841F010010160032000F075F80F204D
:1008F00000F006F800F024F8002010BD00200240AF
:1009000070B50D4D04464FF47A712878B1FBF0F0C4
:100910000A490968B1FBF0F000F097FC48B9102CC7
:1009200007D200222146501E00F036F800206C60ED
:1009300070BD012070BD0000200000202C000020B0
:100940000C4808B5816941F001018161816901F0BC
:1009500001010091C16941F08051C161C06900F09D
:10096000805000900448416821F0E06141F000713E
:10097000416008BD0010024000000140002809DB72
:1009800000F01F02012191404009800000F1E020A9
:10099000C0F8001170470000F0B40E4B1B680C4605
:1009A000C3F30223C3F10705042D00D90425191D43
:1009B000072901D2002300E0DB1E012606FA05F11B
:1009C000491E214099409E40761E16403143F0BC9E
:1009D00001F03BB90CED00E0064900F007020868A1
:1009E0004FF6FF03184040EA0220034A1043086014
:1009F000704700000CED00E00000FA0501490120FD
:100A00000862704700000E4210B529A401461DCCB3
:100A100086B08DE81D002AA02A4C006804900020B2
:100A2000012923D002293AD010291DD161682268FA
:100A3000D20119D5C1F38342C9031DF8020009D5BB
:100A4000616804AAC1F34041515C1F4AB2FBF1F155
:100A5000484301E01D4948436168490204D440000D
:100A60005FF00301B0FBF1F006B010BD226AC2F3E3
:100A70000121012903D1920701D5C803F4E7022916
:100A800005D1626A920702D549F64040ECE7032996
:100A9000EAD121688903E7D54FF22440E4E700F06A
:100AA00033F96168C1F38131491C4900DAE700007C
:100AB00002030405060708090A0B0C0D0E0F10109F
:100AC000010200000010024000127A0000093D00FF
:100AD0002DE9F84305460078354CC00754D0E0694D
:100AE0000026C00008D4E06940F08050E061E06971
:100AF000012600F0805000902E480168C90512D4EC
:100B00000168804641F480710160FFF7D9FE074615
:100B100005E000BFFFF7D4FEC01B642823D8D8F837
:100B20000000C005F6D5206A10F4407021D0A988D5
:100B300001F4407181421CD0206A1F49012220F437
:100B400040700A6000220A602062C00711D0FFF7DF
:100B5000B7FE074641F2883808E000BFFFF7B0FE55
:100B6000C11B414502D90320BDE8F883206A8007F4
:100B7000F4D5206A696820F44070084320621EB1F1
:100B8000E06920F08050E0612878800705D5606832
:100B9000A96820F44040084360602878C00605D565
:100BA0006068E96820F48000084360600020DBE7AB
:100BB0000010024000700040400442422DE9F0471E
:100BC0000F46050061D0434E306800F00700B84280
:100BD00009D2306820F0070038433060306800F0F8
:100BE0000700B84251D128683B4C810712D5400715
:100BF00003D5606840F4E06060602878000703D5A2
:100C0000606840F4605060606068A96820F0F0009F
:100C1000084360602878C00728D06868012810D091
:100C20002168022810D0890700292EDA616821F096
:100C3000030101436160FFF743FE804641F28839BA
:100C40000DE021688903EFE78901EDE7FFF738FE42
:100C5000A0EB0801494502D90320BDE8F087606890
:100C6000696800F00C00B0EB810FEFD1306800F044
:100C70000700B8420BD9306820F0070038433060D5
:100C8000306800F00700B84201D00120E5E728787D
:100C9000400705D56068E96820F4E06008436060BB
:100CA0002878000706D56068296920F4605040EA7A
:100CB000C100606000F038F86168084AC1F30311B0
:100CC000515CC8400649086006480068FFF718FEF6
:100CD0000020C2E70020024000100240701E000801
:100CE0002C000020240000200448054900684968C1
:100CF000044AC1F30221515CC84070472C00002017
:100D000000100240801E0008044805490068496838
:100D1000044AC1F3C221515CC84070472C00002036
:100D200000100240801E000812A185B00FC98DE896
:100D30000F0014A0144A006804905168134801F091
:100D40000C03042B10D0082B0ED1C1F38343C9032D
:100D50001DF803000AD5516804AAC1F34041515C53
:100D60000A4A5043B0FBF1F005B0704708494843C8
:100D7000FAE7000002030405060708090A0B0C0D38
:100D80000E0F1010010200000010024000127A0045
:100D900000093D002DE9F84F040070D02078C04DC7
:100DA000C00749D06868C0F38100012807D068688F
:100DB000C0F38100022809D16868C00306D52868FD
:100DC000800339D560680028E7D035E06068B0F569
:100DD000803F0BD010B1B0F5A02F11D0286820F4BF
:100DE00080302860286820F4802002E0286840F4E1
:100DF00080302860606890B1FFF762FD06460AE027
:100E0000286840F480202860F0E700BFFFF758FD15
:100E1000801B642873D828688003F7D50CE0FFF79F
:100E20004FFD064605E000BFFFF74AFD801B642822
:100E3000F0D828688003F7D420789A4E80074FF0C6
:100E400001094FF0000839D5686810F00C0F07D081
:100E50006868C0F38100022809D16868C00306D41D
:100E60002868800714D52069012808D110E020697E
:100E7000B0B1C6F80090FFF723FD074605E00AE190
:100E8000FFF71EFDC01B0228C4D828688007F7D5CD
:100E90002868616920F0F80040EAC10028600DE090
:100EA000C6F80080FFF70CFD074604E0FFF708FDD9
:100EB000C01B022823D828688007F7D420780007B1
:100EC0002CD57948A169D9B1C0F80090FFF7F8FC9A
:100ED000074604E0FFF7F4FCC01B02280FD8686A3D
:100EE0008007F7D571484FF4FA510068B0FBF1F074
:100EF000009000BF0098411E0091FAD20EE080E001
:100F0000C0F80080FFF7DCFC074604E0FFF7D8FCE0
:100F1000C01B022875D8686A8007F7D4207840077C
:100F200060D5E8690027C00008D4E86940F0805027
:100F3000E861E869012700F0805000905C48016892
:100F4000C90513D40168834641F480710160FFF73D
:100F5000B7FC824606E000BFFFF7B2FCA0EB0A0038
:100F600064284ED8DBF80000C005F5D5E0680128FC
:100F70000AD008B1052813D0286A20F001002862A1
:100F8000286A20F0040002E0286A40F0010028628C
:100F9000E06841F2883B98B1FFF792FC82460BE093
:100FA000286A40F004002862EEE700BFFFF788FCE3
:100FB000A0EB0A0159455AD8286A8007F6D50CE0FB
:100FC000FFF77EFC824605E0FFF77AFCA0EB0A0102
:100FD00059454CD8286A8007F6D41FB1E86920F03B
:100FE0008050E861E06988B36968C1F38101022932
:100FF00044D00228C6F8608004D0FFF761FC0446A4
:1010000038E034E0FFF75CFC074604E0FFF758FCEB
:10101000C01B02282BD828688001F7D4206AB0F5BD
:10102000803F05D16868A16820F4003008436860FB
:10103000D4E908010843696821F474110843686021
:10104000C6F86090FFF73CFC044606E025E000BFD0
:10105000FFF736FC001B022809D828688001F7D565
:101060001BE000BFFFF72CFC001B022802D9032065
:10107000BDE8F88F28688001F4D40EE00128F7D08D
:101080006868226A00F48031914204D1616A00F4F8
:101090007010884201D00120EAE70020E8E7000054
:1010A0000010024000004242800442422C00002016
:1010B00000700040024850F8210080B270470000E4
:1010C000006C0040024800EB810091B20160704763
:1010D000006C004070B5040003D0607C002610B1A5
:1010E00005E0012070BD2674204600F043F8022080
:1010F0006074204600F080F8042578BB204600F09C
:10110000F0FA58BB2068416821F007014160A068EF
:1011100020B11748016821F0010101601448001F47
:101120000168A26821F46071114301606068411C8C
:1011300004D10120FFF768FC80B1401E21688A6855
:1011400022F00F0242EA10428A602168CA6860F306
:101150000F02CA60204600F0DFFA08B16574C0E7EC
:10116000E67301206073A0736074002070BD0000FE
:10117000306C0040F0B51E48C8258FB001240460D3
:101180001C4E306A40F001003062002705E06D1E01
:10119000ADB2052000F080FDC5B1306A8007F6D5FC
:1011A000A5B104200090079703946846FFF7F2FD6D
:1011B0004FF48070CDE90A400AA8FFF789FC45F298
:1011C0005501002000F02AFC0FB0F0BD0820CDE949
:1011D000064700906846FFF7DDFD4FF40070CDE94B
:1011E0000A400AA8FFF774FC45F25101E9E7000044
:1011F0003C0442420010024070B504000AD020684E
:10120000416821F008014160FFF75AFB05464FF4A1
:101210007A7608E0012070BDFFF752FB401BB04218
:1012200001D9032070BD206840680007F4D5002074
:1012300070BD4FF0E0210428086903D020F00400BD
:101240000861704740F00400FAE710B5401EB0F1A5
:10125000807F01D3012010BD4FF0E02460610F2199
:10126000601700F0F2FC0020A06107202061002040
:1012700010BD704770470000F8B50268044610685A
:10128000D168536910F00F0F4FF0000553D003F0F1
:10129000010601F4907737435FD0C20705D0CA0535
:1012A00003D5226C42F001022264420705D5DA0719
:1012B00003D0226C42F002022264820705D5DA07CD
:1012C00003D0226C42F004022264020707D501F029
:1012D0002002324303D0226C42F008022264226CC6
:1012E000002A34D0800604D5880602D5204600F0B6
:1012F000C7FB20684069216CC0F38010090700D447
:1013000030B3204600F0A4FB2068416949061BD594
:10131000416921F040014161A06BA8B15849416386
:10132000A06BFFF789F9002811D0A06B416B01B0C9
:10133000BDE8F040084783060FD58B060DD5204643
:10134000BDE8F84000F09CBB2046FFF793FFF8BDD6
:101350002046FFF78FFF2564F8BD266B2023012E62
:1013600052D1C60650D5CE064ED5106850680090B2
:10137000506940062AD5A16B086840680004000C3B
:10138000EAD0A68D8642E7D9E0858869202818D062
:10139000D06820F48070D0602068416921F001019C
:1013A00041612068416921F04001416184F83E308B
:1013B00025632068C16821F01001C160A06BFFF7B0
:1013C00017F9A08DE18D401A81B219E0A08DE18D51
:1013D000401A81B2E08D0028BED00029BCD0D06870
:1013E00020F49070D0602068426922F001024261CE
:1013F00084F83E3025632068C26822F01002C26083
:101400002046FFF736FFF8BD05062BD50D0629D57A
:1014100094F83D002128F6D1A068B0F5805F01D195
:101420002069B0B1206A411C2162216800784860BF
:10143000E08C401E0004000CE084E4D12068C16808
:1014400021F08001C1602068C16841F04001C160A5
:10145000F8BD206A0088C0F308005060206A801C34
:101460002062E5E74006F3D54806F1D5D16820466D
:1014700021F04001D16084F83D3000F0BDF8F8BDA6
:10148000411A000870B5040004D094F83D0000250E
:1014900010B106E0012070BD84F83C50204600F0F9
:1014A00023F8242084F83D002068C16821F400510D
:1014B000C160204600F040FB2068016921F49041A2
:1014C00001612068416921F02A0141612068C168F9
:1014D00041F40051C1602564202084F83D0084F867
:1014E0003E00002070BD000010B500681E4986B0A7
:1014F000884236D11D48816941F0040181618169CA
:1015000001F004010491816941F004018161816964
:1015100001F004010491816941F480418161806995
:10152000134C00F4804004904FF4007000900220AF
:101530000190012002900320039069462046FFF7A6
:10154000C7F8201500900020019069462046FFF75B
:10155000BFF82520FFF712FA032211462520FFF7D6
:101560001BFA06B010BD0000003801400010024018
:101570000008014090F83E30202B0ED159B152B1F5
:1015800090F83C30012B08D0012380F83C30002338
:10159000036300F02DBB012070470220704700005C
:1015A00030B50068114988420CD1114841880A04BD
:1015B00008D402464C0412784FF0000306D50A2ADC
:1015C00001D0438030BD41F400410DE00D2A09D027
:1015D000C1F30D04074D491C89B22A554180C72922
:1015E000EFD830BD41F48041418030BD003801402A
:1015F000300000205C0000207047FEE70D4808B571
:10160000816941F010018161816901F0100100914F
:10161000816941F020018161816901F0200100911F
:10162000816941F004018161806900F0040000904B
:1016300008BD0000001002407CB52548C16941F09A
:101640008051C161C16901F080510091C16941F0CF
:101650000061C161C06900F000600090FFF7CEF941
:101660001D4C1C480025206047F6FF70C4E90105A9
:101670002046FFF72FFD08B101207CBD002000F0BF
:1016800055F9A0F5A04150390CD0A0F5A041513931
:1016900008D0009500231B22022140F2E77001953B
:1016A00000F084F92068016841F0010101602068C0
:1016B000016841F002010160002202210320FFF7CE
:1016C0006BF90320FFF75AF900F042F800207CBDC7
:1016D00000100240002800403C000020FEE7FEE72A
:1016E000704770B50446FFF7EBF805464FF47A767D
:1016F00006E0FFF7E5F8401BB04201D9032070BDBA
:10170000206840688006F4D52068416841F01001E7
:101710004160002070BD000070B50446006841685B
:1017200021F010014160FFF7CBF805464FF47A76BF
:1017300007E000BFFFF7C4F8401BB04201D9032007
:1017400070BD206840688006F4D5002070BD0000A0
:101750002DE9FE4F33A107C98DE807003448006822
:101760003349091D0968DFF8CC8001EB0047B7FB5E
:10177000F8F43148314D0188A1422DD0048040F267
:10178000B2764FF4B77A4FF4B6790CE0304600F0F9
:10179000B9F820B1544508D3A4F5B77401E0A4F218
:1017A0006D14761CB6B24C45F0D8AE800026E946E2
:1017B0000CE0A88800F0A6F808B1012E2ED019F888
:1017C0000600A04204D8241A761CB6B21C2CF0D213
:1017D000761CAE71641CEC71B7FBF8F008FB10705E
:1017E0004FF46161B0FBF1F22A70B0FBF1F201FB42
:1017F00012033C22B3FBF2F36B70B0FBF1F301FB7D
:101800001300B0FBF2F102FB1100A870EA79A9798C
:10181000A88800F015F82872BDE8FE8F1D2CD7D3DC
:101820001D3CD1E71F1C1F1E1F1E1F1F1E1F1E1F3A
:1018300018280040805101001C00002050000020AA
:1018400010B5032903D20C31401EC9B280B24B1C23
:1018500002EB410103EB43030524B3FBF4F36422E1
:10186000B0FBF2F21944014401EB9001891A4FF4E4
:10187000C872B0FBF2F008440721401C90FBF1F263
:1018800001FB1200C0B210BD3EB5154C2068406887
:10189000C00706D0FFF75CFF2068416821F0010116
:1018A000416020684168890710D5416821F0020134
:1018B00041600B4814300178837842788DE80E003F
:1018C000C3798279818807A0FEF788FC2068416887
:1018D00021F004014160206841688906FCD53EBDC5
:1018E0003C000020416C61726D2054696D653A25A1
:1018F000642D25642D25642025643A25643A2564E9
:101900000A000000810705D16421B0FBF1F201FB60
:10191000120141B94FF4C871B0FBF1F201FB1200A2
:1019200008B10020704701207047000010B5411C2D
:101930000248FFF7BFFB80B210BD00003C00002052
:10194000F0B5891EDDE9055449B2002903DC0C31EC
:10195000401E49B280B26426B0FBF6F7461E40F244
:101960006D1C06FB0CF606EB9006F61B4FF4C877D1
:10197000B0FBF7F0064440F26F1041430C2091FB9E
:10198000F0F01D303044521E07491044084400EB6B
:10199000400003EBC000C0EB001005EB8000C0EB83
:1019A000001004EB8000F0BDC606F5FF7CB5DDE954
:1019B0000645CDE90045FFF7C3FF04461448C16959
:1019C00041F08051C161C16901F080510091C1694C
:1019D00041F00061C161C06900F000600090FFF754
:1019E0000DF80C49086840F010000860094AA0B2E0
:1019F00018321060200C121F1060086820F01000D0
:101A000008600548006841688906FCD500207CBD57
:101A100000100240042800403C00002070B50C4635
:101A20000546FEF7EBFF2246691CBDE87040014801
:101A3000FFF748BB3C0000207047FEF747BF7047E8
:101A400010B5406A0021C185C184FFF713FC10BDA9
:101A50000168CA6822F49072CA6001684A6922F07B
:101A600001024A61016B012904D10168CA6822F0B0
:101A70001002CA60202180F83E10002101637047E7
:101A800008B590F83E10222901D0022008BD8268D6
:101A90004FF480539A4201D1016921B1816A9A427F
:101AA0001BD04AB10AE00268816A5268C2F3080298
:101AB0000A80816A891C08E0026972B10268526872
:101AC00002F07F020A70816A491C8162C18D491E41
:101AD0000904090CC18503D019E002685268F1E7D6
:101AE0000168CA6822F02002CA600168CA6822F44C
:101AF0008072CA6001684A6922F001024A612021AD
:101B000080F83E10016B012903D0FFF749FD00204A
:101B100008BD002101630168CA6822F01002CA6092
:101B200001680A68D20602D50A6849680091818D69
:101B3000FFF79FFBEBE7000070B504460068016902
:101B4000E26821F44051114301612169A068084312
:101B5000616908432168CA6841F20C639A430243F1
:101B6000CA6020684169A26921F440711143416152
:101B70001E492068884202D1FFF7C6F801E0FFF74E
:101B8000B3F800EBC00101EB001260686421800033
:101B9000B2FBF0F3B3FBF1F36FF018067343B2FB43
:101BA000F0F5B2FBF0F605EB8305322303EB0515E8
:101BB000B5FBF1F5B6FBF1F605F0F00505EB061502
:101BC000B2FBF0F6B2FBF0F0B0FBF1F06FF01802F0
:101BD000504306EB800003EB0010B0FBF1F02168EE
:101BE00000F00F002844886070BD000000380140FC
:101BF00081628285C28500210164222280F83E2014
:101C000080F83C100168CA6842F48072CA600168BA
:101C10004A6942F001024A610068C16841F020014E
:101C2000C16000207047000010B50548FFF724FB95
:101C3000012204490248FFF79DFC0028F8D110BD9D
:101C40002401002030000020FEE70907090E0028CB
:101C500004DB00F1E02080F80014704700F00F0072
:101C600000F1E02080F8141D704730380A2801D2B6
:101C700001207047002070477047000010B50446EF
:101C80004FF0E02100200861FFF7D3FA0149E00896
:101C9000088010BD380000204FF47A7170B5B0FB99
:101CA000F1F2B0FBF1F501FB1204094E03E03046FE
:101CB00000F010F86D1E002DF9D1002C06D04FF465
:101CC0007A706043BDE8704000F004B870BD000059
:101CD00040420F000B49098848434FF0E02148611A
:101CE00000228A61086940F0010008610869C307A1
:101CF00001D0C003FAD5086920F0010008618A61AB
:101D0000704700003800002004490A685206FCD5DC
:101D1000024AC1B2121D1160704700000038014034
:101D20001CB50025FEF7DAFD4FF4E01000F062F874
:101D30004820FFF7A3FFFFF761FCFFF77DFC4FF49E
:101D4000E13000F079F800211220CDE900010D23E7
:101D50001B22022140F2E770FFF728FE0A26142713
:101D60006D1CEDB2B5FBF6F006FB1050A8B9FFF7FD
:101D7000EFFC114C11A0A37862782178FEF72EFABF
:101D8000E379A279A18812A0FEF728FA207A1549F2
:101D900051F8201014A0FEF721FAB5FBF7F007FB6D
:101DA000105020B94FF400511148FEF781FD642016
:101DB000FFF772FFD4E700005000002054696D6502
:101DC0003A253032643A253032643A2530326400A4
:101DD000446174653A253034642D253032642D25F4
:101DE00030326400000000205765656B3A257300AF
:101DF0000010014030B58FB0012100910225090487
:101E000000240795CDE90114CDE908106846FEF7D6
:101E1000C1FF00B1FEE70F20CDE90A054FF4806055
:101E2000CDE90C4002210AA80E94FEF7C7FE002857
:101E300000D0FEE70FB030BD0B4910B5094AC1E92B
:101E4000002000208860C860086188610C2048611B
:101E50000846FFF717FBBDE810400122034902487E
:101E6000FFF788BB0038014024010020300000202B
:101E7000000000000000000001020304060708093A
:101E8000000000000102030404000008000000003C
:101E900000000002000100001000000046726964AA
:101EA000617900004D6F6E646179000053756E6456
:101EB000617900005361746572646179000000000B
:101EC0005765646E657364617900000054756573CD
:101ED0006461790054687572736461790000000070
:101EE000001F0008000000203C000000280100083E
:101EF0003C1F00083C0000208C0700004401000843
:101F0000AC1E0008A41E0008CC1E0008C01E00085D
:101F1000D41E00089C1E0008B41E0008000000002B
:101F20000100000010000000000000000024F40088
:0C1F3000000000000000000000000000A5
:04000005080000ED02
:00000001FF
