:020000040800F2
:1000000088070020890100085F110008BF10000860
:100010005D110008D502000801140008000000006E
:10002000000000000000000000000000F5110008C2
:10003000D7020008000000009F010008A10100088D
:10004000A301000861110008A3010008A301000832
:10005000A3010008A3010008D9020008A3010008B9
:10006000A3010008A3010008A3010008A3010008E0
:10007000A3010008A3010008A3010008A3010008D0
:10008000A3010008A3010008A3010008A3010008C0
:10009000A3010008A3010008A3010008A3010008B0
:1000A000A3010008A3010008A3010008A3010008A0
:1000B000A3010008A3010008A3010008A301000890
:1000C000A3010008A3010008A3010008A301000880
:1000D000A3010008E1130008A3010008A301000820
:1000E000A3010008A3010008A301000800F002F822
:1000F00000F03AF80AA090E8000C82448344AAF188
:100100000107DA4501D100F02FF8AFF2090EBAE885
:100110000F0013F0010F18BFFB1A43F0010318473B
:100120002815000048150000103A24BF78C878C18F
:10013000FAD8520724BF30C830C144BF04680C60ED
:10014000704700000023002400250026103A28BF35
:1001500078C1FBD8520728BF30C148BF0B60704739
:100160001FB51FBD10B510BD00F06EF81146FFF7AA
:10017000F7FF01F0A9F900F0A0F803B4FFF7F2FFD0
:1001800003BC01F04EF900000948804709480047C8
:10019000FEE7FEE7FEE7FEE7FEE7FEE7FEE7FEE737
:1001A000FEE7FEE704480549054A064B7047000094
:1001B000F7110008ED0000088801002088070020E2
:1001C0008803002088030020704700000FB4044912
:1001D00010B503AA029800F009F810BC5DF814FBF2
:1001E000180000207047704770477047074B70B584
:1001F0000D467B4400F011F80446284600F020F834
:1002000010B14FF0FF3070BD204670BDBB12000032
:1002100001694A1C02610878704700B58FB0CDE9CA
:1002200001310021059105497944CDE903101146BA
:10023000684600F02EF80FB000BD0000E5FFFFFF9C
:10024000007B00F080007047754600F03FF8AE4636
:1002500005006946534620F00700854618B020B5D2
:10026000FFF7A0FFBDE820404FF000064FF0000769
:100270004FF000084FF0000B21F00701AC46ACE84E
:10028000C009ACE8C009ACE8C009ACE8C0098D46BB
:1002900070472DE9F04106460024D6E90170F56863
:1002A0008046304603E04146B847641C3046A847C4
:1002B0000028F8D12046BDE8F08110B50446AFF320
:1002C00000802046BDE81040FFF757BF0048704748
:1002D00028010020FEE77047012000F071B810B53A
:1002E00090F821100022022905D00421816380F8B2
:1002F0002020012010BD01680B6823F00E030B6065
:1003000001680B6823F001030B6090F84030C46B68
:10031000012101FA03F3636080F8211080F82020A6
:10032000104610BD10B590F821100024022903D00A
:100330000421816301243DE001680A6822F00E0275
:100340000A6001680A6822F001020A601A4A01681C
:10035000914201D1012121E0174A1432914201D189
:1003600010211BE0144A2832914201D1891515E071
:10037000114A3C32914201D189140FE00E4A5032A9
:10038000914202D14FF4803108E00B4A643291422D
:1003900002D14FF4801101E04FF08071064A083A13
:1003A0005160012180F82110002180F82010416B5C
:1003B00001B18847204610BD080002407047000088
:1003C000044910B50A68024202D00860FFF7F6FF40
:1003D00010BD0000140401402DE9F84FDFF8B8917A
:1003E000002409F1040A0AF1040B23460F270BF13C
:1003F000040EC9E00125A5402A40AA427DD1674EDE
:10040000D1F804C0ACEB0608B44532D014DCBCF122
:10041000030F3AD009DCBCF1000F2AD0BCF1010F68
:100420001CD0BCF1020F31D11DE0BCF1110F17D06F
:10043000BCF1120F2AD119E0B8F5881F19D006DCDB
:10044000B8F5803F15D0B8F5801F1FD111E0B8F581
:10045000001F0ED0B8F5041F18D10AE0CB6815E0D4
:10046000CB681B1D12E0CB6808330FE0CB680C3360
:100470000CE08B682BB1012B4FF0080303D04561D2
:1004800004E0042302E0056100E00023FF2A01D814
:10049000064601E000F104064FEA840501D9A5F102
:1004A0002005D6F8008007FA05FC28EA0C0803FAB4
:1004B00005F548EA0508C6F800804D68ED0062D5EC
:1004C000374DAE6946F00106AE61AD6924F0030612
:1004D00005F001050095334D06EB050CDCF80850DE
:1004E000A607360F07FA06F825EA0805DFF8B880F0
:1004F000404503D14FF0000817E044E0DFF8AC803E
:10050000404502D14FF001080FE0DFF8A4804045DC
:1005100002D14FF0020808E0DFF89880404502D190
:100520004FF0030801E04FF0040808FA06F848EA23
:100530000508CCF808804D68D9F80060ED034D46F9
:1005400001D5164300E096432E604D68DAF800604E
:10055000AD03554601D5164300E096432E604D6825
:10056000DBF80060ED025D4601D5164300E09643DE
:100570002E604D68DEF80060AD02754601D5164369
:1005800000E096432E60641C0D682A46E5407FF427
:1005900031AFBDE8F88F00000004014000001110E9
:1005A000001002400000014000080140000C014022
:1005B0000010014000140140C26821EA02030A4011
:1005C00043EA0241016170470AB1016170470904C1
:1005D000FBE7000001488068704700000000002031
:1005E000074810B5016841F010010160032000F0D8
:1005F00075F80F2000F006F800F024F8002010BD78
:100600000020024070B50D4D04464FF47A712878F1
:10061000B1FBF0F00A490968B1FBF0F000F078FB9B
:1006200048B9102C07D200222146501E00F036F89F
:1006300000206C6070BD012070BD00000000002033
:100640000C0000200C4808B5816941F0010181616E
:10065000816901F001010091C16941F08051C161DE
:10066000C06900F0805000900448416821F0E061CA
:1006700041F00071416008BD0010024000000140DF
:10068000002809DB00F01F02012191404009800091
:1006900000F1E020C0F8001170470000F0B40E4BEC
:1006A0001B680C46C3F30223C3F10705042D00D9D0
:1006B0000425191D072901D2002300E0DB1E0126B5
:1006C00006FA05F1491E214099409E40761E1640CB
:1006D0003143F0BC00F095BE0CED00E0064900F09F
:1006E000070208684FF6FF03184040EA0220034A59
:1006F00010430860704700000CED00E00000FA05B0
:1007000030B51C490A68036822F0E0021A430A6007
:1007100019490A6822F480320A600C1F226822F408
:1007200080322260144A0832136823F48033136045
:100730000B1D1D6825F480351D604568ED0303D54C
:10074000256845F4803525604468A40303D50C680A
:1007500044F480340C600179C90703D0196841F46E
:10076000803119600079800703D5106840F480302B
:10077000106030BD007000400404014001490120B8
:100780000861704700000E4290FAA0F0044AB0FAE7
:1007900080F002EB80000121C0F88010704700005B
:1007A00000000E420548016841F002010160044862
:1007B000016841F00401016030BF704700700040E3
:1007C00010ED00E0054840684FF40051420704482E
:1007D00001D5002200E00122FFF7F6BE00700040C4
:1007E0000010014010B5054C2068C00304D5FFF788
:1007F000E9FF4FF48030206010BD00001404014078
:100800002DE9F0470F46050061D0434E306800F0F7
:100810000700B84209D2306820F007003843306042
:10082000306800F00700B84251D128683B4C81077E
:1008300012D5400703D5606840F4E0606060287816
:10084000000703D5606840F4605060606068A96884
:1008500020F0F000084360602878C00728D068685E
:10086000012810D02168022810D0890700292EDA2B
:10087000616821F0030101436160FFF7ABFE804630
:1008800041F288390DE021688903EFE78901EDE73E
:10089000FFF7A0FEA0EB0801494502D90320BDE8FF
:1008A000F0876068696800F00C00B0EB810FEFD151
:1008B000306800F00700B8420BD9306820F007001C
:1008C00038433060306800F00700B84201D00120A2
:1008D000E5E72878400705D56068E96820F4E0601E
:1008E000084360602878000706D56068296920F40D
:1008F000605040EAC100606000F038F86168084A62
:10090000C1F30311515CC8400649086006480068FD
:10091000FFF778FE0020C2E70020024000100240EE
:10092000301600080C00002004000020044805498F
:1009300000684968044AC1F30221515CC84070470D
:100940000C00002000100240401600080448054931
:1009500000684968044AC1F3C221515CC84070472D
:100960000C000020001002404016000812A185B0C3
:100970000FC98DE80F0014A0144A00680490516854
:10098000134801F00C03042B10D0082B0ED1C1F337
:100990008343C9031DF803000AD5516804AAC1F3B3
:1009A0004041515C0A4A5043B0FBF1F005B070473A
:1009B00008494843FAE7000002030405060708094E
:1009C0000A0B0C0D0E0F1010010200000010024067
:1009D00000127A0000093D002DE9F84F040070D0A4
:1009E0002078C04DC00749D06868C0F38100012855
:1009F00007D06868C0F38100022809D16868C00385
:100A000006D52868800339D560680028E7D035E02E
:100A10006068B0F5803F0BD010B1B0F5A02F11D0B9
:100A2000286820F480302860286820F4802002E0C4
:100A3000286840F480302860606890B1FFF7CAFDF4
:100A400006460AE0286840F480202860F0E700BFEE
:100A5000FFF7C0FD801B642873D828688003F7D592
:100A60000CE0FFF7B7FD064605E000BFFFF7B2FD5B
:100A7000801B6428F0D828688003F7D420789A4E29
:100A800080074FF001094FF0000839D5686810F071
:100A90000C0F07D06868C0F38100022809D168688C
:100AA000C00306D42868800714D52069012808D11E
:100AB00010E02069B0B1C6F80090FFF78BFD074643
:100AC00005E00AE1FFF786FDC01B0228C4D82868AC
:100AD0008007F7D52868616920F0F80040EAC10076
:100AE00028600DE0C6F80080FFF774FD074604E0BB
:100AF000FFF770FDC01B022823D828688007F7D4B1
:100B0000207800072CD57948A169D9B1C0F80090A8
:100B1000FFF760FD074604E0FFF75CFDC01B0228FD
:100B20000FD8686A8007F7D571484FF4FA5100680A
:100B3000B0FBF1F0009000BF0098411E0091FAD286
:100B40000EE080E0C0F80080FFF744FD074604E0B7
:100B5000FFF740FDC01B022875D8686A8007F7D4EC
:100B60002078400760D5E8690027C00008D4E8690C
:100B700040F08050E861E869012700F08050009063
:100B80005C480168C90513D40168834641F480714B
:100B90000160FFF71FFD824606E000BFFFF71AFD68
:100BA000A0EB0A0064284ED8DBF80000C005F5D59C
:100BB000E06801280AD008B1052813D0286A20F07F
:100BC00001002862286A20F0040002E0286A40F050
:100BD00001002862E06841F2883B98B1FFF7FAFC17
:100BE00082460BE0286A40F004002862EEE700BF6E
:100BF000FFF7F0FCA0EB0A0159455AD8286A800794
:100C0000F6D50CE0FFF7E6FC824605E0FFF7E2FCD4
:100C1000A0EB0A0159454CD8286A8007F6D41FB1C9
:100C2000E86920F08050E861E06988B36968C1F341
:100C30008101022944D00228C6F8608004D0FFF761
:100C4000C9FC044638E034E0FFF7C4FC074604E082
:100C5000FFF7C0FCC01B02282BD828688001F7D4FE
:100C6000206AB0F5803F05D16868A16820F40030A3
:100C700008436860D4E908010843696821F47411E5
:100C800008436860C6F86090FFF7A4FC044606E0DD
:100C900025E000BFFFF79EFC001B022809D828684A
:100CA0008001F7D51BE000BFFFF794FC001B022872
:100CB00002D90320BDE8F88F28688001F4D40EE043
:100CC0000128F7D06868226A00F48031914204D18B
:100CD000616A00F47010884201D00120EAE7002028
:100CE000E8E7000000100240000042428004424257
:100CF0000C000020007000404FF0E021042808693B
:100D000003D020F004000861704740F00400FAE7C7
:100D100010B5401EB0F1807F01D3012010BD4FF00F
:100D2000E02460610F21601700F06BFB0020A061E0
:100D300007202061002010BD70477047F8B5026899
:100D400004461068D168536910F00F0F4FF000058A
:100D500053D003F0010601F4907737435FD0C20708
:100D600005D0CA0503D5226C42F001022264420775
:100D700005D5DA0703D0226C42F002022264820712
:100D800005D5DA0703D0226C42F004022264020780
:100D900007D501F02002324303D0226C42F0080252
:100DA0002264226C002A34D0800604D5880602D53D
:100DB000204600F041FA20684069216CC0F38010A1
:100DC000090700D430B3204600F01EFA20684169BC
:100DD00049061BD5416921F040014161A06BA8B1D2
:100DE00058494163A06BFFF79DFA002811D0A06B12
:100DF000416B01B0BDE8F040084783060FD58B0674
:100E00000DD52046BDE8F84000F016BA2046FFF7A1
:100E100094FFF8BD2046FFF790FF2564F8BD266BD0
:100E20002023012E52D1C60650D5CE064ED51068CD
:100E300050680090506940062AD5A16B0868406848
:100E40000004000CEAD0A68D8642E7D9E0858869C7
:100E5000202818D0D06820F48070D06020684169C4
:100E600021F0010141612068416921F040014161A7
:100E700084F83E3025632068C16821F01001C1600C
:100E8000A06BFFF72CFAA08DE18D401A81B219E01A
:100E9000A08DE18D401A81B2E08D0028BED00029DE
:100EA000BCD0D06820F49070D0602068426922F0F5
:100EB0000102426184F83E3025632068C26822F056
:100EC0001002C2602046FFF737FFF8BD05062BD59C
:100ED0000D0629D594F83D002128F6D1A068B0F57B
:100EE000805F01D12069B0B1206A411C2162216874
:100EF00000784860E08C401E0004000CE084E4D1DF
:100F00002068C16821F08001C1602068C16841F09B
:100F10004001C160F8BD206A0088C0F3080050603D
:100F2000206A801C2062E5E74006F3D54806F1D52B
:100F3000D168204621F04001D16084F83D3000F0B6
:100F4000BDF8F8BDF911000870B5040004D094F89C
:100F50003D00002510B106E0012070BD84F83C5032
:100F6000204600F023F8242084F83D002068C16862
:100F700021F40051C160204600F0BAF920680169EF
:100F800021F4904101612068416921F02A01416109
:100F90002068C16841F40051C1602564202084F8B4
:100FA0003D0084F83E00002070BD000010B50068D0
:100FB0001E4986B0884236D11D48816941F004013E
:100FC0008161816901F004010491816941F00401AA
:100FD0008161816901F004010491816941F48041DA
:100FE00081618069134C00F4804004904FF40070DC
:100FF0000090022001900120029003200390694696
:101000002046FFF7E9F9201500900020019069467D
:101010002046FFF7E1F92520FFF732FB03221146B6
:101020002520FFF73BFB06B010BD00000038014053
:10103000001002400008014090F83E30202B0ED1F5
:1010400059B152B190F83C30012B08D0012380F8FF
:101050003C300023036300F0A7B901207047022051
:101060007047000030B50068114988420CD1114822
:1010700041880A0408D402464C0412784FF0000359
:1010800006D50A2A01D0438030BD41F400410DE06D
:101090000D2A09D0C1F30D04074D491C89B22A5508
:1010A0004180C729EFD830BD41F48041418030BD37
:1010B00000380140120000201C0000207047FEE7AD
:1010C00070B586B0002421480094019402940394E2
:1010D000816941F010018161816901F01001049181
:1010E000816941F020018161816901F02001049151
:1010F000816941F0040181618069154E00F00400AE
:101100004FF400550490002229463046FFF75CFA60
:10111000009501250220CDE9015003200390694686
:101120003046FFF759F90B480095CDE901046946AF
:101130000948FFF751F9002211460620FFF7AEFAE1
:101140000620FFF79DFA06B070BD000000100240B7
:10115000001001400000111000080140FEE7FEE70A
:10116000FFF740BB104800B5816985B041F004012C
:1011700081618069694600F00400049001200090BC
:101180000A48019002200290032003900848FFF7CC
:1011900023F9022211460620FFF780FA0620FFF706
:1011A0006FFA05B000BD00000010024000001110F1
:1011B000000801400EB50D48C16941F08051C16180
:1011C000C06900F080500290E02000900848019033
:1011D0006846FFF795FAFFF7D1FA0222114601207F
:1011E000FFF75CFA0120FFF74BFA0EBD001002403A
:1011F000030001007047704710B5406A0021C185A7
:10120000C184FFF79AFD10BD0168CA6822F490728C
:10121000CA6001684A6922F001024A61016B012932
:1012200004D10168CA6822F01002CA60202180F847
:101230003E1000210163704708B590F83E10222946
:1012400001D0022008BD82684FF480539A4201D138
:10125000016921B1816A9A421BD04AB10AE0026851
:10126000816A5268C2F308020A80816A891C08E018
:10127000026972B10268526802F07F020A70816AE4
:10128000491C8162C18D491E0904090CC18503D026
:1012900019E002685268F1E70168CA6822F020028A
:1012A000CA600168CA6822F48072CA6001684A692B
:1012B00022F001024A61202180F83E10016B0129D1
:1012C00003D0FFF7CFFE002008BD002101630168B5
:1012D000CA6822F01002CA6001680A68D20602D504
:1012E0000A6849680091818DFFF726FDEBE7000051
:1012F00070B5044600680169E26821F44051114369
:1013000001612169A0680843616908432168CA68CE
:1013100041F20C639A430243CA6020684169A269A2
:1013200021F44071114341611E492068884202D175
:10133000FFF70CFB01E0FFF7F9FA00EBC00101EB4E
:101340000012606864218000B2FBF0F3B3FBF1F39C
:101350006FF018067343B2FBF0F5B2FBF0F605EB45
:101360008305322303EB0515B5FBF1F5B6FBF1F66A
:1013700005F0F00505EB0615B2FBF0F6B2FBF0F058
:10138000B0FBF1F06FF01802504306EB800003EB66
:101390000010B0FBF1F0216800F00F0028448860D5
:1013A00070BD00000038014081628285C285002145
:1013B0000164222280F83E2080F83C100168CA684F
:1013C00042F48072CA6001684A6942F001024A61CF
:1013D0000068C16841F02001C16000207047000032
:1013E00010B50548FFF7AAFC012204490248FFF79F
:1013F00023FE0028F8D110BDE400002012000020D8
:10140000FEE70907090E002804DB00F1E02080F860
:101410000014704700F00F0000F1E02080F8141D68
:101420007047704710B504464FF0E0210020086176
:10143000FFF762FC0149E008088010BD10000020A1
:101440004FF47A7170B5B0FBF1F2B0FBF1F501FB2E
:101450001204094E03E0304600F010F86D1E002D16
:10146000F9D1002C06D04FF47A706043BDE870408B
:1014700000F004B870BD000040420F000B4909881D
:1014800048434FF0E021486100228A61086940F03A
:10149000010008610869C30701D0C003FAD50869D3
:1014A00020F0010008618A617047000010000020F0
:1014B00004490A685206FCD5024AC1B2121D1160E5
:1014C000704700000038014008B50024FFF788F895
:1014D0004FF4E01000F06EF84820FFF7A3FFFFF78D
:1014E000EFFD4FF4E13000F087F8FFF73BFEFFF728
:1014F00061FE1AA0FEF76AFE1F48C16941F08051E3
:10150000C161C06900F0805000904FF48070FFF717
:101510003BF91A48016841F00401016018A0FEF788
:1015200055FE6420FFF78CFFFFF73CF91AA0FEF789
:101530004DFE1F4F14254FF4005600BFB4FBF5F0CD
:1015400005FB104018B931463846FFF735F80A2038
:10155000FFF776FF641CE4B2F0E70000456E7465A7
:101560007220746F204C6F77506F776572205465CE
:101570007374200D0A00000000100240007000404B
:10158000456E746572205354414E444259204D6F4C
:101590006465200D0A0000004578697420535441A9
:1015A0004E444259204D6F6465200D0A0000000032
:1015B0000010014030B58FB00121009102250904CF
:1015C00000240795CDE90114CDE908106846FFF71E
:1015D00003FA00B1FEE70F20CDE90A054FF4806061
:1015E000CDE90C4002210AA80E94FFF709F9002862
:1015F00000D0FEE70FB030BD0B4910B5094AC1E974
:10160000002000208860C860086188610C20486163
:101610000846FFF799FCBDE8104001220349024843
:10162000FFF70ABD00380140E4000020120000204E
:101630000000000000000000010203040607080982
:1016400000000000010203046816000800000020EA
:101650001C00000028010008841600081C0000205F
:101660006C070000440100080100000010000000A9
:10167000000000000024F400000000000000000052
:041680000000000066
:04000005080000ED02
:00000001FF
