:020000040800F2
:1000000090200020050100088F180008271800081C
:100010008D180008B10E0008291A00080000000021
:10002000000000000000000000000000931800081D
:10003000B30E000800000000911800089518000891
:100040001F0100081F0100081F0100081F01000810
:100050001F0100081F0100081F0100081F01000800
:100060001F0100081F0100081F0100081F010008F0
:100070001F0100081F0100081F0100081F010008E0
:100080001F0100081F0100081F0100081F010008D0
:100090001F0100081F0100081F0100081F010008C0
:1000A0001F0100081F0100081F0100081F010008B0
:1000B0001F0100081F0100081F0100081F010008A0
:1000C0001F0100081F0100081F0100081F01000890
:1000D0001F0100081F0100081F0100081F01000880
:1000E0001F0100081F0100081F010008DFF810D0E1
:1000F00000F0FEFB00480047653D0008AFF30080BC
:10010000902000200648804706480047FEE7FEE7AB
:10011000FEE7FEE7FEE7FEE7FEE7FEE7FEE7FEE7B7
:10012000F7180008ED00000830B50B460146002026
:100130002022012409E021FA02F59D4205D303FAA9
:1001400002F5491B04FA02F52844151EA2F101022A
:10015000F1DC30BD202A04DB203A21FA02F0002134
:10016000704721FA02F3D040C2F1200291400843C7
:10017000194670472DE9FE439946154688460746BD
:1001800001AC022942D3002D40D000200290A8F1FA
:1001900001004FF0FF36009022E000FB057201FBEA
:1001A000057011464A469047002805DC54F82600A1
:1001B000304444F8260013E060682A4600FB0571CD
:1001C00054F8040C00FB057007E00B7890F800C0B1
:1001D00001F801CB00F8013B521E002AF5D176420E
:1001E00054F8040C61688842D7DC4B462A463846EE
:1001F000FFF7C0FF54F8040C4B46A8EB0001401C6D
:1002000000FB05702A46491EFFF7B4FFBDE8FE83D8
:1002100010B5431A934209D28318881803E010F8E6
:10022000011D03F8011D521EF9D210BD40EA010361
:100230009B0703D009E008C9121F08C0042AFAD29C
:1002400003E011F8013B00F8013B521EF9D210BD4A
:10025000D2B201E000F8012B491EFBD27047002208
:10026000F6E710B513460A4604461946FFF7F0FFB5
:10027000204610BDCAB2401E10F8011F8A4202D0AB
:100280000029F9D100207047421C10F8011B0029F9
:10029000FBD1801A704710B5002200E0521C835C2D
:1002A0008C5CA34201D1002BF8D1D8B2E1B2401A44
:1002B00010BDCBB203E00178994203D0401C521E1E
:1002C000F9D200207047034611F8012B00F8012BEA
:1002D000002AF9D11846704700F0ACB83EB5CA17ED
:1002E000CB0F002450405140C0186141DA0740F262
:1002F00033430094CDE901232246234600F0F1F870
:1003000003B030BD30B5041E71F1000404DB4FF0C2
:100310000044404264EB0101141E73F1000405DB4C
:100320001C464FF00043524263EB04038B4208BF6C
:10033000824230BD2DE9F05F0546002092469B4683
:1003400088460646814640241BE0284641464746EB
:100350002246FFF7FFFE53465A46C01A914110D37A
:1003600011461846224600F0D5FA2D1A67EB01080F
:100370004F4622460120002100F0CCFA17EB00097D
:100380004E41201EA4F10104DFDC484631462A46D6
:100390004346BDE8F09F00000FB4002300B589B0CC
:1003A0000CA900910B996FF00042CB601E4B069395
:1003B0001E4B07930423CDE901321D4A08920246E1
:1003C0006B46002000F06AFB09B05DF814FB70B5C5
:1003D00086B006464FF0FF300091CDE901010020C4
:1003E00015460C4604903246694604A8FFF7D4FF30
:1003F00002460498211825B108B1084600E02046BD
:100400002860049800280DD0002A02DD0098884258
:1004100008D0081B0094CDE901043246694604A8BF
:10042000FFF7BAFF06B070BDD50C0008F30C00084A
:10043000610900082DE9F04791460E4680460446C2
:10044000002514F8017B2FB100F086FA0068C05D2A
:10045000C007F6D12B2F02D02D2F1ED0641E4A4686
:100460003146204600F056FC26B13268A24201D146
:10047000C6F800806A054FF0020418D50023D0EBBF
:10048000030563EB01025D1B934109DB0023D0EB05
:10049000030063EB0101BDE8F08745F48065DEE70A
:1004A00001F080FB046000204FF00041F3E7021EE2
:1004B00071F10002EFDA01F075FB04604FF0FF30DC
:1004C0004108E8E710B5141E73F1000408DA401C77
:1004D00041F1000192185B411A4301D120F0010063
:1004E00010BD2DE9F04D92469B4611B1B1FA81F253
:1004F00002E0B0FA80F22032904600F00BFA044697
:100500000F4640EA0A0041EA0B0153465A460843A7
:1005100013D0114653EA010019D0C8F140025046E9
:10052000FFF718FE05460E4650465946424600F073
:10053000F1F9084305D0012004E020463946BDE822
:10054000F08D0020054346EAE0762C4337430A98B5
:100550006305E40AA0EB08000022FD0A44EA4754C0
:100560000A3002D500200146E9E70105101969416A
:10057000DDE9084500196941BDE8F04DA2E72DE924
:10058000FE4F804681EA0300C00F0C46009021F028
:10059000004123F00045B8EB0200A94105D24046D6
:1005A000214690461C460B46024623F0004010436D
:1005B00047D0270DC7F30A00C3F30A510290401A2F
:1005C000019040286BDAC3F3130040F4801B0098BD
:1005D000924620B10023D2EB030A63EB0B0B019888
:1005E0005946C0F14002504600F094F906460D46C7
:1005F00050465946019A00F09CF910EB0800614101
:10060000002487EA115284EAE7731A4340D0009A23
:1006100062B3019A012A4FEA075215DC001B61EB15
:1006200002014FF0004202EA0752CDE90042001CED
:1006300041F5801132462B46FFF753FF03B0BDE86A
:10064000F08F40462146F9E7001B61EB0201001CD8
:1006500041F5801300185B412018A2F5001747EB05
:10066000030140EAD570B6196D4111E06D084FEAFB
:10067000360645EAC0754FEA0752001B61EB0201DE
:10068000001C41F5801149084FEA30000019514122
:1006900032462B4603B0BDE8F04FFFF713BF00987A
:1006A000012240000023D0EB020263EBE0730098CC
:1006B00021464FEAE074B8EB000061EB0401E9E782
:1006C00083F000435BE781F0004158E72DE9FE4FDE
:1006D00081EA030404F0004421F0004100944FF04B
:1006E000000B23F0004350EA01045ED052EA0304F9
:1006F0005BD0C3F30A54C1F30A552C44A4F2F3347B
:100700000194A0FB0254C1F3130141F48011C3F31F
:10071000130343F4801301FB024400FB034E840ADD
:10072000970A44EA815447EA8357A4FB0768029575
:100730008D0A05FB07854FEA932C04FB0C54270513
:10074000029D4FEA065847EA1637B5EB08056EEBEF
:10075000070C870E920E47EA811742EA8312A7FB25
:100760000201B6EB0B0164EB00042B0D43EA0C33E2
:100770005E1844EB1C50DA465146E7FB0201C5F314
:1007800013044FEA0B3343EA14534FEA0432019C3B
:1007900043EA0603A4F10C040294009CCDE900B4E2
:1007A000FFF79FFE03B0BDE8F08F00200146F9E798
:1007B0002DE9F04D81EA030404F0004B21F00045DF
:1007C00014464FF0000A23F0004150EA050220D001
:1007D00054EA01021DD0C5F30A570246C5F31303BC
:1007E000C1F31300C1F30A5640F4801543F480139B
:1007F000A7EB0608101BD64608F2FD3873EB050080
:1008000002D308F1010801E092185B41B8F1000F32
:1008100003DA00200146BDE8F08D00204FF480117E
:10082000064684460EE0171B73EB050705D3121B23
:1008300063EB050306434CEA010C49084FEA30001C
:1008400092185B4150EA0107EDD152EA030012D041
:1008500082EA040083EA0501084305D0101BAB417E
:1008600006D20122002306E000224FF0004302E0FE
:100870006FF0010253101AEB06004CEB085110EB1D
:100880000A0041EB0B01BDE8F04DFFF71BBEC1F3C1
:100890000A52C1F3130140F2FF3341F480119A422E
:1008A00002DA00200146704740F233439A42A2F236
:1008B000334202DC5242FFF74DBC00F02BB800007F
:1008C00030B5041E71F1000404DB4FF000444042D7
:1008D00064EB0101141E73F1000405DB1C464FF0AC
:1008E0000043524263EB0403994208BF904230BD7B
:1008F000064C074D06E0E06840F0010394E807006D
:1009000098471034AC42F6D3FFF7F4FBD4500008FC
:10091000F4500008202A04DB203A00FA02F10020FB
:1009200070479140C2F1200320FA03F3194390402D
:100930007047202A06DBCB17203A41FA02F043EA3F
:10094000E07306E041FA02F3D040C2F12002914088
:10095000084319467047000000487047D05000080F
:1009600010B50446FFF7F8FF0068005D00F00100D5
:1009700010BD00002DE9FF4F087883B09946FF288D
:1009800005D0491C2D2804D00024002008E00020B8
:100990000BE00124F9E700EB800003EB4000491C69
:1009A0000B78FF2BF7D104B1404200230293147857
:1009B00019461D462D2C01D02B2C04D1521C2D2C58
:1009C00013D000240294AA461478FF2C0FD00A25D5
:1009D000A3FB057801FB05814FF0000C03FB0C1114
:1009E000521CE3194AEB0101EEE70124EAE78144D6
:1009F00053EA010002D019F5C87F06DA03980021F6
:100A0000C0E9001107B0BDE8F08F0025AE4E2F46BB
:100A1000DFF8B882184600F0ECF9CDE90001B9F131
:100A2000000002DAC9F1000400E004460023A74AEE
:100A30001AEB030B42EB045A12E0E00707D02A46F8
:100A4000334638464146FFF741FE074688462A4668
:100A5000334610461946FFF739FE05460E46641028
:100A6000002CEAD1DDE90001B9F1000F5A465346E6
:100A700006DAFFF79DFE3A464346FFF799FE05E08A
:100A8000FFF724FE3A464346FFF720FE029A0AB1DA
:100A900081F00041039AC2E90001B3E72DE9FF4F5D
:100AA0001F468DB0D7E901464FF0FF382E2045464E
:100AB0004FF000090B90B9696D1C0E988847396A90
:100AC000824688470028F6D1BAF1FF3F0AD024F4C5
:100AD000D064002E11DDBAF12B0F08D0BAF12D0F22
:100AE0000BD102E0404611B08DE744F48064B9694F
:100AF0006D1C0E9888478246761E6946600501D5B2
:100B00002D2000E02B208DF8000001F1010B0DF1EC
:100B1000200809E0B9696D1C0E98884782460F9835
:100B200044F40074761E0560002E02DDBAF1300F29
:100B3000F0D00B998A453ED144F0800406E00F992D
:100B4000681CA9F1010944F400740860B9696D1CBE
:100B5000761E0E98884782463028F0D02BE00B99FD
:100B60008A4505D1200603D444F08004761E18E09F
:100B7000504601F0EDF808B30DF11301761E44F470
:100B800000748B4508D2AAF130000BF8010B200647
:100B900007D5A9F1010003E0200602D409F1010004
:100BA0008146A00502D50F99681C0860B9696D1CC3
:100BB0000E9888478246002ED1DC53E0002E51DD8E
:100BC000BAF1650F02D0BAF1450F4BD1A00549D556
:100BD000B9696D1C24F44074761E0E9888478246CD
:100BE000002E0CDD2B2804D0BAF12D0F07D144F4D0
:100BF0008074B9696D1C0E9888478246761EE005A0
:100C000001D52D2100E02B2108F8011BCDF82C8007
:100C100021E00DF12901761E44F4007488450CD2C0
:100C2000AAF1300010F0FF0088F8000002D10B9903
:100C3000884509D908F1010806E0E00501D52448F6
:100C400001E042F20F708146B9696D1C0E98884729
:100C500082460F980560002E04DD504601F078F8BA
:100C60000028D6D1F9690E988847FF208BF800003C
:100C700088F800000020069007904B466A4608A9B5
:100C800006A8FFF777FEA00502D46FF001002AE75F
:100C900014F0240F0AD0E00714D1DDE906123868F9
:100CA000031D3B600068C0E900120BE0DDE90601AE
:100CB00000F0ABF80146E00704D13868021D3A6045
:100CC0000068016028460EE7000014400000F03F75
:100CD000F1D8FFFF426842B1016811F8013B23B12E
:100CE000521EC0E90012184670470121C160881EDB
:100CF000704742685AB1C368016843B983688B4240
:100D000005D0491E521CC0E90012002070474FF068
:100D1000FF3070472DE9F74F4FF00009009C154652
:100D2000CA4614F8010B302801D0ADB115E014F813
:100D3000010B4FF00109782803D0582801D04DB19C
:100D40000BE00DB1102D08D14FF00009102514F85B
:100D5000010B02E0082500E00A2500273E46B846C0
:100D60004FEAE57B16E0A5FB07230BFB073105FBEC
:100D7000080005FB0616010C571846F100061FFA7D
:100D800080F8381E4FF0010976F5803000D3CA464E
:100D900014F8010B294600F01EF80028E3DA019848
:100DA00038B1B9F1000F01D0641E00E0009C019839
:100DB0000460BAF1000F08D000F0F4FE02210160D7
:100DC000C81E014603B0BDE8F08F310441EA174167
:100DD00048EA0740F6E73A2800D2303820F02002EF
:100DE000412A01D3A2F13700884201D34FF0FF30EE
:100DF00070470EB540F2334202920022CDE9002244
:100E00001346FFF76EFB03B000BD01F0004330B4A2
:100E100021F0004150EA010206D00A0DA2F56072ED
:100E2000C1F31301002A02DC30BC00207047440FDC
:100E300044EAC104C100E01830BC00EBC250AFF37B
:100E400000800029A8BF7047401C490008BF20F05F
:100E50000100704710B4B0FA80FC00FA0CF050EAC0
:100E6000010404BF10BC704749B1CCF1200421FA41
:100E700004F411FA0CF118BF012121430843A3EB3C
:100E80000C01CB1D4FEA00614FEA102042BF002049
:100E900010BC704700EBC35010440029A4BF10BC25
:100EA0007047401C490008BF20F0010010BC70478B
:100EB000FEE7704772B6FEE72DE9F84FDFF8B8910C
:100EC0000024A9F1040B23460F2709F1040AABF112
:100ED000040EC9E00125A5402A40AA427DD1674EF3
:100EE000D1F804C0ACEB0608B44532D014DCBCF138
:100EF000030F3AD009DCBCF1000F2AD0BCF1010F7E
:100F00001CD0BCF1020F31D11DE0BCF1110F17D084
:100F1000BCF1120F2AD119E0B8F5881F19D006DCF0
:100F2000B8F5803F15D0B8F5801F1FD111E0B8F596
:100F3000001F0ED0B8F5041F18D10AE0CB6815E0E9
:100F4000CB681B1D12E0CB6808330FE0CB680C3375
:100F50000CE08B682BB1012B4FF0080303D04561E7
:100F600004E0042302E0056100E00023FF2A01D829
:100F7000064601E000F104064FEA840501D9A5F117
:100F80002005D6F8008007FA05FC28EA0C0803FAC9
:100F900005F548EA0508C6F800804D68ED0062D501
:100FA000374DAE6946F00106AE61AD6924F0030627
:100FB00005F001050095334D06EB050CDCF80850F3
:100FC000A607360F07FA06F825EA0805DFF8B88005
:100FD000404503D14FF0000817E044E0DFF8AC8053
:100FE000404502D14FF001080FE0DFF8A4804045F2
:100FF00002D14FF0020808E0DFF89880404502D1A6
:101000004FF0030801E04FF0040808FA06F848EA38
:101010000508CCF808804D68D9F80060ED024D460F
:1010200001D5164300E096432E604D68DAF8006063
:10103000AD02554601D5164300E096432E604D683B
:10104000DBF80060AD035D4601D5164300E0964332
:101050002E604D68DEF80060ED03754601D516433D
:1010600000E096432E60641C0D682A46E5407FF43C
:1010700031AFBDE8F88F00000804014000001110F6
:10108000001002400000014000080140000C014037
:1010900000100140001401400148806870470000C2
:1010A0000000002002488168027811448160704786
:1010B00000000020074810B5016841F010010160F0
:1010C000032000F067F80F2000F006F800F024F885
:1010D000002010BD0020024070B50D4D04464FF4B5
:1010E0007A712878B1FBF0F00A490968B1FBF0F099
:1010F00000F0CEFA48B9102C07D200222146501E2B
:1011000000F028F800206C6070BD012070BD000068
:10111000000000200C0000200C4808B5816941F057
:1011200001018161816901F001010091C16941F012
:101130008051C161C06900F080500090044841684E
:1011400021F0E06141F00071416008BD00100240F3
:1011500000000140F0B40E4B1B680C46C3F30223A1
:10116000C3F10705042D00D90425191D072901D253
:10117000002300E0DB1E012606FA05F1491E21408E
:1011800099409E40761E16403143F0BC00F0FABCF8
:101190000CED00E0064900F0070208684FF6FF0377
:1011A000184040EA0220034A1043086070470000DC
:1011B0000CED00E00000FA052DE9F0470F460500B0
:1011C00061D0434E306800F00700B84209D2306861
:1011D00020F0070038433060306800F00700B84264
:1011E00051D128683B4C810712D5400703D5606870
:1011F00040F4E06060602878000703D5606840F440
:10120000605060606068A96820F0F000084360608A
:101210002878C00728D06868012810D021680228E3
:1012200010D0890700292EDA616821F003010143FB
:101230006160FFF731FF804641F288390DE0216897
:101240008903EFE78901EDE7FFF726FFA0EB08012F
:10125000494502D90320BDE8F0876068696800F05D
:101260000C00B0EB810FEFD1306800F00700B842FE
:101270000BD9306820F0070038433060306800F048
:101280000700B84201D00120E5E72878400705D5DE
:101290006068E96820F4E06008436060287800072F
:1012A00006D56068296920F4605040EAC10060609A
:1012B00000F038F86168084AC1F30311515CC84076
:1012C0000649086006480068FFF706FF0020C2E7ED
:1012D0000020024000100240165000080C000020C0
:1012E000040000200448054900684968044AC1F325
:1012F0000221515CC84070470C00002000100240E1
:10130000265000080448054900684968044AC1F3AA
:10131000C221515CC84070470C0000200010024000
:10132000265000080E4A51680E4801F00C03042BA9
:1013300011D0082B0FD10C48C1F38343C903C05C03
:101340000AD55168084AC1F34041921E515C054AD2
:101350005043B0FBF1F07047044948437047000028
:101360000010024000127A000650000800093D00FB
:101370002DE9F84F040070D02078C04DC00749D047
:101380006868C0F38100012807D06868C0F3810055
:10139000022809D16868C00306D52868800339D5BA
:1013A00060680028E7D035E06068B0F5803F0BD07A
:1013B00010B1B0F5A02F11D0286820F4803028603B
:1013C000286820F4802002E0286840F480302860FB
:1013D000606890B1FFF760FE06460AE0286840F4B6
:1013E00080202860F0E700BFFFF756FE801B6428CE
:1013F00073D828688003F7D50CE0FFF74DFE06464A
:1014000005E000BFFFF748FE801B6428F0D828687D
:101410008003F7D420789A4E80074FF001094FF0EF
:10142000000839D5686810F00C0F07D06868C0F361
:101430008100022809D16868C00306D428688007A3
:1014400014D52069012808D110E02069B0B1C6F890
:101450000090FFF721FE074605E00AE1FFF71CFEBA
:10146000C01B0228C4D828688007F7D5286861699E
:1014700020F0F80040EAC10028600DE0C6F80080C6
:10148000FFF70AFE074604E0FFF706FEC01B02282E
:1014900023D828688007F7D4207800072CD579480E
:1014A000A169D9B1C0F80090FFF7F6FD074604E046
:1014B000FFF7F2FDC01B02280FD8686A8007F7D536
:1014C00071484FF4FA510068B0FBF1F0009000BF92
:1014D0000098411E0091FAD20EE080E0C0F8008032
:1014E000FFF7DAFD074604E0FFF7D6FDC01B022830
:1014F00075D8686A8007F7D42078400760D5E86916
:101500000027C00008D4E86940F08050E861E8692D
:10151000012700F0805000905C480168C90513D491
:101520000168834641F480710160FFF7B5FD824692
:1015300006E000BFFFF7B0FDA0EB0A0064284ED81C
:10154000DBF80000C005F5D5E06801280AD008B135
:10155000052813D0286A20F001002862286A20F0AC
:10156000040002E0286A40F001002862E06841F2CD
:10157000883B98B1FFF790FD82460BE0286A40F067
:1015800004002862EEE700BFFFF786FDA0EB0A012A
:1015900059455AD8286A8007F6D50CE0FFF77CFD3C
:1015A000824605E0FFF778FDA0EB0A0159454CD8CB
:1015B000286A8007F6D41FB1E86920F08050E861FE
:1015C000E06988B36968C1F38101022944D0022827
:1015D000C6F8608004D0FFF75FFD044638E034E0D1
:1015E000FFF75AFD074604E0FFF756FDC01B02282F
:1015F0002BD828688001F7D4206AB0F5803F05D148
:101600006868A16820F4003008436860D4E90801E4
:101610000843696821F4741108436860C6F8609053
:10162000FFF73AFD044606E025E000BFFFF734FD72
:10163000001B022809D828688001F7D51BE000BFED
:10164000FFF72AFD001B022802D90320BDE8F88F0E
:1016500028688001F4D40EE00128F7D06868226A77
:1016600000F48031914204D1616A00F47010884224
:1016700001D00120EAE70020E8E700000010024066
:1016800000004242800442420C00002000700040F2
:1016900010B5401EB0F1807F01D3012010BD4FF086
:1016A000E02460610F21601700F06CFA0020A06157
:1016B00007202061002010BD70B5040004D094F80C
:1016C0004100002510B106E0012070BD84F84050B3
:1016D000204600F023F8242084F841002068C168E7
:1016E00021F40051C160204600F006F9206801692C
:1016F00021F4904101612068416921F02A01416192
:101700002068C16841F40051C1606564202084F8FC
:10171000410084F842006563002070BD30B585B09B
:1017200000240094019402940394006814498842B0
:1017300024D11448816941F480418161816901F4B7
:1017400080410491816941F00401816180690E4DFD
:1017500000F0040004904FF400700090022001900B
:101760000320039069462846FFF7A6FB2815CDE91C
:101770000004694628460294FFF79EFB05B030BD81
:101780000038014000100240000801402DE9F843F4
:10179000044690F841001F4616460D46202802D008
:1017A0000220BDE8F8837DB176B10020606421207D
:1017B00084F84100FFF770FCA6848046E684A068A8
:1017C000B0F5805F02D003E00120EAE7206910B1A4
:1017D0002E4600250EE000260CE08021204600F079
:1017E000E7F8A0B9AEB116F8010B21684860E08CAB
:1017F000401EE084E08C43464FF000020097002832
:10180000EBD14FF04001204600F0D2F830B1032078
:10181000C7E735F8020BC0F30800E6E7202084F89C
:1018200041000020BDE7FEE7094808B5816941F0A5
:1018300020018161816901F020010091816941F0FD
:1018400004018161806900F00400009008BD00007F
:10185000001002400C4810B50A4901604FF4E13114
:101860004160002181600C22C160C0E904128161E5
:10187000C161FFF721FF002803D0BDE81040FFF74A
:1018800019BB10BD0038014044000020FEE7FEE710
:1018900070477047FFF706BC30B58FB02821684607
:1018A000FEF7DDFC14210AA8FEF7D9FC012108048B
:1018B000CDE900100024029402250491CDE90750DF
:1018C0004FF4E01009906846FFF752FD08B172B678
:1018D000FEE70F20CDE90A054FF48060CDE90C400A
:1018E00002210AA80E94FFF767FC002801D072B607
:1018F000FEE70FB030BD704770B50446006801695F
:10190000E26821F44051114301612169A068084354
:10191000616908432168CA6841F20C639A43024333
:10192000CA6020684169A26921F440711143416194
:101930001E492068884202D1FFF7E4FC01E0FFF76E
:10194000D1FC00EBC00101EB001260686421800053
:10195000B2FBF0F3B3FBF1F36FF018067343B2FB85
:10196000F0F5B2FBF0F605EB8305322303EB05152A
:10197000B5FBF1F5B6FBF1F605F0F00505EB061544
:10198000B2FBF0F6B2FBF0F0B0FBF1F06FF0180232
:10199000504306EB800003EB0010B0FBF1F0216830
:1019A00000F00F002844886070BD0000003801403E
:1019B0002DE9F041984617460E460446069D27E05D
:1019C000681C25D02DB1FFF767FBA0EB0800A842EB
:1019D0001ED920680C3050E8001F21F4D07140E877
:1019E0000012002AF5D12068143050E8001F21F0C1
:1019F000010140E80012002AF5D1202084F84100BE
:101A000084F84200002084F840000320BDE8F08103
:101A10002068006836EA000004D00020B842CFD029
:101A20000020F3E70120F9E7FEE700002DE9FF5F62
:101A30001F4690468B460E9E01F077FA824600259F
:101A400019E000BF01F071FA814600240CE000BFEC
:101A500005FB064158F82100C11701F093FB014630
:101A6000484601F07DFA641CB442F1D34946504621
:101A700001F076FA6D1CBD42E4D3009804B05246E2
:101A80005946BDE8F05F01F057BC00000FB4054BAC
:101A900010B503A9044A029800F062F910BC5DF881
:101AA00014FB0000112B0008380000200FB47CB597
:101AB0000C0009AD01D0611E00E00021CDE900015C
:101AC000064B6A462946089800F04AF9002C02D0D5
:101AD000009A002111707CBC5DF814FB672400089B
:101AE0000FB4084B10B504A902AA039800F038F906
:101AF000044602A9002000F0C1FC204610BC5DF89D
:101B000014FB00007D2400087CB50C001D46164621
:101B1000014601D0601E00E00020CDE90010064B18
:101B20006A462946304600F01BF9002C02D0009A84
:101B3000002111707CBD00006724000830B4744699
:101B4000641E2578641CAB4200D21D46635D5B00B9
:101B5000E31830BC1847012249005205D14201D197
:101B6000002801D00020704701207047002800D0D5
:101B700001200143480002494008081AC00F70477D
:101B80000000F07F0907090E002804DB00F1E020C7
:101B900080F80014704700F00F0000F1E02080F89A
:101BA000141D7047004870473400002002E008C848
:101BB000121F08C1002AFAD170477047002001E0C7
:101BC00001C1121F002AFBD1704700002DE9FF5F01
:101BD00082B00021DDE90430020DDDF840B003439E
:101BE00018D044F61050A2F2FF3242431514119857
:101BF00001281FD0A5EB0B00401C5FEA000A4FF044
:101C000000064E4FDFF83891B046504615D5CAF160
:101C1000000413E0119801244AA3012801D16FEABE
:101C20000B010298119AC0E90031C0E9024206B0E6
:101C3000BDE8F09FCBF10000DFE704460021404AF9
:101C4000491842EB0450CDE9001012E0E00707D03C
:101C500032463B4640464946FEF738FD80468946B7
:101C600032463B4610461946FEF730FD06460F4603
:101C70006410002CEAD1DDE90401DDE90023BAF1AA
:101C8000000F06DAFEF722FD42464B46FEF71EFD28
:101C900005E0FEF78DFD42464B46FEF789FD044602
:101CA0000E460022284BFEF70BFE03D84FF0FF3004
:101CB000014607E00022254B20463146FEF75FFC37
:101CC000FEF7E5FD102409E0002C0ADB0A220023C0
:101CD000FEF730FB039B30321A55641E50EA0102B6
:101CE000F2D1641C039AC4F111031444119A012A1D
:101CF00003D0012208430DD10AE0084304D000209C
:101D00004FF0110B119072E7A3EB0B056D1E0DE068
:101D10005B4504DD4FF0000205F1010504E003DA44
:101D20004FF00002A5F10105002AECD002981199AC
:101D3000C0E90231C0E9004579E700000000144025
:101D40000000F03F300000000000F0430000E03FE2
:101D500030380A2801D20120704700207047000067
:101D60002DE9FF4F95B09A46884606460025EEE1DC
:101D7000252877D100242746F94A0121039400E061
:101D8000044316F8013F203B01FA03F01042F7D15B
:101D900030782A2811D06FF02F033078A0F130026C
:101DA000092A16D8039A44F0020402EB820203EBDC
:101DB00042021044761C0390EFE758F8042B03927C
:101DC000002A03DA504244F40054039044F0020421
:101DD000761C30782E2816D116F8010F44F0040432
:101DE0002A280DD06FF02F023078A0F13003092B94
:101DF00009D807EB870302EB4303C718761CF3E708
:101E000058F8047B761C30786C280FD006DC4C2800
:101E100017D068280DD06A2814D104E0742810D097
:101E20007A280FD10DE044F400140AE044F4801441
:101E300001E044F440147278824202D104F5801427
:101E4000761C761C307866280BD013DC582877D0A7
:101E500009DC002875D04528F6D04628F4D047285C
:101E60001AD193E118E0632835D0642879D0652829
:101E700012D18BE1702873D008DC6728F1D0692873
:101E80006FD06E280DD06F2806D1ACE073282CD00F
:101E9000752874D0782853D05246179990476D1CF6
:101EA00054E1C4F30250022809D003280DD0D8F819
:101EB000001004280DD00D6008F1040846E1D8F8A0
:101EC0000010EA17C1E90052F6E7D8F800100D80BB
:101ED000F2E70D70F0E718F8041B8DF800100020F1
:101EE0008DF80100EB46012003E058F804BB4FF0E9
:101EF000FF3061074FF0000102D40DE009F101014C
:101F00008946B9420FDA8145F8DB1BF80910002930
:101F1000F4D108E009F1010189468142FADB1BF89E
:101F200009100029F6D103985346A0EB0907214672
:101F30003846179A00F080FA284400EB090507E0BC
:101F400044E008E10DE01BF8010B52461799904759
:101F5000B9F10109F7D2534621463846179AF2E003
:101F600039E00A21C4F302524FF0000B0091022A1B
:101F700006D058F8040BC117032A09D00AE023E061
:101F800008F1070020F00702F2E80201904605E0A0
:101F900000B2C117042A01D140B2C117002906DAE4
:101FA0000A460021404261EB02012D2202E0220597
:101FB00004D52B228DF80420012203E0E20701D092
:101FC0002022F7E7914657E00A2100E010214FF068
:101FD000000B00910BE010214FF0000B44F00404C3
:101FE0000827009103E008204FF0000B0090C4F395
:101FF0000252022A05D058F8040B0021032A08D007
:1020000008E008F1070020F00702F2E8020190461C
:1020100003E080B2042A00D1C0B24FF000092207C9
:102020002AD53278702A07D0DDF800C08CF0100C69
:102030005CEA0B0C05D00EE040228DF80420012252
:1020400008E050EA010306D030238DF804308DF803
:10205000052002229146009B83F0080353EA0B03FC
:102060000AD150EA010201D1620705D530228DF86C
:1020700004204FF001097F1E3278582A04D039A27B
:102080000C920CAA02920BE03BA2F9E75B46009A85
:10209000FEF750F90C9B9B5C029A521E0292137041
:1020A00050EA0102F2D1029804A9081A00F1200BAB
:1020B000600702D524F4803400E001275F4502DD8B
:1020C000A7EB0B0000E0002000EB0B010090039851
:1020D0004944401A0390E00306D453462146179A18
:1020E000039800F0A9F90544002706E001A852462C
:1020F000C05D179990476D1C7F1C4F45F6DBE003D0
:102100000CD553462146179A039800F095F90544DB
:1021100004E030205246179990476D1C0099481EE4
:1021200000900029F5DC08E00298029952460078F8
:10213000491C0291179990476D1CBBF10001ABF14E
:10214000010BF1DC5BE100F065F90544761C3078A9
:1021500000287FF40DAE19B02846BDE8F08F0000CE
:10216000092801003031323334353637383961626D
:102170006364656600000000303132333435363731
:10218000383941424344454600000000600700D40E
:10219000062708F1070020F00700F0E80223804638
:1021A00003F0004C5FEA0C0001D097A009E0200585
:1021B00001D596A005E0E00701D095A001E0AFF2BF
:1021C0004C001390307823F0004365280CD006DCD7
:1021D000452809D046281DD047287FD13BE06628F6
:1021E00018D067287AD136E00021112F01DB1120A9
:1021F00000E0781CCDE9000104A90CA8FFF7E6FC7B
:10220000DDE90D010C9A4FF0000B07F10109109266
:1022100000914EE04FF000400097CDE9011004A975
:102220000CA8FFF7D3FCDDE90D020C9B0F994FF0D2
:10223000000B91461093009211B9791C00EB010933
:10224000B7EB090003D4C0F1FF3B07F10109A9EB8B
:102250000700019042E0012F00DA01270021112F31
:1022600001DD112000E03846CDE9000104A90CA8E9
:10227000FFF7ACFCDDE90D010C9A00914FF0000B6B
:10228000B946109221070FD4009A4A4503DA9146C5
:1022900001E0A9F10109B9F1010F05DD109AA9F1D9
:1022A0000101515C3029F4D0B84202DA10F1040F78
:1022B00003DA0121CDE9011010E0002803DC83449A
:1022C000A9EB000102E0411C494500DD8946A0EB75
:1022D0000B00401C01904FF000400290200705D4F5
:1022E0000198484502DB4FF0FF30019000208DF847
:1022F0004B0002980DF14B07B0F1004F25D00220A2
:102300000C902B200D90029800280CDA404202908D
:102310002D200D9007E00A210298FDF705FF3031CE
:10232000029007F8011D0C99481E0C900029F2DC60
:1023300002980028EFD1791E0D980870307800F0CF
:10234000200040F0450007F8020D11A8C01BC01D79
:1023500002901398007800B1012000EB0901019868
:1023600001EBE071029801440398401A401E03906B
:10237000E00306D453462146179A039800F05CF810
:1023800005441398007818B15246179990476D1C70
:10239000E00323D553462146179A039800F04CF8E2
:1023A00005441BE0BBF1000F07DB0098584504DD36
:1023B0001098179910F80B0001E017993020524639
:1023C000904701980BF1010B401E05F101050190AA
:1023D00004D12E205246179990476D1CB9F1000187
:1023E000A9F10109DEDC05E017F8010B5246179947
:1023F00090476D1C0299481E02900029F4DC534658
:102400002146179A03989EE62D0000002B0000003D
:10241000200000002DE9F041044600251E46174625
:10242000880404D405E039462020B0476D1C641EA2
:10243000F9D52846BDE8F0812DE9F0410446002594
:102440001E469046C80301D5302700E020278804A7
:1024500004D505E041463846B0476D1C641EF9D5E9
:102460002846BDE8F0814A68002A06D00A68531C55
:102470000B6010704868401E486070470A68531C23
:102480000B601070704770B50D4604998C00990070
:102490008918AA0010182246FDF7BAFE70BD0A6816
:1024A0000C30824204D14868824201D10120704739
:1024B0000020704710B5034619780020752901D017
:1024C000AFF300800122995C00010C46303C092CDE
:1024D00002D8401830380CE00C46613C192C02D868
:1024E0004018573805E00C46413C192C05D84018D7
:1024F0003738521C042AE6DD10BD0020C04310BD51
:10250000FFB59DB01D98269D1C460E4600287DD027
:10251000007801210300FFF711FB089841321121D7
:10252000090D05792A460421C9A08EE12A46042115
:10253000C9A08AE12A460521C9A086E11D9800F0BC
:102540002FFE01910090C8A2642102A8FFF7AEFA05
:10255000014664285AD22A4602A876E11D9800F066
:1025600054FF3204D20E009202460B46642101A8A9
:1025700000F0F0FF010049D42A4601A865E11D984A
:1025800000F05BFF07461D9800F060FF2B462246D7
:102590003946009600F0AEF921B0F0BD1D9F786974
:1025A000002842D179611D9800F032FD02902A4640
:1025B0000121AFA0A047002837D1029800280AD0F7
:1025C0001F992346002200953046491C00F062F90D
:1025D00000282AD134E0002078612A460121A5A0F4
:1025E00033E101461D9800F0DFFC1F9A2346009559
:1025F0003146521CFFF784FF002816D1029801993A
:10260000401E814214DA2A46012100E014E19AA01A
:10261000A047002809D11F99234601220095304682
:10262000491C00F037F9002808D00020786103E148
:1026300023460022009530461F99F2E70198401C7E
:10264000029901908842CCDBC5E7B00603D58BA088
:102650000390012002E08AA00390022005901D98BB
:102660000890006A00287DD1089801621D9800F04A
:1026700029FE06902A46012182A0A0470028F2D117
:10268000069800286FD01F992346002200953046F7
:10269000491C00F0FFF80028E5D1F005800F75D047
:1026A0001D9800F083FE0290C00000F0F9FF019039
:1026B000002857D00027069800F0C7FB0146F80015
:1026C000019A00901150069800F008FE0146019A08
:1026D00000988018416006991D9800F005FE7F1C47
:1026E00006900028E7D10298874228D1300601D50C
:1026F000654B00E0654B082202990198FDF73AFD11
:1027000000274BE00198F900081840680690014640
:102710001D9800F0C9FD0990002810D00698FDF71B
:10272000B3FD01462B4622460096069800F0E2F8DB
:102730002A4605990398A047002823D101E0AFF36A
:1027400000801F9A234600953146521C0998FFF7D6
:10275000D7FE002816D10298401E874217D22A467B
:10276000012101E065E06AE043A0A047002809D10B
:102770001F992346012200953046491C00F08AF833
:1027800000280AD0019800F083FF52E039E0234688
:102790000022009530461F99F0E77F1C029887427F
:1027A000B0D3019800F074FF49E0069800F0AAFD4C
:1027B0001F9A234600953146521CFFF7A1FE0028C0
:1027C00037D10498002810D02A4601212AA0A0471A
:1027D00000282ED11F992346012200953046491C1E
:1027E00000F058F8002824D109E023460022009583
:1027F00030461F9900F04EF800281AD11FE00498C7
:10280000069006991D9800F06FFD0490069800F060
:1028100065FD0746FDF738FD01462B462246384642
:10282000009600F067F82A4605990398A04700280B
:10283000BBD00899002008620020C043ACE608998C
:10284000002008622A46012111A0A047A4E600004A
:102850006E756C6C000000007472756500000000FD
:1028600066616C7365000000256C6C6400000000FC
:102870005B0000005D0000002C0000003A0000003A
:102880003A2000007B0000006D42000879420008F9
:102890007D000000F8B50E461C46C10618D0C006E3
:1028A000C00E0090012110A0069AA0470027FF4308
:1028B000002807D1002508E00C48069A0099A04797
:1028C000002801D03846F8BD6D1CB542F4DB08E0A5
:1028D000002A06D0800604D4012105A0069A984754
:1028E000F8BD0020F8BD00000A0000002E500008CE
:1028F00020000000FFB589B00F4606460B9B012162
:1029000040A00C9A9847002875D135463446F719EF
:1029100018E0791B02AA284602F028FB04006AD0BE
:1029200002985C2810D022280ED020280CDB1299A7
:10293000490501D52F2807D01299490601D57F28CE
:1029400002DC2546BC42E4D3B54206D00B9BA91B52
:1029500030460C9A984700284DD1AC4206D10B9BCB
:10296000012128A00C9A98470DB0F0BD029A0221CF
:102970000D2A23D008DC082A1AD0092A20D00A2AD6
:102980001AD00C2A06D115E0222A0FD02F2A19D0EE
:102990005C2A09D001200004824215DA1AA105A898
:1029A000FFF79EF8062120E019A01FE019A01DE006
:1029B00019A01BE019A019E019A017E019A015E053
:1029C00019A013E019A011E0101A01031B22890DB0
:1029D000D2028A18029080053721800D890243189F
:1029E00013A105A8FFF77CF80C2105A80B9B0C9AF6
:1029F0009847002802D00020C043B5E725462E4660
:102A0000A0E70000220000005C752530345800006B
:102A10005C5C00005C2200005C6200005C66000000
:102A20005C6E00005C7200005C7400005C2F0000B3
:102A30005C75253034585C75253034580000000032
:102A400013460A4610B50146184602F091F810BD2B
:102A50000FB4F0B5D5B0002000255290ED435A9840
:102A60000C462AAE5395002838D05DABA0213046E5
:102A70005C9AFFF749F8002750A8C771002C24D0B2
:102A80002046283002F0DFF8A1695391E569616AB8
:102A9000529100280DD0017800290AD0E16A14294A
:102AA00013D800902AAB10A2A02102A8FEF7FEFFC7
:102AB00008E06069801C08D02AAB0FA2A02102A800
:102AC000FEF7F4FF28A8C77102AE10A0009001968F
:102AD0002A46529B53995A9800F09DFD55B0F0BC80
:102AE00008BC04B0184700002573206E6561722091
:102AF00027257327000000002573206E6561722072
:102B0000656E64206F662066696C65002573000041
:102B100008B564238DF80000012269460248FEF7DB
:102B200035FE012008BD00004400002010B500283B
:102B300021D0114B0022001F196803E0814203D805
:102B40000A4649680029F9D152B11368841A9C4297
:102B500004D1006818441060104602E0506000E0A4
:102B6000186039B102680B1A934203D10B681A44FA
:102B700002604968416010BD3C00002070B5044609
:102B800088184E4A80180246154646E023785B199D
:102B900065782D02EB18A5782D04EB18E5782D0645
:102BA000EE1823799A1863791B029A18A3791B04EB
:102BB0009A18E3791B069B18227A1018627A12027F
:102BC0001018A27A12041018E27A12061518701B57
:102BD0001C262A46F24142401046ED181B1A1A26BE
:102BE000F2415A4013464019ED1A1826F2416A4044
:102BF00015461B18401B1026F2414240EE181046A5
:102C00001B1A0D25EA4153408519F21A18461C2655
:102C1000F04150405A190C390C340C29B6D80B002D
:102C2000FEF78CFF0D4A2724211E1C191613110EC6
:102C30000B082900E17A09060818A17A0904081886
:102C4000617A09020818217A0818E17909068A18B8
:102C5000A17909048A18617909028A1821798A18E8
:102C6000E17809064D19A17809044D196178090226
:102C70004D1921784D1912231146D9415040411A5E
:102C8000152308464D40D841281A07240346E3413E
:102C90004240D21A10241346E3415140C91A1C2461
:102CA0000B464840E341C01A42401223D841101A53
:102CB00041400822D041081A70BD0000EFBEADDED1
:102CC00010B5044600F004F8606800F0E1FC10BDA7
:102CD00070B505460C35046908E06668A068241FD5
:102CE00000F0CEF9204600F0D3FC3446AC42F4D1DB
:102CF00070BDF8B50446406800F0CAFCA168012622
:102D0000491C30468840A1600090C00000F0C8FC1B
:102D10006060002803D0002025460C3509E0002023
:102D2000C043F8BDC10062680B1DD5506268401CED
:102D30005550227A314691408142F3D822696D6024
:102D40002D600DE0171F566838680099FDF7ECF903
:102D50006068C90041183A1D204600F0D1F832469B
:102D6000AA42EFD10020F8BDFFB581B01F460E4644
:102D7000FFF795FB002813D13468251F2868B84257
:102D800006D1284614300399FDF785FA002804D0AF
:102D90007068A04204D06468EFE7284605B0F0BD33
:102DA0000020FBE770B504460D460846FDF76CFAB7
:102DB0000B490A6801462846FFF7E0FE237A012105
:102DC0009940491E01406268C900511803462A46CD
:102DD0002046FFF7C9FF002800D0C06870BD000082
:102DE0003000002070B50446002020600320A06061
:102DF000402000F055FC6060002806D020460C30D2
:102E0000206100210123E06009E00020C04370BD83
:102E1000CA006568161DA8516568491CA850257A26
:102E20001A46AA408A42F3D8002070BD00B5014678
:102E30000C3100F003F800BD1030704702464868BE
:102E40000C32904200D100207047C0687047806803
:102E500070470000FFB50546027A0124016820464C
:102E6000904081B01F46814204D32846FFF741FFBE
:102E7000002840D10298FDF707FA20490A68014668
:102E80000298FFF77BFE0646287A33468440641E8C
:102E900034406868E1004018009001462846029AD4
:102EA000FFF762FF040004D0E06800F0E9F8E76093
:102EB0001EE00298FDF7E8F91521C8421BD2153033
:102EC00000F0EEFB040016D0266003982061204637
:102ED00014300299FDF7F7F9201DA060E7606060EB
:102EE000221D2846009900F00BF82868401C286035
:102EF000002005B0F0BD0020C043FAE730000020FC
:102F000070B515460C460646FFF7C9FA002806D0EC
:102F1000304629460C3000F01EFF656003E029466C
:102F2000206800F018FF256070BD70B5182000F013
:102F3000B7FB04000ED0012020700025E560606022
:102F40000820A060202000F0ABFB2061002802D008
:102F50002046656170BD204600F09AFB002070BDE0
:102F600070B5104E0D0005D0002817D0017801294A
:102F700014D101E0304670BDA8420FD001220446B2
:102F8000114600F01FF8002808D0E1682069890088
:102F90004550E068401CE060002070BD284600F00D
:102FA00063F8E7E7FFFFFFFF002805D00278012A5A
:102FB00002D1C2688A4201D80020704700698900A6
:102FC00040587047F8B50546C06817464318AA68C8
:102FD0002869934219D9064654185000844200D8F3
:102FE0000446A00000F05CFB00280ED0AC60286115
:102FF000002F0BD0E9680023009132461946FFF7F5
:1030000042FA304600F044FB2869F8BD3046F8BD6E
:10301000002802D00178012901D000207047C06843
:103020007047002807D041684A1C04D0491E4160FF
:1030300001D100F031B8704710B5002807D04168C1
:103040004A1C04D0491E416001D100F025F810BD92
:1030500010B5002807D041684A1C04D0491E4160C1
:1030600001D100F019F810BD10B5002807D0416853
:103070004A1C04D0491E416001D100F00DF810BD7A
:1030800010B5002807D041684A1C04D0491E416091
:1030900001D100F001F810BD70B500280AD0017808
:1030A000002908D001290BD002291AD0032915D0F4
:1030B000042913D070BD04460830FFF701FE0CE070
:1030C0000446002504E0A9004058FFF7CDFF6D1C21
:1030D000E068A8422069F6D805E0204600F0D8FA5A
:1030E00070BD0446806800F0D3FAF6E738B51C4698
:1030F0009B0509D4002804D00378012B04D0002BB1
:1031000002D00020C04338BD0B4600920022214669
:10311000FFF7F6F938BD00003EB505460C46684697
:1031200001F06FFD002801D000203EBD23466A4615
:1031300009492846FFF7DAFF002801D0002405E0FE
:10314000684601F080FD00F0B3FA0446684601F0DD
:103150004CFD20463EBD0000412A00080048704753
:1031600018000020002804D041684A1C01D0491CE6
:1031700041607047002804D041684A1C01D0491CB6
:103180004160704770B504460D46102000F088FA83
:10319000002804D0032101700121021D32C270BD3C
:1031A000002802D00178032902D000200146704790
:1031B0008268C1681046704770B50E46044692B0EA
:1031C000154612A1104600F015FA002C0CD0002074
:1031D000119010AA10491094684600F0E5FA0028F2
:1031E00008D0002012B070BD0CA200212846FFF7C5
:1031F0002FFCF6E72A463146684601F011FA0446EC
:10320000684600F0A7FA2046ECE700003C737472B1
:10321000696E673E00000000B94D000877726F6E5E
:103220006720617267756D656E7473000048704742
:103230002000002010B5002804D00178032904D014
:10324000042907D00020014610BDFFF7A9FFFDF7B4
:1032500045F810BD00F0D9F810BD000010B52420CD
:1032600000F01EFA040004D00E480068002802D0C6
:1032700004E0002010BD002000F04AF8002020707B
:103280000120606020460830FFF7ACFD002803D025
:10329000204600F0FDF9ECE70020E06120622046C6
:1032A00010BD00003000002010B5002904D0002817
:1032B00002D00278002A01D0002010BD0830FFF7AC
:1032C00071FD10BD10B5002802D00178002901D091
:1032D000002010BD0830FFF7A9FD10BD10B5002873
:1032E00001D0FFF7A9FD10BD10B5002808D0027865
:1032F000002A05D1002903D00830FFF79FFD10BD3B
:10330000002010BD10B5002801D0FFF7A0FD10BDB2
:1033100038B5084C216800290AD1002807D1684631
:1033200001F008FC0098002801D1012000902060E5
:1033300038BD00003000002070B5154606460C0070
:103340000ED00846FCF7A0FF0146204601F0B0FD74
:10335000002805D02A462146304600F007F870BD07
:103360002846FFF781FE0020C04370BD70B50E4DAA
:10337000140007D0002912D0002810D00278002AAB
:103380000DD101E0284670BDA04208D0C269531C8F
:10339000C36123460830FFF75DFD0028F3D02046C7
:1033A000FFF762FEEEE70000FFFFFFFF002802D0FC
:1033B0000178002901D000207047806870470FB461
:1033C00010B5002103AB0846029A00F061F810BC6A
:1033D00008BC04B0184770B504460D46FEF7C6FB9E
:1033E000002805D120462946FEF7B5FB002801D06C
:1033F000002070BD102000F053F90028F9D00421FE
:1034000001700121021D32C270BD002802D0017876
:10341000042902D00020014670478268C168104626
:10342000704710B5040006D0FCF72EFF0146204679
:1034300000F015F810BD002010BD002802D0017862
:10344000022901D000207047C0687047002802D0D0
:103450000178022901D0002070478068704770B55C
:103460000D46040009D001F023FD002805D00022FC
:103470002946204601F081FC70BD002070BD10B5CA
:10348000002201F07AFC10BD0048704710000020B7
:10349000F0B595B01D4614000E46074629D0207899
:1034A000002826D00021384600F0A4F823463246F2
:1034B000394601A801F028FB01A800F097FE14A9E5
:1034C00001A8149500F0E6FE044600201490002C9C
:1034D0001BD001A800F08AFE08A8007A0028204628
:1034E00014D0FFF7B5FD0AA210A101A801F024FB3A
:1034F0000BE00EA1384600F07DF80FA00023591E06
:1035000000900A46384600F086F8002015B0F0BD5D
:103510004761726261676520616674657220666FDB
:10352000726D617420737472696E67003C666F72AD
:103530006D61743E000000004E554C4C206F7220AF
:10354000656D70747920666F726D6174207374722A
:10355000696E6700FEB5074608980C46002800D142
:10356000112001930092034620A23846FEF79EFAEE
:103570000026F643002811DB0546A0420ED22E217C
:103580003846FCF777FE002812D165213846FCF753
:1035900071FE00280CD1E81CA04201D33046FEBDCC
:1035A0002E20785530217819417000218170AD1C92
:1035B00065213846FCF75EFE002814D0461C841CAA
:1035C00040782D2802D1761C00E0641C2078302839
:1035D000FBD0B44207D0E01B2A1A21463046FCF744
:1035E00017FEA01B2D1A2846FEBD0000252E2A67B7
:1035F0000000000010B500280AD000225C231A54F5
:10360000531E036043608260002902D000F00CF872
:1036100010BD027310BD1CB505AC0194049C009450
:1036200000F020F81CBD000070B504000D4616D057
:10363000002D14D00846FCF727FE22460C325028F5
:1036400002D22946104608E006464C3E04A1104628
:10365000FCF739FE2046A9190F30FCF734FE70BD87
:103660002E2E2E0070B50400059D04980FD05C2608
:10367000365D002E0BD10EC4024620462B46A021FB
:1036800050300C3CFEF740FA0020E034E07670BD8C
:10369000002802D0014949680847704728000020E7
:1036A000002802D001490968084770472800002017
:1036B00010B50446FCF7E8FD0146204600F006F888
:1036C00010BD10B5012201F058FB10BD70B50646C3
:1036D0000C46481CFFF7E4FF050007D022463146A0
:1036E000FCF796FD00202855284670BD002070BDCF
:1036F000FEB50F460646FEF755FA0021019001601F
:103700006946306801F064FB04460D4603CE40185C
:103710000099884201D0AFF3008000220B4B204675
:103720002946FCF7EFFD06D00022094B204629462A
:10373000FCF7E8FD03D101980068022802D030C7E9
:103740000020FEBD0020C043FEBD00000000F07F51
:103750000000F0FF10B50446406BC11FF93902D1DB
:10376000204600F005F82046283001F03EFA10BD52
:1037700010B50446806BFFF78BFF0020A063E06369
:1037800010BD10B501F062FA10BD70B5054601F02C
:103790005DFA0446401C05D0A01C03D021462846F3
:1037A00000F01AF8204670BD10B5044606C400208B
:1037B0002070A060E060012160612161E06120462D
:1037C0002030083C01F01DFA0100024801D160637D
:1037D000002010BDFFFFFFFF10B5C9B2283001F077
:1037E000C1F910BDF8B5054628300F46009001F02C
:1037F000F7F9686BC11FF93902D12846FFF7B8FF06
:1038000039462846FFF7BDFF04462028F8D0092C8A
:10381000F6D00A2CF4D00D2CF2D0601C57D0384EC4
:10382000A01C59D021462846FFF7D6FF7B2C3CD060
:103830007D2C3AD05B2C38D05D2C36D03A2C34D04D
:103840002C2C32D0222C32D020463038092833D9C3
:103850002D2C31D01138192802D9613C192C3ED8B1
:1038600039462846FFF791FF014641381928F7D914
:10387000084661381928F3D9284600F059FA00980B
:1038800001F0E1F904461FA1FCF705FD002819D05D
:103890001EA12046FCF7FFFC002816D01DA12046E3
:1038A000FCF7F9FC002814D016E06C6315E03946EB
:1038B000284600F0F9F810E03A462146284600F084
:1038C0002DF80AE0FF20043001E0FF200530686396
:1038D00003E0FF200630FAE76E63686BF8BD2C4604
:1038E000083408E02846FFF777FF2869401C286164
:1038F000686A401C68622869015D0029F2D1EBE723
:10390000FFFFFFFF747275650000000066616C7355
:10391000650000006E756C6C00000000F7B50026B5
:10392000F64384B0044646632D2903D10699FFF778
:103930002CFF014630292FD00846303809286FD88F
:1039400020460699FFF721FF014630380928F7D9AC
:10395000254628352E2937D045294FD065294DD009
:10396000204600F0E5F9284601F06DF90546FEF71E
:1039700019F90021074601600A2202A92846FCF72E
:10398000ABFC0246386802280FD0E06A029B40195F
:10399000984214D0AFF3008020460699FFF7F5FE59
:1039A0000146303809283BD9D2E7002901DA2DA297
:1039B00000E033A221460698FFF74AF833E0FF20E3
:1039C0000230A26360634AE020460699FFF7D9FE01
:1039D000014630380A28204602D301F0A9F922E036
:1039E000FFF7FAFE20460699FFF7CFFE0146303872
:1039F0000928F7D9452901D065291FD12046069904
:103A0000FFF7C3FE01462B2801D02D2904D1204603
:103A10000699FFF7BAFE0146084630380A2805D352
:103A2000204600F085F9304607B0F0BD20460699E3
:103A3000FFF7ABFE014630380928F7D9204600F0E1
:103A400077F969462846FFF753FE002801D010A2F7
:103A5000B0E7FF200330606301990098A063002065
:103A6000E163E1E7746F6F20626967206E656761EB
:103A70007469766520696E74656765720000000080
:103A8000746F6F2062696720696E74656765720084
:103A90007265616C206E756D626572206F766572FD
:103AA000666C6F7700000000F3B583B00026054612
:103AB0008663701E68634DE0A01C0FD0601C0ED0A2
:103AC0001F2C10D82146284600F032F90A2C234634
:103AD00007D069A229460498FEF7BAFF94E06CA2C9
:103AE0001AE071A2F6E75C2C34D128460499FFF75E
:103AF0004CFE752815D022282CD05C282AD02F28DF
:103B000028D0622826D0662824D06E2822D0722899
:103B100020D074281ED069A229460498FEF798FF89
:103B200072E028460499FFF730FE0446002720463D
:103B300030380A2805D31138062802D3613C062CF8
:103B4000E9D228460499FFF720FE7F1C0446042F83
:103B5000EDDB04E028460499FFF717FE0446222C0B
:103B6000AAD1E86A401CFFF79BFD07004CD028460D
:103B70002830AF6301F067F8441C72E05C286DD117
:103B80006078641C75280BD0662860D055DC22282C
:103B900064D02F2862D05C2860D0622853D154E0D2
:103BA0002046FEF787FC0190002802DA631E47A238
:103BB00090E71B21C902411A4C48641D81422BD851
:103BC00020785C2825D16078752822D1641C204695
:103BD000FEF770FC0028E9DB37218902421A4349CD
:103BE000641D8A4209D80199414A89028918081836
:103BF000092189024018019015E000903DA2294654
:103C0000019B0498FEF724FF2846FFF7B1FD05B09D
:103C1000F0BD40A2019B5DE7372101988902411A5E
:103C200032488142F5D902AA3946019801F060F97B
:103C3000002808D102983F1813E06E2809D0722896
:103C400009D0742809D0AFF30080082006E00C20CA
:103C500004E00A2002E00D2000E009203870641C16
:103C60007F1C2078222889D13E70A86B381AE8631F
:103C7000FF2001306863CAE7636F6E74726F6C2057
:103C80006368617261637465722030782578000022
:103C90007072656D617475726520656E64206F6603
:103CA00020696E7075740000756E65787065637458
:103CB0006564206E65776C696E650000696E76617B
:103CC0006C6964206573636170650000696E76617C
:103CD0006C696420556E69636F6465206573636108
:103CE00070652027252E367327000000FF03000093
:103CF0000000A0FC696E76616C696420556E696392
:103D00006F646520275C75253034585C7525303428
:103D100058270000696E76616C696420556E69638E
:103D20006F646520275C752530345827000000003B
:103D300070B505460C46481C0CD0A01C0AD028467D
:103D400000F0F6FF2846283000F06CFF844201D0D6
:103D5000AFF3008070BD486002680A60026851607D
:103D600001607047DAB01822B84952A8FCF750FA3F
:103D7000B6494022183142A8FCF74AFAFDF79AF9F1
:103D8000FDF78AFDFDF750FDFDF764FDB0A0FFF7DC
:103D900016FB4FF4007605463146FFF7BDF90446A1
:103DA0000146ACA0FDF772FE2846FEF7BFFE204696
:103DB000FEF7BCFE0724AAA32A22AAA1AAA0009467
:103DC000FFF7FDFA07463146FFF7A6F9054601461B
:103DD000A0A0FDF75BFE3846FEF7A8FE2846FEF7DA
:103DE000A5FE9FA32A229FA1A1A00094FFF7E7FAB6
:103DF00007463146FFF790F90546014695A0FDF7C5
:103E000045FE3846FEF792FE2846FEF78FFE9BA33E
:103E10002A2201219BA00094FFF7D1FA05463146E2
:103E2000FFF77AF9044601468AA0FDF72FFE2846DF
:103E3000FEF77CFE2046FEF779FE96A0042200687D
:103E4000589058A994A0FFF7BAFA05463146FFF7F3
:103E500063F9044601467FA0FDF718FE2846FEF7E9
:103E600065FE2046FEF762FE8CA37DA27DA18CA09C
:103E7000FFF7A5FA05463146FFF74EF9044601461D
:103E800074A0FDF703FE2846FEF750FE2046FEF71D
:103E90004DFE002081A1CDE900010246029070A3F1
:103EA00070A180A0FFF78BFA05463146FFF734F981
:103EB0000446014667A0FDF7E9FD2846FEF736FEF9
:103EC0002046FEF733FE00231A4619467AA0FFF774
:103ED00076FA05463146FFF71FF9044601465DA014
:103EE000FDF7D4FD2846FEF721FE2046FEF71EFE14
:103EF000FFF7B4F9044603200090022352AA71A1EF
:103F00002046FDF793FD04200346009042AA6FA1CE
:103F10002046FDF78BFD00212046FFF7FDF8054602
:103F200000F032FD2846FEF701FE2046FFF779F843
:103F30002046FFF776F8FFF791F98046FFF78EF9F4
:103F40000746FFF78BF9054662A0FFF76AFA0246BB
:103F500063A14046FFF7F0F963A0FFF762FA02465B
:103F600064A14046FFF7E8F9FFF78EFA024663A125
:103F70004046FFF7E1F9FFF7F1F8024661A140463C
:103F8000FFF7DAF901200021FFF7FCF802465FA1F4
:103F90004046FFF7D1F95F485F49FFF71CFA024638
:103FA0005EA14046FFF7C8F95EA0FFF73AFA024665
:103FB0005FA13846FFF7C0F95FA0FFF732FA02466B
:103FC0005BA12846FFF7B8F9FEF7AFFF0446394674
:103FD000FEF7C6FF29462046FEF7C2FF224659A13A
:103FE0004046FFF7A9F931464046FFF795F80546E8
:103FF000014618A0FDF74AFD4046FFF712F803AA54
:1040000000212846FFF7D8F806464EA1FFF74CF9E5
:10401000FEF7FEFF4EA13046FFF746F90446FFF7D4
:1040200009F9CDE9000114B1207805280BD0002250
:10403000217849A0FDF72AFD2846FEF777FD304696
:10404000FEF7EFFFFEE70122F2E70000AC4F0008A9
:104050007B7D00006F75743A25730D0A0000000027
:1040600062617200666F6F007B736973697D000027
:104070007B733A692C733A697D000000636F6F6C43
:10408000000000005B5B692C695D2C7B733A627DEC
:104090005D000000746573747323000062617A0030
:1040A000732B2B007B733A732A2C733A6F2A2C7371
:1040B0003A4F2A7D000000005B732A2C6F2A2C4F98
:1040C0002A5D00006172723100000000617272327C
:1040D0000000000048656C6C6F20576F726C6400C4
:1040E0005469746C65000000546573745F6F626A94
:1040F000000000006E616D65000000006E756D5F70
:10410000310000006E756D5F320000006E756D5FEE
:1041100033000000CDCCCCCCCCCCF83F6E756D5FBD
:10412000340000006974656D315F6F626A000000E1
:104130006974656D310000006974656D325F6F628E
:104140006A0000004368696C6472656E5F3100004C
:104150006E756D310000000054657374206E756DCE
:10416000312074797065206973203A2025642C20F1
:1041700076616C3A2025642C25660D0A000000004B
:10418000F0B50B30154D20F007010024144A0FE064
:1041900003688B420BD38B4205D95E1A43184768DC
:1041A000C3E9006700E04368136002C004E0021D39
:1041B00010680028ECD12046002802D1286808B1F8
:1041C0000020F0BD064A07481060074A121A22F084
:1041D0000702C0E9002401202860D7E74000002042
:1041E0003C0000209400002090100020014610B5F3
:1041F00018311EC908301EC001691838002907D0BF
:1042000002462C321CCA18301EC00021016010BDAD
:10421000426C4168521C4264826C521C01238264CD
:1042200008E00A2A1DD0426C521C4264826C521C67
:10423000491C82640A78202AF3D0092AF1D00A2A7C
:10424000EFD02C2AEDD03A2AEBD0D3B2242213544B
:10425000026C8261426CC261826C491C02624160E4
:1042600010BD026C4364521C0264DFE710B549685C
:104270004068FCF710F810BD00680968884202D257
:104280000020C0437047884201D0012070470020C1
:10429000704700000EB52422135C692B42D00CDC61
:1042A0005B2B1BD004DC492B42D04F2B0DD155E0AA
:1042B000622B2BD0662B08D145E06E2B23D06F2BC1
:1042C00053D0732B0DD07B2B05D02AA232A100F046
:1042D00033FC00200EBD00F0C1F80EBD00F066F802
:1042E0000EBD02AA009201AB2EA200F05FFB0028D7
:1042F000F6D002990029019902D0FFF7E2F90EBD2C
:10430000FFF7BDF80EBDFEF791FF0EBD0868021D58
:104310000A600068002802D0FFF7B6F80EBDFEF76D
:104320001DFF0EBD0868021D0A600068C11707E086
:104330000868C01DC208D20010460830086003CAD1
:10434000FEF720FF0EBD0868C01DC208D20010464F
:104350000830086003CAFFF73EF80EBD0868021D6A
:104360000A600068FEF706FF0EBD0868021D0A60BD
:1043700000680EBD556E657870656374656420666F
:104380006F726D617420636861726163746572201D
:1043900027256327000000003C666F726D61743E44
:1043A00000000000737472696E670000F8B50F4674
:1043B0000546FEF7BAFD06462846FFF717FF2C46CE
:1043C00020341CE0002814D039462846FFF762FF4D
:1043D000010009D03046FEF7C3FD00280CD00AA228
:1043E00010A1284600F0A8FB3046FEF731FE002061
:1043F000F8BD0FA216A1F4E72846FFF7F7FE2079D3
:104400005D28DFD13046F8BD556E61626C65207461
:104410006F20617070656E6420746F2061727261CC
:10442000790000003C696E7465726E616C3E00003C
:10443000556E657870656374656420656E64206F81
:104440006620666F726D617420737472696E6700A6
:104450003C666F726D61743E00000000F0B585B07F
:104460000E460546FEF7FAFE01902846FFF7BEFE0F
:104470002C46203446E0002B04D0732B08D024A215
:104480002BA127E02DA22AA1284600F055FB2BE006
:1044900002A8009004AB31A23146284600F086FA0B
:1044A000070021D02846FFF7A1FE31462846FFF736
:1044B000F1FE020012D039460198FEF757FF00289E
:1044C000029817D0002802D03846FFF7E1F83B46A3
:1044D00025A22BA1284600F02FFB05E0029800281A
:1044E00002D03846FFF7D4F80198FEF7B1FD00205E
:1044F00005B0F0BD002802D03846FFF7C9F82846BD
:10450000FFF774FE23797D2BB5D10198F0E7000009
:10451000457870656374656420666F726D617420A0
:104520002773272C20676F7420272563270000003E
:104530003C666F726D61743E00000000556E6578D8
:1045400070656374656420656E64206F6620666FB5
:10455000726D617420737472696E67006F626A6550
:104560006374206B65790000556E61626C65207420
:104570006F20616464206B6579202225732200001E
:104580003C696E7465726E616C3E0000F7B517464B
:104590000446FEF7CAFC06002ED039462046FFF737
:1045A00021F9606B5D2830D02BE03A462046019916
:1045B00000F040F905001BD0FEF7D4FD014630465F
:1045C000FEF7CEFC0028284602D0FEF735FD0FE0AE
:1045D000FEF732FD39462046FFF704F9606B2C28C0
:1045E0000BD05D2811D00AA221463846FEF730FADA
:1045F0003046FEF721FD0020FEBD39462046FFF77C
:10460000F1F8606B0028D0D1EDE73046FEBD000028
:10461000275D27206578706563746564000000007D
:10462000F8B50F46154604461146FFF7DBF8780744
:104630000AD4606B5B2807D07B2805D012A22146E4
:104640002846FEF705FA17E02A463946204600F0CC
:10465000F1F8060010D0B80710D429462046FFF71D
:10466000C1F8606B002809D00CA221462846FEF74D
:10467000EFF93046FEF7E0FC0020F8BD002D01D038
:10468000606AA8603046F8BD275B27206F7220273C
:104690007B2720657870656374656400656E6420AF
:1046A0006F662066696C6520657870656374656403
:1046B00000000000F7B582B00446FEF7CFFD06000B
:1046C00020D020460499FFF78DF8606B7D2873D0C9
:1046D000FF270137606BB84201D038A25EE00020AE
:1046E000A56BE26BA063E063002D0AD00021284691
:1046F000FBF7DFFD002807D02846FEF7C9FF35A2EB
:104700004CE0002005B0F0BD0398C0070AD0294650
:104710003046FEF7C9FD002804D02846FEF7B8FF52
:1047200036A23BE020460499FFF75CF8606B3A281C
:1047300004D02846FEF7ACFF36A22FE020460499AD
:10474000FFF750F82046049A039900F073F80090A0
:1047500000280FD0FEF706FD024629463046FEF738
:1047600005FE00280AD02846FEF792FF0098FEF7C3
:1047700063FC17E02846FEF78BFF13E00098FEF776
:104780005BFC2846FEF784FF20460499FFF72AF8D1
:10479000606B2C280AD07D280ED022A221460498D6
:1047A000FEF756F93046FEF747FCAAE72046049983
:1047B000FFF718F88EE7FFE73046A3E773747269D6
:1047C0006E67206F7220277D27206578706563747F
:1047D000656400004E554C206279746520696E2036
:1047E0006F626A656374206B6579206E6F742073E5
:1047F0007570706F72746564000000006475706C91
:104800006963617465206F626A656374206B6579A2
:1048100000000000273A272065787065637465649E
:1048200000000000277D272065787065637465644B
:1048300000000000FEB50446406BFF23174602331C
:10484000C21A98422BD009DC401C5AD05C2850D0A8
:104850007C2849D0FF38022808D109E0012A37D046
:10486000022A38D0032A39D0042A3AD026A220E0DE
:10487000A66BE56BC80608D42A4600213046FBF734
:1048800018FD002801D025A213E029463046FEF786
:1048900018FF002833D00021A163E163FEBD0807A3
:1048A00011D5204669462830FEF722FF002805D0A2
:1048B00026A221463846FEF7CBF820E00199009861
:1048C000FEF789FD19E0E16BA06BFEF75BFC14E0DD
:1048D000E16BA06BF4E7FEF7D7FD0EE0FEF73EFCC0
:1048E0000BE0FEF7A3FC08E03A462046FFF7E2FEA5
:1048F00003E03A462046FFF749FE0028CED10020CB
:10490000FEBD18A2D5E70000756E6578706563740A
:10491000656420746F6B656E000000005C7530305C
:104920003030206973206E6F7420616C6C6F776516
:104930006420776974686F7574204A534F4E5F41E5
:104940004C4C4F575F4E554C000000007265616C37
:10495000206E756D626572206F766572666C6F771A
:1049600000000000696E76616C696420746F6B658D
:104970006E000000014610B518311EC928301EC057
:1049800030381EC81EC010BD10B5044601E0FEF749
:10499000BFF814F8010B04490028F8D1BDE8104015
:1049A0000A20FEF7B5B8000038000020FFB583B03C
:1049B0001F460C460398FFF719FC039D039820350A
:1049C0002E79FFF7D7FF232E27D0252E25D02B2E8B
:1049D00023D02068011D21600468002C10D02046DF
:1049E000FBF752FC05460146204600F061FA00281C
:1049F0000CD03D600C9800210160204607B0F0BD4E
:104A00002DA233A1039800F097F853E032A230A111
:104A1000059B039800F090F84CE0684600F0F1F830
:104A20002068011D21600668002E2CD00398FFF736
:104A3000DDFB2879232829D0252827D00398FFF7E4
:104A400099FF3046FBF720FC02463146684600F0ED
:104A50008FF8401C1FD00398FFF7C8FB28792B283C
:104A6000DED00398FFF786FF0199009800F020FA46
:104A7000002816D0019838600C9801210160684622
:104A800000F0DCF8BAE70CA211A106E02068011DD5
:104A900021600268D9E715A218A1039800F04CF82C
:104AA00005E00DA20AA1059B039800F045F86846B1
:104AB00000F09BF80020A1E74E554C4C2073747217
:104AC000696E6720617267756D656E740000000025
:104AD0003C617267733E0000496E76616C696420C8
:104AE0005554462D38202573000000004F75742062
:104AF0006F66206D656D6F72790000003C696E74A1
:104B000065726E616C3E000003604360C263816346
:104B100000218160C160016141618161C161016207
:104B200041628162C16201634163012241640264A6
:104B300081647047002070470FB47CB5044609A813
:104B400001900D4608980090214618310EC9A06BBF
:104B5000FEF788FD2946A06BFEF766FD7CBC08BC0D
:104B600004B0184713B5012201A900F001F81CBDDB
:104B7000F7B504468168406816460A1AB2421BD847
:104B8000164A914227D8B21C25D85242904222D8C8
:104B90004D00711C4018854200D805462846FEF796
:104BA0007FFD070017D006CC083CFBF731FB2068DF
:104BB000FEF76EFD2760A56003CC32464018083C26
:104BC0000199FBF725FB606880196060226800216D
:104BD00011540846FEBD0020C043FEBDFFFFFF7F0D
:104BE0000021416000680170704710B504460068FC
:104BF000002801D0FEF74CFD0020A060606020601E
:104C000010BD70B50446002510206560A060FEF759
:104C100047FD2060002802D00570002070BD0020F4
:104C2000C04370BD4168002906D0491E026841603A
:104C3000505C0023535470470020704700220168E5
:104C4000026008467047006870470000F3B50446EC
:104C5000406981B000281FD12046083021690090AA
:104C6000085C002830D12168606888470546401CF0
:104C70000FD0257200202061284680387F2821D857
:104C8000E8B200F0B3F8060039D0022E05DAAFF32F
:104C900000800020C0436061FEBD012705E021685F
:104CA00060688847E11908727F1CB742F7DB002271
:104CB0003146009800F0B8F8002820D00020A11953
:104CC000087201E00020607220690099421C226194
:104CD000455C606A401C60620A2D09D0284600F0DD
:104CE00085F8002802D0E069401CE0612846FEBD3E
:104CF000A069401CA061E06920620020F5E7012660
:104D0000F64366612B4603A221460298FDF7A0FEFA
:104D10003046FEBD756E61626C6520746F206465FF
:104D2000636F6465206279746520307825780000AF
:104D300070B504460D46481C1ED0A81C1CD0606AE5
:104D4000401E60620A2D12D0E8B200F04FF8002831
:104D500002D0E069401EE0612069002805D0401EB5
:104D600020610834005DA84206D0AFF30080A0693E
:104D7000401EA061206AEEE770BD70B515460E4674
:104D8000002811D0002D01D0044603E0FEF79EFC60
:104D9000040009D01020FEF783FC002805D0022172
:104DA00001700121021D52C270BD002D02D12046AA
:104DB000FEF76EFC002070BD036842680146985CF7
:104DC000002802D0521C4A6070470020C043704740
:104DD00000B583B00A460021CDE9001101466846BE
:104DE000FBF7F5FADDE9000103B000BD802801D230
:104DF00001207047014680393F2913D9C02811D0BE
:104E0000C1280FD042391D2901D802207047014620
:104E1000E0390F2901D803207047F038042801D861
:104E2000042070470020704770B50378022904D031
:104E3000032905D0042906D02EE0DB06DB0E04E0B2
:104E40001B071B0F01E05B075B0F0124055D2E466E
:104E5000803E402E20D2AD069B01AD0E5B19641C36
:104E60008C42F3D31048834216DC1B20C0020F4C47
:104E7000181AA04210D9022904D0032905D0042908
:104E800006D00BE0802B07DB08E00120C00201E028
:104E900001200004834201DA002070BD002A00D006
:104EA0001360012070BD0000FFFF1000FF0700002D
:104EB000F0B50E460746002415E0385DFFF796FF73
:104EC000050004D0012D0DD9301BA84201D20020CD
:104ED000F0BD381900222946FFF7A6FF0028F7D0B9
:104EE0006419641E641CB442E7D30120F0BD0000C5
:104EF00070B50025ED43002834DB802802DA087005
:104F000001202CE083069B0E01248033E402DBB2F7
:104F1000A04206DA4005C00EC03008704B70022077
:104F20001DE00405A40E012680343604E4B2B0422C
:104F300007DA0004000FE03008704C708B7003201B
:104F40000DE0094EB0420DDCC5026D0FF035800357
:104F5000800E0D70803048708C70CB700420106013
:104F6000002070BD284670BDFFFF100078B51646C2
:104F70000A00054617D02878FFF738FF040013D041
:104F8000012C09D094420FD801466A462846FFF703
:104F90004BFF002808D001E028780090002E01D0B7
:104FA00000983060281978BD002078BD010000000D
:104FB00002000000030000000400000005000000E3
:104FC00006000000010000000200000003000000D5
:104FD00004000000050000000600000007000000BB
:104FE00008000000090000000A0000000B0000009B
:104FF0000C0000000D0000000E0000000F0000007B
:1050000010000000010202030405060708090A0B4C
:105010000C0D0E0F10100000000000000000010237
:105020000304060708090000000001020304202011
:105030002020202020202020202020202020202070
:1050400020202020202020202020202020200000A0
:10505000404040404040404040414141414140404B
:105060004040404040404040404040404040404040
:10507000050202020202020202020202020202020D
:1050800020202020202020202020020202020202D4
:10509000029090909090901010101010101010101E
:1050A0001010101010101010101010020202020246
:1050B0000288888888888808080808080808080876
:1050C0000808080808080808080808020202024040
:1050D00050500008F4500008000000204400000078
:1050E000AC1B000838510008440000204C20000090
:1050F000BC1B0008010000001000000000000000C0
:105100000024F40005000000FFFFFFFF0600000080
:10511000FFFFFFFF07000000FFFFFFFF81410008C6
:105120002D2B00080000000000000000000000001F
:08513000000000000000000077
:04000005080000ED02
:00000001FF
