:020000040800F2
:10000000B8060020CD010008F30F0008DB0E000841
:10001000F10F0008D30200085F1100080000000083
:10002000000000000000000000000000F70F0008C2
:10003000D502000800000000F50F0008F90F0008C5
:10004000E7010008E7010008E7010008E7010008F0
:10005000E7010008E7010008E7010008E7010008E0
:10006000E7010008E7010008E7010008E7010008D0
:10007000E7010008E7010008E7010008E7010008C0
:10008000E7010008E7010008E7010008E7010008B0
:10009000E7010008E7010008E7010008E7010008A0
:1000A000E70100085D100008E7010008E70100080B
:1000B000E7010008E7010008E7010008E701000880
:1000C000E7010008E7010008E7010008E701000870
:1000D000E7010008E7010008E7010008E701000860
:1000E000E7010008E7010008E7010008E701000850
:1000F000E7010008E7010008E7010008E701000840
:10010000E7010008E7010008E7010008E70100082F
:10011000E7010008E7010008E7010008E70100081F
:10012000E7010008E7010008E7010008E70100080F
:1001300000F002F800F03AF80AA090E8000C8244BF
:100140008344AAF10107DA4501D100F02FF8AFF29C
:10015000090EBAE80F0013F0010F18BFFB1A43F0A5
:1001600001031847A0100000C0100000103A24BF7F
:1001700078C878C1FAD8520724BF30C830C144BF0C
:1001800004680C607047000000230024002500264E
:10019000103A28BF78C1FBD8520728BF30C148BFEA
:1001A0000B6070471FB51FBD10B510BD00F058F8AB
:1001B0001146FFF7F7FF00F0FBFF00F076F803B4FD
:1001C000FFF7F2FF03BC00F07DF80000094880470C
:1001D00009480047FEE7FEE7FEE7FEE7FEE7FEE729
:1001E000FEE7FEE7FEE7FEE704480549054A064B41
:1001F000704700005B10000831010008B8000020C3
:10020000B8060020B8020020B80200204FF000021B
:1002100000B5134694469646203922BFA0E80C50FC
:10022000A0E80C50B1F12001BFF4F7AF090728BFD7
:10023000A0E80C5048BF0CC05DF804EB890028BF53
:1002400040F8042B08BF704748BF20F8022B11F07C
:10025000804F18BF00F8012B7047704770477047F8
:10026000754600F02BF8AE4605006946534620F06F
:100270000700854618B020B5FFF7B6FFBDE820405F
:100280004FF000064FF000074FF000084FF0000B52
:1002900021F00701AC46ACE8C009ACE8C009ACE805
:1002A000C009ACE8C0098D46704710B50446AFF3ED
:1002B00000802046BDE81040FFF781BF004870472E
:1002C0005800002001491820ABBEFEE726000200BE
:1002D0007047FEE7704772B6FEE700002DE9F84F61
:1002E000DFF8C8910024A9F1040B23460F2709F178
:1002F000040AABF1040ED1E00125A54006EA05028F
:10030000AA4276D1DFF8A8C14E68A6EB0C08664574
:100310002BD00DDC032E34D005DC36B3012E19D0E2
:10032000022E2FD11BE0112E16D0122E2AD119E049
:10033000B8F5881F19D006DCB8F5803F15D0B8F5A0
:10034000801F1FD111E0B8F5001F0ED0B8F5041FB3
:1003500018D10AE0CB6815E0CB681B1D12E0CB6812
:1003600008330FE0CB680C330CE08B682BB1012B0A
:100370004FF0080303D0456104E0042302E0056167
:1003800000E00023FF2A01D8064601E000F1040640
:100390004FEA840501D9A5F12005D6F8008007FAB7
:1003A00005FC28EA0C0803FA05F548EA0508C6F832
:1003B00000804D68ED0070D53E4DAE6946F00106F7
:1003C000AE61AD6924F0030605F0010500953A4DD4
:1003D00006EB050CDCF80850A607360F07FA06F8FE
:1003E00025EA0805DFF8D480404503D14FF0000826
:1003F00025E052E0DFF8C880404502D14FF0010807
:100400001DE0DFF8C080404502D14FF0020816E041
:10041000DFF8B480404502D14FF003080FE0DFF869
:10042000AC80404502D14FF0040808E0DFF8A0801E
:10043000404502D14FF0050801E04FF0060808FAE8
:1004400006F848EA0508CCF808804D68D9F800603D
:10045000ED024D4601D5164300E096432E604D68EF
:10046000DAF80060AD02554601D5164300E0964328
:100470002E604D68DBF80060AD035D4601D5164384
:1004800000E096432E604D68DEF80060ED0375468F
:1004900001D5164300E096432E60641C0A68164698
:1004A000E2407FF429AFBDE8F88F00000804014066
:1004B000000011100010024000000140000801403F
:1004C000000C0140001001400014014000180140E0
:1004D000001C0140C26821EA02030A4043EA0241CB
:1004E000016170470AB1016170470904FBE7000030
:1004F00001488068704700000000002002488168C1
:10050000027811448160704700000020074810B550
:10051000016841F010010160032000F075F80F2020
:1005200000F006F800F024F8002010BD0020024082
:1005300070B50D4D04464FF47A712878B1FBF0F098
:100540000A490968B1FBF0F000F0BCFA48B9102C78
:1005500007D200222146501E00F036F800206C60C1
:1005600070BD012070BD0000000000200C000020C4
:100570000C4808B5816941F001018161816901F090
:1005800001010091C16941F08051C161C06900F071
:10059000805000900448416821F0E06141F0007112
:1005A000416008BD0010024000000140002809DB46
:1005B00000F01F02012191404009800000F1E0207D
:1005C000C0F8001170470000F0B40E4B1B680C46D9
:1005D000C3F30223C3F10705042D00D90425191D17
:1005E000072901D2002300E0DB1E012606FA05F1EF
:1005F000491E214099409E40761E16403143F0BC72
:1006000000F0AEBD0CED00E0064900F007020868FE
:100610004FF6FF03184040EA0220034A10430860E7
:10062000704700000CED00E00000FA052DE9F047EE
:100630000F46050061D0434E306800F00700B84215
:1006400009D2306820F0070038433060306800F08D
:100650000700B84251D128683B4C810712D54007AA
:1006600003D5606840F4E06060602878000703D537
:10067000606840F4605060606068A96820F0F00035
:10068000084360602878C00728D06868012810D027
:100690002168022810D0890700292EDA616821F02C
:1006A000030101436160FFF723FF804641F288396F
:1006B0000DE021688903EFE78901EDE7FFF718FFF7
:1006C000A0EB0801494502D90320BDE8F087606826
:1006D000696800F00C00B0EB810FEFD1306800F0DA
:1006E0000700B8420BD9306820F00700384330606B
:1006F000306800F00700B84201D00120E5E7287813
:10070000400705D56068E96820F4E0600843606050
:100710002878000706D56068296920F4605040EA0F
:10072000C100606000F018F86168084AC1F3031165
:10073000515CC8400649086006480068FFF7F8FEAB
:100740000020C2E70020024000100240F211000821
:100750000C000020040000200E4A51680E4801F0F1
:100760000C03042B11D0082B0FD10C48C1F3834389
:10077000C903C05C0AD55168084AC1F34041921EC2
:10078000515C054A5043B0FBF1F0704704494843BF
:10079000704700000010024000127A00E2110008C9
:1007A00000093D002DE9F84F040070D02078C04DBD
:1007B000C00749D06868C0F38100012807D0686885
:1007C000C0F38100022809D16868C00306D52868F3
:1007D000800339D560680028E7D035E06068B0F55F
:1007E000803F0BD010B1B0F5A02F11D0286820F4B5
:1007F00080302860286820F4802002E0286840F4D7
:1008000080302860606890B1FFF772FE06460AE00B
:10081000286840F480202860F0E700BFFFF768FEFA
:10082000801B642873D828688003F7D50CE0FFF795
:100830005FFE064605E000BFFFF75AFE801B6428F6
:10084000F0D828688003F7D420789A4E80074FF0BC
:1008500001094FF0000839D5686810F00C0F07D077
:100860006868C0F38100022809D16868C00306D413
:100870002868800714D52069012808D110E0206974
:10088000B0B1C6F80090FFF733FE074605E00AE175
:10089000FFF72EFEC01B0228C4D828688007F7D5B2
:1008A0002868616920F0F80040EAC10028600DE086
:1008B000C6F80080FFF71CFE074604E0FFF718FEAD
:1008C000C01B022823D828688007F7D420780007A7
:1008D0002CD57948A169D9B1C0F80090FFF708FE7E
:1008E000074604E0FFF704FEC01B02280FD8686A21
:1008F0008007F7D571484FF4FA510068B0FBF1F06A
:10090000009000BF0098411E0091FAD20EE080E0F6
:10091000C0F80080FFF7ECFD074604E0FFF7E8FDB4
:10092000C01B022875D8686A8007F7D42078400772
:1009300060D5E8690027C00008D4E86940F080501D
:10094000E861E869012700F0805000905C48016888
:10095000C90513D40168834641F480710160FFF733
:10096000C7FD824606E000BFFFF7C2FDA0EB0A000C
:1009700064284ED8DBF80000C005F5D5E0680128F2
:100980000AD008B1052813D0286A20F00100286297
:10099000286A20F0040002E0286A40F00100286282
:1009A000E06841F2883B98B1FFF7A2FD82460BE078
:1009B000286A40F004002862EEE700BFFFF798FDC8
:1009C000A0EB0A0159455AD8286A8007F6D50CE0F1
:1009D000FFF78EFD824605E0FFF78AFDA0EB0A01D6
:1009E00059454CD8286A8007F6D41FB1E86920F031
:1009F0008050E861E06988B36968C1F38101022928
:100A000044D00228C6F8608004D0FFF771FD044688
:100A100038E034E0FFF76CFD074604E0FFF768FDBF
:100A2000C01B02282BD828688001F7D4206AB0F5B3
:100A3000803F05D16868A16820F4003008436860F1
:100A4000D4E908010843696821F474110843686017
:100A5000C6F86090FFF74CFD044606E025E000BFB5
:100A6000FFF746FD001B022809D828688001F7D54A
:100A70001BE000BFFFF73CFD001B022802D903204A
:100A8000BDE8F88F28688001F4D40EE00128F7D083
:100A90006868226A00F48031914204D1616A00F4EE
:100AA0007010884201D00120EAE70020E8E700004A
:100AB0000010024000004242800442420C0000202C
:100AC0000070004010B5401EB0F1807F01D30120BE
:100AD00010BD4FF0E02460610F21601700F040FB73
:100AE0000020A06107202061002010BD70477047E2
:100AF00070B590F83C20012A2CD0012480F83C40AD
:100B0000022280F83D2003685A689D6822F0700632
:100B10000A6832435A60104B02689A420ED00F4B5B
:100B20009A420BD0B2F1804F08D00D4B9A4205D0BB
:100B30000C4B9A4202D00C4B9A4204D1496825F0E2
:100B400080031943916080F83D40002180F83C10FB
:100B5000084670BD022070BD002C014000340140E9
:100B60000004004000080040000C004010B50400E4
:100B700003D094F83D0010B107E0012010BD002023
:100B800084F83C00204600F01FF8022084F83D0065
:100B9000211D206800F068FA012084F8460084F8DE
:100BA0003E0084F83F0084F8400084F8410084F857
:100BB000420084F8430084F8440084F8450084F837
:100BC0003D00002010BD000008B500680B498842B8
:100BD00012D10B48816941F4006181618069002272
:100BE00000F40060009011461920FFF7EDFCBDE80D
:100BF00008401920FFF7DABC08BD0000002C0140B6
:100C00000010024090F83D10012901D001207047EA
:100C1000022180F83D1000680E4988420ED00E492E
:100C200088420BD0B0F1804F08D00C49884205D0E3
:100C30000B49884202D00B49884204D1816801F0F7
:100C40000701062903D0016841F00101016000207D
:100C500070470000002C01400034014000040040B7
:100C600000080040000C004001680A6A41F21113BC
:100C70001A4207D10A6A9B101A4203D10A6822F06D
:100C800001020A60012180F83D100020704770B514
:100C9000044690F83C000025012817D0012684F86E
:100CA0003C60022084F83D002068826822F07702D0
:100CB00022F47F4282600868502838D00DDC20285A
:100CC0004FD005DC90B3102811D14AE0022070BD4E
:100CD000302846D040280AD13BE060282FD0702829
:100CE0000DD0B0F5805F03D0B0F5005F12D00125C4
:100CF00084F83D60002084F83C00284670BDCB6835
:100D0000D1E90121206800F0F5F92068816841F0FF
:100D1000770109E0CB68D1E90121206800F0EAF908
:100D20002068816841F480418160E1E719E0CA6888
:100D30004968206800F0F0F95021206806E0CA6890
:100D40004968206800F0F9F96021206800F0DCF9BA
:100D5000CEE7CA684968206800F0DEF940212068C3
:100D6000F4E7226801461046F0E7704770B5044684
:100D7000006801694FF00005C943890715D4C168AF
:100D8000C943890711D4E91E016101202077206839
:100D900080698007204602D0FFF7E7FF04E000F0FB
:100DA00098F8204600F096F8257720680169C94335
:100DB000490717D4C168C943490713D46FF0040128
:100DC0000161022020772068806910F4407F20466E
:100DD00002D0FFF7CAFF04E000F07BF8204600F0E5
:100DE00079F8257720680169C943090716D4C168D5
:100DF000C943090712D46FF008010161042020776C
:100E00002068C0698007204602D0FFF7AEFF04E0EB
:100E100000F05FF8204600F05DF825772068016952
:100E2000C943C90617D4C168C943C90613D46FF0B2
:100E300010010161082020772068C06910F4407F0C
:100E4000204602D0FFF791FF04E000F042F8204670
:100E500000F040F8257720680169C943C90708D127
:100E6000C168C943C90704D1891E0161204600F049
:100E700032F820680169C943090609D4C168C94329
:100E8000090605D46FF0800101612046FFF72EFEB0
:100E900020680169C943490609D4C168C9434906A4
:100EA00005D46FF040010161204600F015F820687C
:100EB0000169C94389060BD4C168C943890607D4AF
:100EC0006FF0200101612046BDE87040FFF70FBEC2
:100ED00070BD7047704770477047FEE72DE9F043DB
:100EE00085B00024254800940194029403948169FC
:100EF00041F020018161816901F020010491816943
:100F000041F004018161816901F00401049181696A
:100F100041F0080181618069DFF8648000F0080019
:100F20004FF480750490002229464046FFF7DAFA14
:100F3000DFF850904FF4E877002239464846FFF733
:100F4000D1FA0095022601250396CDE901546946A0
:100F50004046FFF7C3F900970396CDE9015469466F
:100F60004846FFF7BBF92020CDE900046946484612
:100F70000294FFF7B3F905B0BDE8F083001002401A
:100F800000080140000C014010B586B0002417484D
:100F9000009401940294039404941349059401600D
:100FA0004721C0E901144FF6FF71C0E90314446101
:100FB0008461FFF7DBFD08B1FFF78DF94FF4805036
:100FC000009069460948FFF762FE08B1FFF783F910
:100FD000049404A905480594FFF78AFD002801D070
:100FE000FFF779F906B010BD002C01401000002079
:100FF000FEE7FEE770477047FFF780BA30B58FB065
:1010000028216846FFF702F914210AA8FFF7FEF825
:1010100001210804CDE90010002402940225049166
:10102000CDE907504FF4E01009906846FFF7BAFB8E
:1010300008B172B6FEE70F20CDE90A054FF48060D3
:10104000CDE90C4002210AA80E94FFF7EFFA002820
:1010500001D072B6FEE70FB030BD70470148FFF710
:1010600085BE000010000020F0B502681C4B1D4D2D
:101070001D4E1E4F1E4C4FF0804C984209D0A0428E
:1010800007D0604505D0A84203D0B04201D0B84295
:1010900004D122F0700E4A6842EA0E02984209D04A
:1010A000A04207D0604505D0A84203D0B04201D08D
:1010B000B84203D122F44075CA682A434D6922F030
:1010C00080022A4302608A68C2620A688262984289
:1010D00001D0A04201D10969016301214161F0BD44
:1010E000002C01400004004000080040000C0040BB
:1010F0000034014010B5846842EA032224F47F449E
:101100000A432243826010BD826822F070020A43C3
:1011100042F007018160704710B5036A046A24F049
:1011200001040462846924F0F00444EA021423F008
:101130000A020A438461026210BD10B5036A046AA0
:1011400024F010040462846923F0A00324F47044A2
:1011500044EA023243EA01118261016210BDFEE7F6
:101160000907090E002804DB00F1E02080F80014D4
:10117000704700F00F0000F1E02080F8141D704768
:1011800070B50A4D04460020296848622868C46288
:101190002846EC60FFF736FD286800E0466AA64264
:1011A000FCD1BDE870400148FFF75EBD1000002093
:1011B000FFF7ACF9FFF722FFFFF790FEFFF7E4FE21
:1011C000064D4FF480744FF47A7621462846FFF797
:1011D00081F93046FFF7D4FFF7E70000000801402F
:1011E000010202030405060708090A0B0C0D0E0F85
:1011F00010100000000000000000010203040607B8
:10120000080900002412000800000020100000005F
:101210006C0100083412000810000020A80600002D
:10122000880100080100000010000000000000001C
:041230000024F400A2
:0400000508000131BD
:00000001FF
